{
	"contracts/LuckyTokenSkeleton.sol": {
		"LuckyToken": {
			"abi": [
				{
					"inputs": [
						{
							"internalType": "string",
							"name": "name",
							"type": "string"
						},
						{
							"internalType": "string",
							"name": "symbol",
							"type": "string"
						}
					],
					"stateMutability": "nonpayable",
					"type": "constructor"
				},
				{
					"anonymous": false,
					"inputs": [
						{
							"indexed": true,
							"internalType": "address",
							"name": "owner",
							"type": "address"
						},
						{
							"indexed": true,
							"internalType": "address",
							"name": "spender",
							"type": "address"
						},
						{
							"indexed": false,
							"internalType": "uint256",
							"name": "value",
							"type": "uint256"
						}
					],
					"name": "Approval",
					"type": "event"
				},
				{
					"anonymous": false,
					"inputs": [
						{
							"indexed": true,
							"internalType": "address",
							"name": "_from",
							"type": "address"
						},
						{
							"indexed": true,
							"internalType": "address",
							"name": "_to",
							"type": "address"
						},
						{
							"indexed": false,
							"internalType": "uint256",
							"name": "value",
							"type": "uint256"
						}
					],
					"name": "Transfer",
					"type": "event"
				},
				{
					"inputs": [
						{
							"internalType": "address",
							"name": "owner",
							"type": "address"
						},
						{
							"internalType": "address",
							"name": "spender",
							"type": "address"
						}
					],
					"name": "allowance",
					"outputs": [
						{
							"internalType": "uint256",
							"name": "",
							"type": "uint256"
						}
					],
					"stateMutability": "view",
					"type": "function"
				},
				{
					"inputs": [
						{
							"internalType": "address",
							"name": "spender",
							"type": "address"
						},
						{
							"internalType": "uint256",
							"name": "amount",
							"type": "uint256"
						}
					],
					"name": "approve",
					"outputs": [
						{
							"internalType": "bool",
							"name": "",
							"type": "bool"
						}
					],
					"stateMutability": "nonpayable",
					"type": "function"
				},
				{
					"inputs": [
						{
							"internalType": "address",
							"name": "account",
							"type": "address"
						}
					],
					"name": "balanceOf",
					"outputs": [
						{
							"internalType": "uint256",
							"name": "",
							"type": "uint256"
						}
					],
					"stateMutability": "view",
					"type": "function"
				},
				{
					"inputs": [
						{
							"internalType": "uint256",
							"name": "amount",
							"type": "uint256"
						}
					],
					"name": "burn",
					"outputs": [],
					"stateMutability": "nonpayable",
					"type": "function"
				},
				{
					"inputs": [
						{
							"internalType": "address",
							"name": "account",
							"type": "address"
						},
						{
							"internalType": "uint256",
							"name": "amount",
							"type": "uint256"
						}
					],
					"name": "burnFrom",
					"outputs": [],
					"stateMutability": "nonpayable",
					"type": "function"
				},
				{
					"inputs": [],
					"name": "decimals",
					"outputs": [
						{
							"internalType": "uint8",
							"name": "",
							"type": "uint8"
						}
					],
					"stateMutability": "view",
					"type": "function"
				},
				{
					"inputs": [
						{
							"internalType": "address",
							"name": "spender",
							"type": "address"
						},
						{
							"internalType": "uint256",
							"name": "subtractedValue",
							"type": "uint256"
						}
					],
					"name": "decreaseAllowance",
					"outputs": [
						{
							"internalType": "bool",
							"name": "",
							"type": "bool"
						}
					],
					"stateMutability": "nonpayable",
					"type": "function"
				},
				{
					"inputs": [
						{
							"internalType": "address",
							"name": "account",
							"type": "address"
						}
					],
					"name": "hasMinterRole",
					"outputs": [
						{
							"internalType": "bool",
							"name": "",
							"type": "bool"
						}
					],
					"stateMutability": "view",
					"type": "function"
				},
				{
					"inputs": [
						{
							"internalType": "address",
							"name": "spender",
							"type": "address"
						},
						{
							"internalType": "uint256",
							"name": "addedValue",
							"type": "uint256"
						}
					],
					"name": "increaseAllowance",
					"outputs": [
						{
							"internalType": "bool",
							"name": "",
							"type": "bool"
						}
					],
					"stateMutability": "nonpayable",
					"type": "function"
				},
				{
					"inputs": [
						{
							"internalType": "address",
							"name": "to",
							"type": "address"
						},
						{
							"internalType": "uint256",
							"name": "amount",
							"type": "uint256"
						}
					],
					"name": "mint",
					"outputs": [],
					"stateMutability": "nonpayable",
					"type": "function"
				},
				{
					"inputs": [],
					"name": "name",
					"outputs": [
						{
							"internalType": "string",
							"name": "",
							"type": "string"
						}
					],
					"stateMutability": "view",
					"type": "function"
				},
				{
					"inputs": [],
					"name": "symbol",
					"outputs": [
						{
							"internalType": "string",
							"name": "",
							"type": "string"
						}
					],
					"stateMutability": "view",
					"type": "function"
				},
				{
					"inputs": [],
					"name": "totalSupply",
					"outputs": [
						{
							"internalType": "uint256",
							"name": "",
							"type": "uint256"
						}
					],
					"stateMutability": "view",
					"type": "function"
				},
				{
					"inputs": [
						{
							"internalType": "address",
							"name": "to",
							"type": "address"
						},
						{
							"internalType": "uint256",
							"name": "amount",
							"type": "uint256"
						}
					],
					"name": "transfer",
					"outputs": [
						{
							"internalType": "bool",
							"name": "",
							"type": "bool"
						}
					],
					"stateMutability": "nonpayable",
					"type": "function"
				},
				{
					"inputs": [
						{
							"internalType": "address",
							"name": "from",
							"type": "address"
						},
						{
							"internalType": "address",
							"name": "to",
							"type": "address"
						},
						{
							"internalType": "uint256",
							"name": "amount",
							"type": "uint256"
						}
					],
					"name": "transferFrom",
					"outputs": [
						{
							"internalType": "bool",
							"name": "",
							"type": "bool"
						}
					],
					"stateMutability": "nonpayable",
					"type": "function"
				}
			],
			"devdoc": {
				"details": "{ERC20} token, including:  - ability for holders to burn (destroy) their tokens  - a minter role that allows for token minting (creation)  - a pauser role that allows to stop all token transfers",
				"kind": "dev",
				"methods": {
					"allowance(address,address)": {
						"details": "Returns the remaining number of tokens that `spender` will be allowed to spend on behalf of `owner` through {transferFrom}. This is zero by default."
					},
					"approve(address,uint256)": {
						"details": "Sets `amount` as the allowance of `spender` over the caller's tokens. Returns a boolean value indicating whether the operation succeeded. Requirements: - `spender` cannot be the zero address."
					},
					"balanceOf(address)": {
						"details": "Returns the amount of tokens owned by `account`."
					},
					"burn(uint256)": {
						"details": "Destroys `amount` tokens from the caller."
					},
					"burnFrom(address,uint256)": {
						"details": "Destroys `amount` tokens from `account`, deducting from the caller's allowance. Requirements: - the caller must have allowance for ``accounts``'s tokens of at least `amount`."
					},
					"decimals()": {
						"details": "Returns the number of decimals used to get its user representation. For example, if `decimals` equals `2`, a balance of `505` tokens should be displayed to a user as `5.05` (`505 / 10 ** 2`)."
					},
					"decreaseAllowance(address,uint256)": {
						"details": "Atomically decreases the allowance granted to `spender` by the caller. Returns a boolean value indicating whether the operation succeeded. Emits an {Approval} event indicating the updated allowance. Requirements: - `spender` cannot be the zero address. - `spender` must have allowance for the caller of at least `subtractedValue`."
					},
					"increaseAllowance(address,uint256)": {
						"details": "Atomically increases the allowance granted to `spender` by the caller. Returns a boolean value indicating whether the operation succeded. Emits an {Approval} event indicating the updated allowance. Requirements: - `spender` cannot be the zero address."
					},
					"mint(address,uint256)": {
						"details": "Creates `amount` new tokens for `to`. Requirements: - the caller must have the `MINTER_ROLE`."
					},
					"name()": {
						"details": "Returns the name of the token."
					},
					"symbol()": {
						"details": "Returns the symbol of the token, usually a shorter version of the name."
					},
					"totalSupply()": {
						"details": "Returns token total supply."
					},
					"transfer(address,uint256)": {
						"details": "Moves `amount` tokens from the caller's account to `to`. Returns a boolean value indicating whether the operation succeeded. Requirements: - `to` cannot be the zero address. - the caller must have a balance of at least `amount`."
					},
					"transferFrom(address,address,uint256)": {
						"details": "Moves `amount` tokens from `from` to `to` using the allowance mechanism. `amount` is then deducted from the caller's allowance. Returns a boolean value indicating whether the operation succeeded. Emits a {Transfer} event. Emits an {Approval} event indicating the updated allowance. This is not required by the EIP. See the note at the beginning of {ERC20}. NOTE: Does not update the allowance if the current allowance is the maximum `uint256`. Requirements: - `from` and `to` cannot be the zero address. - `from` must have a balance of at least `amount`. - the caller must have allowance for ``from``'s tokens of at least `amount`."
					}
				},
				"version": 1
			},
			"evm": {
				"assembly": "    /* \"contracts/LuckyTokenSkeleton.sol\":11946:12652  contract LuckyToken is Context, ERC20Burnable {... */\n  mstore(0x40, 0x80)\n    /* \"contracts/LuckyTokenSkeleton.sol\":12038:12158  constructor(string memory name, string memory symbol) ERC20(name, symbol) {... */\n  callvalue\n  dup1\n  iszero\n  tag_1\n  jumpi\n  0x00\n  dup1\n  revert\ntag_1:\n  pop\n  mload(0x40)\n  sub(codesize, bytecodeSize)\n  dup1\n  bytecodeSize\n  dup4\n  codecopy\n  dup2\n  dup2\n  add\n  0x40\n  mstore\n  dup2\n  add\n  swap1\n  tag_2\n  swap2\n  swap1\n  tag_3\n  jump\t// in\ntag_2:\n    /* \"contracts/LuckyTokenSkeleton.sol\":12098:12102  name */\n  dup2\n    /* \"contracts/LuckyTokenSkeleton.sol\":12104:12110  symbol */\n  dup2\n    /* \"contracts/LuckyTokenSkeleton.sol\":1673:1678  name_ */\n  dup2\n    /* \"contracts/LuckyTokenSkeleton.sol\":1665:1670  _name */\n  0x03\n    /* \"contracts/LuckyTokenSkeleton.sol\":1665:1678  _name = name_ */\n  swap1\n  dup1\n  mload\n  swap1\n  0x20\n  add\n  swap1\n  tag_7\n  swap3\n  swap2\n  swap1\n  tag_8\n  jump\t// in\ntag_7:\n  pop\n    /* \"contracts/LuckyTokenSkeleton.sol\":1698:1705  symbol_ */\n  dup1\n    /* \"contracts/LuckyTokenSkeleton.sol\":1688:1695  _symbol */\n  0x04\n    /* \"contracts/LuckyTokenSkeleton.sol\":1688:1705  _symbol = symbol_ */\n  swap1\n  dup1\n  mload\n  swap1\n  0x20\n  add\n  swap1\n  tag_9\n  swap3\n  swap2\n  swap1\n  tag_8\n  jump\t// in\ntag_9:\n  pop\n    /* \"contracts/LuckyTokenSkeleton.sol\":1599:1712  constructor(string memory name_, string memory symbol_) {... */\n  pop\n  pop\n    /* \"contracts/LuckyTokenSkeleton.sol\":12147:12151  true */\n  0x01\n    /* \"contracts/LuckyTokenSkeleton.sol\":12122:12130  _minters */\n  0x05\n    /* \"contracts/LuckyTokenSkeleton.sol\":12122:12144  _minters[_msgSender()] */\n  0x00\n    /* \"contracts/LuckyTokenSkeleton.sol\":12131:12143  _msgSender() */\n  tag_11\n    /* \"contracts/LuckyTokenSkeleton.sol\":12131:12141  _msgSender */\n  shl(0x20, tag_12)\n    /* \"contracts/LuckyTokenSkeleton.sol\":12131:12143  _msgSender() */\n  0x20\n  shr\n  jump\t// in\ntag_11:\n    /* \"contracts/LuckyTokenSkeleton.sol\":12122:12144  _minters[_msgSender()] */\n  0xffffffffffffffffffffffffffffffffffffffff\n  and\n  0xffffffffffffffffffffffffffffffffffffffff\n  and\n  dup2\n  mstore\n  0x20\n  add\n  swap1\n  dup2\n  mstore\n  0x20\n  add\n  0x00\n  keccak256\n  0x00\n    /* \"contracts/LuckyTokenSkeleton.sol\":12122:12151  _minters[_msgSender()] = true */\n  0x0100\n  exp\n  dup2\n  sload\n  dup2\n  0xff\n  mul\n  not\n  and\n  swap1\n  dup4\n  iszero\n  iszero\n  mul\n  or\n  swap1\n  sstore\n  pop\n    /* \"contracts/LuckyTokenSkeleton.sol\":12038:12158  constructor(string memory name, string memory symbol) ERC20(name, symbol) {... */\n  pop\n  pop\n    /* \"contracts/LuckyTokenSkeleton.sol\":11946:12652  contract LuckyToken is Context, ERC20Burnable {... */\n  jump(tag_13)\n    /* \"contracts/LuckyTokenSkeleton.sol\":534:683  function _msgSender() internal view virtual returns (address) {... */\ntag_12:\n    /* \"contracts/LuckyTokenSkeleton.sol\":587:594  address */\n  0x00\n    /* \"contracts/LuckyTokenSkeleton.sol\":666:676  msg.sender */\n  caller\n    /* \"contracts/LuckyTokenSkeleton.sol\":659:676  return msg.sender */\n  swap1\n  pop\n    /* \"contracts/LuckyTokenSkeleton.sol\":534:683  function _msgSender() internal view virtual returns (address) {... */\n  swap1\n  jump\t// out\n    /* \"contracts/LuckyTokenSkeleton.sol\":11946:12652  contract LuckyToken is Context, ERC20Burnable {... */\ntag_8:\n  dup3\n  dup1\n  sload\n  tag_15\n  swap1\n  tag_16\n  jump\t// in\ntag_15:\n  swap1\n  0x00\n  mstore\n  keccak256(0x00, 0x20)\n  swap1\n  0x1f\n  add\n  0x20\n  swap1\n  div\n  dup2\n  add\n  swap3\n  dup3\n  tag_18\n  jumpi\n  0x00\n  dup6\n  sstore\n  jump(tag_17)\ntag_18:\n  dup3\n  0x1f\n  lt\n  tag_19\n  jumpi\n  dup1\n  mload\n  not(0xff)\n  and\n  dup4\n  dup1\n  add\n  or\n  dup6\n  sstore\n  jump(tag_17)\ntag_19:\n  dup3\n  dup1\n  add\n  0x01\n  add\n  dup6\n  sstore\n  dup3\n  iszero\n  tag_17\n  jumpi\n  swap2\n  dup3\n  add\ntag_20:\n  dup3\n  dup2\n  gt\n  iszero\n  tag_21\n  jumpi\n  dup3\n  mload\n  dup3\n  sstore\n  swap2\n  0x20\n  add\n  swap2\n  swap1\n  0x01\n  add\n  swap1\n  jump(tag_20)\ntag_21:\ntag_17:\n  pop\n  swap1\n  pop\n  tag_22\n  swap2\n  swap1\n  tag_23\n  jump\t// in\ntag_22:\n  pop\n  swap1\n  jump\t// out\ntag_23:\ntag_24:\n  dup1\n  dup3\n  gt\n  iszero\n  tag_25\n  jumpi\n  0x00\n  dup2\n  0x00\n  swap1\n  sstore\n  pop\n  0x01\n  add\n  jump(tag_24)\ntag_25:\n  pop\n  swap1\n  jump\t// out\n    /* \"#utility.yul\":7:428   */\ntag_27:\n    /* \"#utility.yul\":96:101   */\n  0x00\n    /* \"#utility.yul\":121:187   */\n  tag_29\n    /* \"#utility.yul\":137:186   */\n  tag_30\n    /* \"#utility.yul\":179:185   */\n  dup5\n    /* \"#utility.yul\":137:186   */\n  tag_31\n  jump\t// in\ntag_30:\n    /* \"#utility.yul\":121:187   */\n  tag_32\n  jump\t// in\ntag_29:\n    /* \"#utility.yul\":112:187   */\n  swap1\n  pop\n    /* \"#utility.yul\":210:216   */\n  dup3\n    /* \"#utility.yul\":203:208   */\n  dup2\n    /* \"#utility.yul\":196:217   */\n  mstore\n    /* \"#utility.yul\":248:252   */\n  0x20\n    /* \"#utility.yul\":241:246   */\n  dup2\n    /* \"#utility.yul\":237:253   */\n  add\n    /* \"#utility.yul\":286:289   */\n  dup5\n    /* \"#utility.yul\":277:283   */\n  dup5\n    /* \"#utility.yul\":272:275   */\n  dup5\n    /* \"#utility.yul\":268:284   */\n  add\n    /* \"#utility.yul\":265:290   */\n  gt\n    /* \"#utility.yul\":262:374   */\n  iszero\n  tag_33\n  jumpi\n    /* \"#utility.yul\":293:372   */\n  tag_34\n  tag_35\n  jump\t// in\ntag_34:\n    /* \"#utility.yul\":262:374   */\ntag_33:\n    /* \"#utility.yul\":383:422   */\n  tag_36\n    /* \"#utility.yul\":415:421   */\n  dup5\n    /* \"#utility.yul\":410:413   */\n  dup3\n    /* \"#utility.yul\":405:408   */\n  dup6\n    /* \"#utility.yul\":383:422   */\n  tag_37\n  jump\t// in\ntag_36:\n    /* \"#utility.yul\":102:428   */\n  pop\n    /* \"#utility.yul\":7:428   */\n  swap4\n  swap3\n  pop\n  pop\n  pop\n  jump\t// out\n    /* \"#utility.yul\":448:803   */\ntag_38:\n    /* \"#utility.yul\":515:520   */\n  0x00\n    /* \"#utility.yul\":564:567   */\n  dup3\n    /* \"#utility.yul\":557:561   */\n  0x1f\n    /* \"#utility.yul\":549:555   */\n  dup4\n    /* \"#utility.yul\":545:562   */\n  add\n    /* \"#utility.yul\":541:568   */\n  slt\n    /* \"#utility.yul\":531:653   */\n  tag_40\n  jumpi\n    /* \"#utility.yul\":572:651   */\n  tag_41\n  tag_42\n  jump\t// in\ntag_41:\n    /* \"#utility.yul\":531:653   */\ntag_40:\n    /* \"#utility.yul\":682:688   */\n  dup2\n    /* \"#utility.yul\":676:689   */\n  mload\n    /* \"#utility.yul\":707:797   */\n  tag_43\n    /* \"#utility.yul\":793:796   */\n  dup5\n    /* \"#utility.yul\":785:791   */\n  dup3\n    /* \"#utility.yul\":778:782   */\n  0x20\n    /* \"#utility.yul\":770:776   */\n  dup7\n    /* \"#utility.yul\":766:783   */\n  add\n    /* \"#utility.yul\":707:797   */\n  tag_27\n  jump\t// in\ntag_43:\n    /* \"#utility.yul\":698:797   */\n  swap2\n  pop\n    /* \"#utility.yul\":521:803   */\n  pop\n    /* \"#utility.yul\":448:803   */\n  swap3\n  swap2\n  pop\n  pop\n  jump\t// out\n    /* \"#utility.yul\":809:1662   */\ntag_3:\n    /* \"#utility.yul\":908:914   */\n  0x00\n    /* \"#utility.yul\":916:922   */\n  dup1\n    /* \"#utility.yul\":965:967   */\n  0x40\n    /* \"#utility.yul\":953:962   */\n  dup4\n    /* \"#utility.yul\":944:951   */\n  dup6\n    /* \"#utility.yul\":940:963   */\n  sub\n    /* \"#utility.yul\":936:968   */\n  slt\n    /* \"#utility.yul\":933:1052   */\n  iszero\n  tag_45\n  jumpi\n    /* \"#utility.yul\":971:1050   */\n  tag_46\n  tag_47\n  jump\t// in\ntag_46:\n    /* \"#utility.yul\":933:1052   */\ntag_45:\n    /* \"#utility.yul\":1112:1113   */\n  0x00\n    /* \"#utility.yul\":1101:1110   */\n  dup4\n    /* \"#utility.yul\":1097:1114   */\n  add\n    /* \"#utility.yul\":1091:1115   */\n  mload\n    /* \"#utility.yul\":1142:1160   */\n  0xffffffffffffffff\n    /* \"#utility.yul\":1134:1140   */\n  dup2\n    /* \"#utility.yul\":1131:1161   */\n  gt\n    /* \"#utility.yul\":1128:1245   */\n  iszero\n  tag_48\n  jumpi\n    /* \"#utility.yul\":1164:1243   */\n  tag_49\n  tag_50\n  jump\t// in\ntag_49:\n    /* \"#utility.yul\":1128:1245   */\ntag_48:\n    /* \"#utility.yul\":1269:1343   */\n  tag_51\n    /* \"#utility.yul\":1335:1342   */\n  dup6\n    /* \"#utility.yul\":1326:1332   */\n  dup3\n    /* \"#utility.yul\":1315:1324   */\n  dup7\n    /* \"#utility.yul\":1311:1333   */\n  add\n    /* \"#utility.yul\":1269:1343   */\n  tag_38\n  jump\t// in\ntag_51:\n    /* \"#utility.yul\":1259:1343   */\n  swap3\n  pop\n    /* \"#utility.yul\":1062:1353   */\n  pop\n    /* \"#utility.yul\":1413:1415   */\n  0x20\n    /* \"#utility.yul\":1402:1411   */\n  dup4\n    /* \"#utility.yul\":1398:1416   */\n  add\n    /* \"#utility.yul\":1392:1417   */\n  mload\n    /* \"#utility.yul\":1444:1462   */\n  0xffffffffffffffff\n    /* \"#utility.yul\":1436:1442   */\n  dup2\n    /* \"#utility.yul\":1433:1463   */\n  gt\n    /* \"#utility.yul\":1430:1547   */\n  iszero\n  tag_52\n  jumpi\n    /* \"#utility.yul\":1466:1545   */\n  tag_53\n  tag_50\n  jump\t// in\ntag_53:\n    /* \"#utility.yul\":1430:1547   */\ntag_52:\n    /* \"#utility.yul\":1571:1645   */\n  tag_54\n    /* \"#utility.yul\":1637:1644   */\n  dup6\n    /* \"#utility.yul\":1628:1634   */\n  dup3\n    /* \"#utility.yul\":1617:1626   */\n  dup7\n    /* \"#utility.yul\":1613:1635   */\n  add\n    /* \"#utility.yul\":1571:1645   */\n  tag_38\n  jump\t// in\ntag_54:\n    /* \"#utility.yul\":1561:1645   */\n  swap2\n  pop\n    /* \"#utility.yul\":1363:1655   */\n  pop\n    /* \"#utility.yul\":809:1662   */\n  swap3\n  pop\n  swap3\n  swap1\n  pop\n  jump\t// out\n    /* \"#utility.yul\":1668:1797   */\ntag_32:\n    /* \"#utility.yul\":1702:1708   */\n  0x00\n    /* \"#utility.yul\":1729:1749   */\n  tag_56\n  tag_57\n  jump\t// in\ntag_56:\n    /* \"#utility.yul\":1719:1749   */\n  swap1\n  pop\n    /* \"#utility.yul\":1758:1791   */\n  tag_58\n    /* \"#utility.yul\":1786:1790   */\n  dup3\n    /* \"#utility.yul\":1778:1784   */\n  dup3\n    /* \"#utility.yul\":1758:1791   */\n  tag_59\n  jump\t// in\ntag_58:\n    /* \"#utility.yul\":1668:1797   */\n  swap2\n  swap1\n  pop\n  jump\t// out\n    /* \"#utility.yul\":1803:1878   */\ntag_57:\n    /* \"#utility.yul\":1836:1842   */\n  0x00\n    /* \"#utility.yul\":1869:1871   */\n  0x40\n    /* \"#utility.yul\":1863:1872   */\n  mload\n    /* \"#utility.yul\":1853:1872   */\n  swap1\n  pop\n    /* \"#utility.yul\":1803:1878   */\n  swap1\n  jump\t// out\n    /* \"#utility.yul\":1884:2192   */\ntag_31:\n    /* \"#utility.yul\":1946:1950   */\n  0x00\n    /* \"#utility.yul\":2036:2054   */\n  0xffffffffffffffff\n    /* \"#utility.yul\":2028:2034   */\n  dup3\n    /* \"#utility.yul\":2025:2055   */\n  gt\n    /* \"#utility.yul\":2022:2078   */\n  iszero\n  tag_62\n  jumpi\n    /* \"#utility.yul\":2058:2076   */\n  tag_63\n  tag_64\n  jump\t// in\ntag_63:\n    /* \"#utility.yul\":2022:2078   */\ntag_62:\n    /* \"#utility.yul\":2096:2125   */\n  tag_65\n    /* \"#utility.yul\":2118:2124   */\n  dup3\n    /* \"#utility.yul\":2096:2125   */\n  tag_66\n  jump\t// in\ntag_65:\n    /* \"#utility.yul\":2088:2125   */\n  swap1\n  pop\n    /* \"#utility.yul\":2180:2184   */\n  0x20\n    /* \"#utility.yul\":2174:2178   */\n  dup2\n    /* \"#utility.yul\":2170:2185   */\n  add\n    /* \"#utility.yul\":2162:2185   */\n  swap1\n  pop\n    /* \"#utility.yul\":1884:2192   */\n  swap2\n  swap1\n  pop\n  jump\t// out\n    /* \"#utility.yul\":2198:2505   */\ntag_37:\n    /* \"#utility.yul\":2266:2267   */\n  0x00\n    /* \"#utility.yul\":2276:2389   */\ntag_68:\n    /* \"#utility.yul\":2290:2296   */\n  dup4\n    /* \"#utility.yul\":2287:2288   */\n  dup2\n    /* \"#utility.yul\":2284:2297   */\n  lt\n    /* \"#utility.yul\":2276:2389   */\n  iszero\n  tag_70\n  jumpi\n    /* \"#utility.yul\":2375:2376   */\n  dup1\n    /* \"#utility.yul\":2370:2373   */\n  dup3\n    /* \"#utility.yul\":2366:2377   */\n  add\n    /* \"#utility.yul\":2360:2378   */\n  mload\n    /* \"#utility.yul\":2356:2357   */\n  dup2\n    /* \"#utility.yul\":2351:2354   */\n  dup5\n    /* \"#utility.yul\":2347:2358   */\n  add\n    /* \"#utility.yul\":2340:2379   */\n  mstore\n    /* \"#utility.yul\":2312:2314   */\n  0x20\n    /* \"#utility.yul\":2309:2310   */\n  dup2\n    /* \"#utility.yul\":2305:2315   */\n  add\n    /* \"#utility.yul\":2300:2315   */\n  swap1\n  pop\n    /* \"#utility.yul\":2276:2389   */\n  jump(tag_68)\ntag_70:\n    /* \"#utility.yul\":2407:2413   */\n  dup4\n    /* \"#utility.yul\":2404:2405   */\n  dup2\n    /* \"#utility.yul\":2401:2414   */\n  gt\n    /* \"#utility.yul\":2398:2499   */\n  iszero\n  tag_71\n  jumpi\n    /* \"#utility.yul\":2487:2488   */\n  0x00\n    /* \"#utility.yul\":2478:2484   */\n  dup5\n    /* \"#utility.yul\":2473:2476   */\n  dup5\n    /* \"#utility.yul\":2469:2485   */\n  add\n    /* \"#utility.yul\":2462:2489   */\n  mstore\n    /* \"#utility.yul\":2398:2499   */\ntag_71:\n    /* \"#utility.yul\":2247:2505   */\n  pop\n    /* \"#utility.yul\":2198:2505   */\n  pop\n  pop\n  pop\n  jump\t// out\n    /* \"#utility.yul\":2511:2831   */\ntag_16:\n    /* \"#utility.yul\":2555:2561   */\n  0x00\n    /* \"#utility.yul\":2592:2593   */\n  0x02\n    /* \"#utility.yul\":2586:2590   */\n  dup3\n    /* \"#utility.yul\":2582:2594   */\n  div\n    /* \"#utility.yul\":2572:2594   */\n  swap1\n  pop\n    /* \"#utility.yul\":2639:2640   */\n  0x01\n    /* \"#utility.yul\":2633:2637   */\n  dup3\n    /* \"#utility.yul\":2629:2641   */\n  and\n    /* \"#utility.yul\":2660:2678   */\n  dup1\n    /* \"#utility.yul\":2650:2731   */\n  tag_73\n  jumpi\n    /* \"#utility.yul\":2716:2720   */\n  0x7f\n    /* \"#utility.yul\":2708:2714   */\n  dup3\n    /* \"#utility.yul\":2704:2721   */\n  and\n    /* \"#utility.yul\":2694:2721   */\n  swap2\n  pop\n    /* \"#utility.yul\":2650:2731   */\ntag_73:\n    /* \"#utility.yul\":2778:2780   */\n  0x20\n    /* \"#utility.yul\":2770:2776   */\n  dup3\n    /* \"#utility.yul\":2767:2781   */\n  lt\n    /* \"#utility.yul\":2747:2765   */\n  dup2\n    /* \"#utility.yul\":2744:2782   */\n  eq\n    /* \"#utility.yul\":2741:2825   */\n  iszero\n  tag_74\n  jumpi\n    /* \"#utility.yul\":2797:2815   */\n  tag_75\n  tag_76\n  jump\t// in\ntag_75:\n    /* \"#utility.yul\":2741:2825   */\ntag_74:\n    /* \"#utility.yul\":2562:2831   */\n  pop\n    /* \"#utility.yul\":2511:2831   */\n  swap2\n  swap1\n  pop\n  jump\t// out\n    /* \"#utility.yul\":2837:3118   */\ntag_59:\n    /* \"#utility.yul\":2920:2947   */\n  tag_78\n    /* \"#utility.yul\":2942:2946   */\n  dup3\n    /* \"#utility.yul\":2920:2947   */\n  tag_66\n  jump\t// in\ntag_78:\n    /* \"#utility.yul\":2912:2918   */\n  dup2\n    /* \"#utility.yul\":2908:2948   */\n  add\n    /* \"#utility.yul\":3050:3056   */\n  dup2\n    /* \"#utility.yul\":3038:3048   */\n  dup2\n    /* \"#utility.yul\":3035:3057   */\n  lt\n    /* \"#utility.yul\":3014:3032   */\n  0xffffffffffffffff\n    /* \"#utility.yul\":3002:3012   */\n  dup3\n    /* \"#utility.yul\":2999:3033   */\n  gt\n    /* \"#utility.yul\":2996:3058   */\n  or\n    /* \"#utility.yul\":2993:3081   */\n  iszero\n  tag_79\n  jumpi\n    /* \"#utility.yul\":3061:3079   */\n  tag_80\n  tag_64\n  jump\t// in\ntag_80:\n    /* \"#utility.yul\":2993:3081   */\ntag_79:\n    /* \"#utility.yul\":3101:3111   */\n  dup1\n    /* \"#utility.yul\":3097:3099   */\n  0x40\n    /* \"#utility.yul\":3090:3112   */\n  mstore\n    /* \"#utility.yul\":2880:3118   */\n  pop\n    /* \"#utility.yul\":2837:3118   */\n  pop\n  pop\n  jump\t// out\n    /* \"#utility.yul\":3124:3304   */\ntag_76:\n    /* \"#utility.yul\":3172:3249   */\n  0x4e487b7100000000000000000000000000000000000000000000000000000000\n    /* \"#utility.yul\":3169:3170   */\n  0x00\n    /* \"#utility.yul\":3162:3250   */\n  mstore\n    /* \"#utility.yul\":3269:3273   */\n  0x22\n    /* \"#utility.yul\":3266:3267   */\n  0x04\n    /* \"#utility.yul\":3259:3274   */\n  mstore\n    /* \"#utility.yul\":3293:3297   */\n  0x24\n    /* \"#utility.yul\":3290:3291   */\n  0x00\n    /* \"#utility.yul\":3283:3298   */\n  revert\n    /* \"#utility.yul\":3310:3490   */\ntag_64:\n    /* \"#utility.yul\":3358:3435   */\n  0x4e487b7100000000000000000000000000000000000000000000000000000000\n    /* \"#utility.yul\":3355:3356   */\n  0x00\n    /* \"#utility.yul\":3348:3436   */\n  mstore\n    /* \"#utility.yul\":3455:3459   */\n  0x41\n    /* \"#utility.yul\":3452:3453   */\n  0x04\n    /* \"#utility.yul\":3445:3460   */\n  mstore\n    /* \"#utility.yul\":3479:3483   */\n  0x24\n    /* \"#utility.yul\":3476:3477   */\n  0x00\n    /* \"#utility.yul\":3469:3484   */\n  revert\n    /* \"#utility.yul\":3496:3613   */\ntag_42:\n    /* \"#utility.yul\":3605:3606   */\n  0x00\n    /* \"#utility.yul\":3602:3603   */\n  dup1\n    /* \"#utility.yul\":3595:3607   */\n  revert\n    /* \"#utility.yul\":3619:3736   */\ntag_35:\n    /* \"#utility.yul\":3728:3729   */\n  0x00\n    /* \"#utility.yul\":3725:3726   */\n  dup1\n    /* \"#utility.yul\":3718:3730   */\n  revert\n    /* \"#utility.yul\":3742:3859   */\ntag_50:\n    /* \"#utility.yul\":3851:3852   */\n  0x00\n    /* \"#utility.yul\":3848:3849   */\n  dup1\n    /* \"#utility.yul\":3841:3853   */\n  revert\n    /* \"#utility.yul\":3865:3982   */\ntag_47:\n    /* \"#utility.yul\":3974:3975   */\n  0x00\n    /* \"#utility.yul\":3971:3972   */\n  dup1\n    /* \"#utility.yul\":3964:3976   */\n  revert\n    /* \"#utility.yul\":3988:4090   */\ntag_66:\n    /* \"#utility.yul\":4029:4035   */\n  0x00\n    /* \"#utility.yul\":4080:4082   */\n  0x1f\n    /* \"#utility.yul\":4076:4083   */\n  not\n    /* \"#utility.yul\":4071:4073   */\n  0x1f\n    /* \"#utility.yul\":4064:4069   */\n  dup4\n    /* \"#utility.yul\":4060:4074   */\n  add\n    /* \"#utility.yul\":4056:4084   */\n  and\n    /* \"#utility.yul\":4046:4084   */\n  swap1\n  pop\n    /* \"#utility.yul\":3988:4090   */\n  swap2\n  swap1\n  pop\n  jump\t// out\n    /* \"contracts/LuckyTokenSkeleton.sol\":11946:12652  contract LuckyToken is Context, ERC20Burnable {... */\ntag_13:\n  dataSize(sub_0)\n  dup1\n  dataOffset(sub_0)\n  0x00\n  codecopy\n  0x00\n  return\nstop\n\nsub_0: assembly {\n        /* \"contracts/LuckyTokenSkeleton.sol\":11946:12652  contract LuckyToken is Context, ERC20Burnable {... */\n      mstore(0x40, 0x80)\n      callvalue\n      dup1\n      iszero\n      tag_1\n      jumpi\n      0x00\n      dup1\n      revert\n    tag_1:\n      pop\n      jumpi(tag_2, lt(calldatasize, 0x04))\n      shr(0xe0, calldataload(0x00))\n      dup1\n      0x40c10f19\n      gt\n      tag_18\n      jumpi\n      dup1\n      0x95d89b41\n      gt\n      tag_19\n      jumpi\n      dup1\n      0x95d89b41\n      eq\n      tag_14\n      jumpi\n      dup1\n      0xa457c2d7\n      eq\n      tag_15\n      jumpi\n      dup1\n      0xa9059cbb\n      eq\n      tag_16\n      jumpi\n      dup1\n      0xdd62ed3e\n      eq\n      tag_17\n      jumpi\n      jump(tag_2)\n    tag_19:\n      dup1\n      0x40c10f19\n      eq\n      tag_10\n      jumpi\n      dup1\n      0x42966c68\n      eq\n      tag_11\n      jumpi\n      dup1\n      0x70a08231\n      eq\n      tag_12\n      jumpi\n      dup1\n      0x79cc6790\n      eq\n      tag_13\n      jumpi\n      jump(tag_2)\n    tag_18:\n      dup1\n      0x18160ddd\n      gt\n      tag_20\n      jumpi\n      dup1\n      0x18160ddd\n      eq\n      tag_6\n      jumpi\n      dup1\n      0x23b872dd\n      eq\n      tag_7\n      jumpi\n      dup1\n      0x313ce567\n      eq\n      tag_8\n      jumpi\n      dup1\n      0x39509351\n      eq\n      tag_9\n      jumpi\n      jump(tag_2)\n    tag_20:\n      dup1\n      0x06fdde03\n      eq\n      tag_3\n      jumpi\n      dup1\n      0x095ea7b3\n      eq\n      tag_4\n      jumpi\n      dup1\n      0x099db017\n      eq\n      tag_5\n      jumpi\n    tag_2:\n      0x00\n      dup1\n      revert\n        /* \"contracts/LuckyTokenSkeleton.sol\":1777:1923  function name() public view virtual returns (string memory) {... */\n    tag_3:\n      tag_21\n      tag_22\n      jump\t// in\n    tag_21:\n      mload(0x40)\n      tag_23\n      swap2\n      swap1\n      tag_24\n      jump\t// in\n    tag_23:\n      mload(0x40)\n      dup1\n      swap2\n      sub\n      swap1\n      return\n        /* \"contracts/LuckyTokenSkeleton.sol\":4145:4390  function approve(address spender, uint256 amount)... */\n    tag_4:\n      tag_25\n      0x04\n      dup1\n      calldatasize\n      sub\n      dup2\n      add\n      swap1\n      tag_26\n      swap2\n      swap1\n      tag_27\n      jump\t// in\n    tag_26:\n      tag_28\n      jump\t// in\n    tag_25:\n      mload(0x40)\n      tag_29\n      swap2\n      swap1\n      tag_30\n      jump\t// in\n    tag_29:\n      mload(0x40)\n      dup1\n      swap2\n      sub\n      swap1\n      return\n        /* \"contracts/LuckyTokenSkeleton.sol\":12164:12280  function hasMinterRole(address account) public view virtual returns (bool) {... */\n    tag_5:\n      tag_31\n      0x04\n      dup1\n      calldatasize\n      sub\n      dup2\n      add\n      swap1\n      tag_32\n      swap2\n      swap1\n      tag_33\n      jump\t// in\n    tag_32:\n      tag_34\n      jump\t// in\n    tag_31:\n      mload(0x40)\n      tag_35\n      swap2\n      swap1\n      tag_30\n      jump\t// in\n    tag_35:\n      mload(0x40)\n      dup1\n      swap2\n      sub\n      swap1\n      return\n        /* \"contracts/LuckyTokenSkeleton.sol\":2638:2750  function totalSupply() public view virtual returns (uint256) {... */\n    tag_6:\n      tag_36\n      tag_37\n      jump\t// in\n    tag_36:\n      mload(0x40)\n      tag_38\n      swap2\n      swap1\n      tag_39\n      jump\t// in\n    tag_38:\n      mload(0x40)\n      dup1\n      swap2\n      sub\n      swap1\n      return\n        /* \"contracts/LuckyTokenSkeleton.sol\":5194:5520  function transferFrom(... */\n    tag_7:\n      tag_40\n      0x04\n      dup1\n      calldatasize\n      sub\n      dup2\n      add\n      swap1\n      tag_41\n      swap2\n      swap1\n      tag_42\n      jump\t// in\n    tag_41:\n      tag_43\n      jump\t// in\n    tag_40:\n      mload(0x40)\n      tag_44\n      swap2\n      swap1\n      tag_30\n      jump\t// in\n    tag_44:\n      mload(0x40)\n      dup1\n      swap2\n      sub\n      swap1\n      return\n        /* \"contracts/LuckyTokenSkeleton.sol\":2429:2576  function decimals() public view virtual returns (uint8) {... */\n    tag_8:\n      tag_45\n      tag_46\n      jump\t// in\n    tag_45:\n      mload(0x40)\n      tag_47\n      swap2\n      swap1\n      tag_48\n      jump\t// in\n    tag_47:\n      mload(0x40)\n      dup1\n      swap2\n      sub\n      swap1\n      return\n        /* \"contracts/LuckyTokenSkeleton.sol\":5860:6156  function increaseAllowance(address spender, uint256 addedValue)... */\n    tag_9:\n      tag_49\n      0x04\n      dup1\n      calldatasize\n      sub\n      dup2\n      add\n      swap1\n      tag_50\n      swap2\n      swap1\n      tag_27\n      jump\t// in\n    tag_50:\n      tag_51\n      jump\t// in\n    tag_49:\n      mload(0x40)\n      tag_52\n      swap2\n      swap1\n      tag_30\n      jump\t// in\n    tag_52:\n      mload(0x40)\n      dup1\n      swap2\n      sub\n      swap1\n      return\n        /* \"contracts/LuckyTokenSkeleton.sol\":12436:12650  function mint(address to, uint256 amount) public virtual {... */\n    tag_10:\n      tag_53\n      0x04\n      dup1\n      calldatasize\n      sub\n      dup2\n      add\n      swap1\n      tag_54\n      swap2\n      swap1\n      tag_27\n      jump\t// in\n    tag_54:\n      tag_55\n      jump\t// in\n    tag_53:\n      stop\n        /* \"contracts/LuckyTokenSkeleton.sol\":11215:11304  function burn(uint256 amount) public virtual {... */\n    tag_11:\n      tag_56\n      0x04\n      dup1\n      calldatasize\n      sub\n      dup2\n      add\n      swap1\n      tag_57\n      swap2\n      swap1\n      tag_58\n      jump\t// in\n    tag_57:\n      tag_59\n      jump\t// in\n    tag_56:\n      stop\n        /* \"contracts/LuckyTokenSkeleton.sol\":2833:2964  function balanceOf(address account) public view virtual returns (uint256) {... */\n    tag_12:\n      tag_60\n      0x04\n      dup1\n      calldatasize\n      sub\n      dup2\n      add\n      swap1\n      tag_61\n      swap2\n      swap1\n      tag_33\n      jump\t// in\n    tag_61:\n      tag_62\n      jump\t// in\n    tag_60:\n      mload(0x40)\n      tag_63\n      swap2\n      swap1\n      tag_39\n      jump\t// in\n    tag_63:\n      mload(0x40)\n      dup1\n      swap2\n      sub\n      swap1\n      return\n        /* \"contracts/LuckyTokenSkeleton.sol\":11555:11716  function burnFrom(address account, uint256 amount) public virtual {... */\n    tag_13:\n      tag_64\n      0x04\n      dup1\n      calldatasize\n      sub\n      dup2\n      add\n      swap1\n      tag_65\n      swap2\n      swap1\n      tag_27\n      jump\t// in\n    tag_65:\n      tag_66\n      jump\t// in\n    tag_64:\n      stop\n        /* \"contracts/LuckyTokenSkeleton.sol\":2036:2188  function symbol() public view virtual returns (string memory) {... */\n    tag_14:\n      tag_67\n      tag_68\n      jump\t// in\n    tag_67:\n      mload(0x40)\n      tag_69\n      swap2\n      swap1\n      tag_24\n      jump\t// in\n    tag_69:\n      mload(0x40)\n      dup1\n      swap2\n      sub\n      swap1\n      return\n        /* \"contracts/LuckyTokenSkeleton.sol\":6596:7011  function decreaseAllowance(address spender, uint256 subtractedValue)... */\n    tag_15:\n      tag_70\n      0x04\n      dup1\n      calldatasize\n      sub\n      dup2\n      add\n      swap1\n      tag_71\n      swap2\n      swap1\n      tag_27\n      jump\t// in\n    tag_71:\n      tag_72\n      jump\t// in\n    tag_70:\n      mload(0x40)\n      tag_73\n      swap2\n      swap1\n      tag_30\n      jump\t// in\n    tag_73:\n      mload(0x40)\n      dup1\n      swap2\n      sub\n      swap1\n      return\n        /* \"contracts/LuckyTokenSkeleton.sol\":3274:3479  function transfer(address to, uint256 amount)... */\n    tag_16:\n      tag_74\n      0x04\n      dup1\n      calldatasize\n      sub\n      dup2\n      add\n      swap1\n      tag_75\n      swap2\n      swap1\n      tag_27\n      jump\t// in\n    tag_75:\n      tag_76\n      jump\t// in\n    tag_74:\n      mload(0x40)\n      tag_77\n      swap2\n      swap1\n      tag_30\n      jump\t// in\n    tag_77:\n      mload(0x40)\n      dup1\n      swap2\n      sub\n      swap1\n      return\n        /* \"contracts/LuckyTokenSkeleton.sol\":3681:3872  function allowance(address owner, address spender)... */\n    tag_17:\n      tag_78\n      0x04\n      dup1\n      calldatasize\n      sub\n      dup2\n      add\n      swap1\n      tag_79\n      swap2\n      swap1\n      tag_80\n      jump\t// in\n    tag_79:\n      tag_81\n      jump\t// in\n    tag_78:\n      mload(0x40)\n      tag_82\n      swap2\n      swap1\n      tag_39\n      jump\t// in\n    tag_82:\n      mload(0x40)\n      dup1\n      swap2\n      sub\n      swap1\n      return\n        /* \"contracts/LuckyTokenSkeleton.sol\":1777:1923  function name() public view virtual returns (string memory) {... */\n    tag_22:\n        /* \"contracts/LuckyTokenSkeleton.sol\":1822:1835  string memory */\n      0x60\n        /* \"contracts/LuckyTokenSkeleton.sol\":1911:1916  _name */\n      0x03\n        /* \"contracts/LuckyTokenSkeleton.sol\":1904:1916  return _name */\n      dup1\n      sload\n      tag_84\n      swap1\n      tag_85\n      jump\t// in\n    tag_84:\n      dup1\n      0x1f\n      add\n      0x20\n      dup1\n      swap2\n      div\n      mul\n      0x20\n      add\n      mload(0x40)\n      swap1\n      dup2\n      add\n      0x40\n      mstore\n      dup1\n      swap3\n      swap2\n      swap1\n      dup2\n      dup2\n      mstore\n      0x20\n      add\n      dup3\n      dup1\n      sload\n      tag_86\n      swap1\n      tag_85\n      jump\t// in\n    tag_86:\n      dup1\n      iszero\n      tag_87\n      jumpi\n      dup1\n      0x1f\n      lt\n      tag_88\n      jumpi\n      0x0100\n      dup1\n      dup4\n      sload\n      div\n      mul\n      dup4\n      mstore\n      swap2\n      0x20\n      add\n      swap2\n      jump(tag_87)\n    tag_88:\n      dup3\n      add\n      swap2\n      swap1\n      0x00\n      mstore\n      keccak256(0x00, 0x20)\n      swap1\n    tag_89:\n      dup2\n      sload\n      dup2\n      mstore\n      swap1\n      0x01\n      add\n      swap1\n      0x20\n      add\n      dup1\n      dup4\n      gt\n      tag_89\n      jumpi\n      dup3\n      swap1\n      sub\n      0x1f\n      and\n      dup3\n      add\n      swap2\n    tag_87:\n      pop\n      pop\n      pop\n      pop\n      pop\n      swap1\n      pop\n        /* \"contracts/LuckyTokenSkeleton.sol\":1777:1923  function name() public view virtual returns (string memory) {... */\n      swap1\n      jump\t// out\n        /* \"contracts/LuckyTokenSkeleton.sol\":4145:4390  function approve(address spender, uint256 amount)... */\n    tag_28:\n        /* \"contracts/LuckyTokenSkeleton.sol\":4243:4247  bool */\n      0x00\n        /* \"contracts/LuckyTokenSkeleton.sol\":4325:4362  _approve(msg.sender, spender, amount) */\n      tag_91\n        /* \"contracts/LuckyTokenSkeleton.sol\":4334:4344  msg.sender */\n      caller\n        /* \"contracts/LuckyTokenSkeleton.sol\":4346:4353  spender */\n      dup5\n        /* \"contracts/LuckyTokenSkeleton.sol\":4355:4361  amount */\n      dup5\n        /* \"contracts/LuckyTokenSkeleton.sol\":4325:4333  _approve */\n      tag_92\n        /* \"contracts/LuckyTokenSkeleton.sol\":4325:4362  _approve(msg.sender, spender, amount) */\n      jump\t// in\n    tag_91:\n        /* \"contracts/LuckyTokenSkeleton.sol\":4379:4383  true */\n      0x01\n        /* \"contracts/LuckyTokenSkeleton.sol\":4372:4383  return true */\n      swap1\n      pop\n        /* \"contracts/LuckyTokenSkeleton.sol\":4145:4390  function approve(address spender, uint256 amount)... */\n      swap3\n      swap2\n      pop\n      pop\n      jump\t// out\n        /* \"contracts/LuckyTokenSkeleton.sol\":12164:12280  function hasMinterRole(address account) public view virtual returns (bool) {... */\n    tag_34:\n        /* \"contracts/LuckyTokenSkeleton.sol\":12233:12237  bool */\n      0x00\n        /* \"contracts/LuckyTokenSkeleton.sol\":12256:12264  _minters */\n      0x05\n        /* \"contracts/LuckyTokenSkeleton.sol\":12256:12273  _minters[account] */\n      0x00\n        /* \"contracts/LuckyTokenSkeleton.sol\":12265:12272  account */\n      dup4\n        /* \"contracts/LuckyTokenSkeleton.sol\":12256:12273  _minters[account] */\n      0xffffffffffffffffffffffffffffffffffffffff\n      and\n      0xffffffffffffffffffffffffffffffffffffffff\n      and\n      dup2\n      mstore\n      0x20\n      add\n      swap1\n      dup2\n      mstore\n      0x20\n      add\n      0x00\n      keccak256\n      0x00\n      swap1\n      sload\n      swap1\n      0x0100\n      exp\n      swap1\n      div\n      0xff\n      and\n        /* \"contracts/LuckyTokenSkeleton.sol\":12249:12273  return _minters[account] */\n      swap1\n      pop\n        /* \"contracts/LuckyTokenSkeleton.sol\":12164:12280  function hasMinterRole(address account) public view virtual returns (bool) {... */\n      swap2\n      swap1\n      pop\n      jump\t// out\n        /* \"contracts/LuckyTokenSkeleton.sol\":2638:2750  function totalSupply() public view virtual returns (uint256) {... */\n    tag_37:\n        /* \"contracts/LuckyTokenSkeleton.sol\":2690:2697  uint256 */\n      0x00\n        /* \"contracts/LuckyTokenSkeleton.sol\":2731:2743  _totalSupply */\n      sload(0x02)\n        /* \"contracts/LuckyTokenSkeleton.sol\":2724:2743  return _totalSupply */\n      swap1\n      pop\n        /* \"contracts/LuckyTokenSkeleton.sol\":2638:2750  function totalSupply() public view virtual returns (uint256) {... */\n      swap1\n      jump\t// out\n        /* \"contracts/LuckyTokenSkeleton.sol\":5194:5520  function transferFrom(... */\n    tag_43:\n        /* \"contracts/LuckyTokenSkeleton.sol\":5312:5316  bool */\n      0x00\n        /* \"contracts/LuckyTokenSkeleton.sol\":5413:5454  _spendAllowance(from, msg.sender, amount) */\n      tag_96\n        /* \"contracts/LuckyTokenSkeleton.sol\":5429:5433  from */\n      dup5\n        /* \"contracts/LuckyTokenSkeleton.sol\":5435:5445  msg.sender */\n      caller\n        /* \"contracts/LuckyTokenSkeleton.sol\":5447:5453  amount */\n      dup5\n        /* \"contracts/LuckyTokenSkeleton.sol\":5413:5428  _spendAllowance */\n      tag_97\n        /* \"contracts/LuckyTokenSkeleton.sol\":5413:5454  _spendAllowance(from, msg.sender, amount) */\n      jump\t// in\n    tag_96:\n        /* \"contracts/LuckyTokenSkeleton.sol\":5464:5491  _transfer(from, to, amount) */\n      tag_98\n        /* \"contracts/LuckyTokenSkeleton.sol\":5474:5478  from */\n      dup5\n        /* \"contracts/LuckyTokenSkeleton.sol\":5480:5482  to */\n      dup5\n        /* \"contracts/LuckyTokenSkeleton.sol\":5484:5490  amount */\n      dup5\n        /* \"contracts/LuckyTokenSkeleton.sol\":5464:5473  _transfer */\n      tag_99\n        /* \"contracts/LuckyTokenSkeleton.sol\":5464:5491  _transfer(from, to, amount) */\n      jump\t// in\n    tag_98:\n        /* \"contracts/LuckyTokenSkeleton.sol\":5508:5512  true */\n      0x01\n        /* \"contracts/LuckyTokenSkeleton.sol\":5501:5512  return true */\n      swap1\n      pop\n        /* \"contracts/LuckyTokenSkeleton.sol\":5194:5520  function transferFrom(... */\n      swap4\n      swap3\n      pop\n      pop\n      pop\n      jump\t// out\n        /* \"contracts/LuckyTokenSkeleton.sol\":2429:2576  function decimals() public view virtual returns (uint8) {... */\n    tag_46:\n        /* \"contracts/LuckyTokenSkeleton.sol\":2478:2483  uint8 */\n      0x00\n        /* \"contracts/LuckyTokenSkeleton.sol\":2567:2569  18 */\n      0x12\n        /* \"contracts/LuckyTokenSkeleton.sol\":2560:2569  return 18 */\n      swap1\n      pop\n        /* \"contracts/LuckyTokenSkeleton.sol\":2429:2576  function decimals() public view virtual returns (uint8) {... */\n      swap1\n      jump\t// out\n        /* \"contracts/LuckyTokenSkeleton.sol\":5860:6156  function increaseAllowance(address spender, uint256 addedValue)... */\n    tag_51:\n        /* \"contracts/LuckyTokenSkeleton.sol\":5972:5976  bool */\n      0x00\n        /* \"contracts/LuckyTokenSkeleton.sol\":6054:6128  _approve(msg.sender, spender, allowance(msg.sender, spender) + addedValue) */\n      tag_102\n        /* \"contracts/LuckyTokenSkeleton.sol\":6063:6073  msg.sender */\n      caller\n        /* \"contracts/LuckyTokenSkeleton.sol\":6075:6082  spender */\n      dup5\n        /* \"contracts/LuckyTokenSkeleton.sol\":6117:6127  addedValue */\n      dup5\n        /* \"contracts/LuckyTokenSkeleton.sol\":6084:6114  allowance(msg.sender, spender) */\n      tag_103\n        /* \"contracts/LuckyTokenSkeleton.sol\":6094:6104  msg.sender */\n      caller\n        /* \"contracts/LuckyTokenSkeleton.sol\":6106:6113  spender */\n      dup9\n        /* \"contracts/LuckyTokenSkeleton.sol\":6084:6093  allowance */\n      tag_81\n        /* \"contracts/LuckyTokenSkeleton.sol\":6084:6114  allowance(msg.sender, spender) */\n      jump\t// in\n    tag_103:\n        /* \"contracts/LuckyTokenSkeleton.sol\":6084:6127  allowance(msg.sender, spender) + addedValue */\n      tag_104\n      swap2\n      swap1\n      tag_105\n      jump\t// in\n    tag_104:\n        /* \"contracts/LuckyTokenSkeleton.sol\":6054:6062  _approve */\n      tag_92\n        /* \"contracts/LuckyTokenSkeleton.sol\":6054:6128  _approve(msg.sender, spender, allowance(msg.sender, spender) + addedValue) */\n      jump\t// in\n    tag_102:\n        /* \"contracts/LuckyTokenSkeleton.sol\":6145:6149  true */\n      0x01\n        /* \"contracts/LuckyTokenSkeleton.sol\":6138:6149  return true */\n      swap1\n      pop\n        /* \"contracts/LuckyTokenSkeleton.sol\":5860:6156  function increaseAllowance(address spender, uint256 addedValue)... */\n      swap3\n      swap2\n      pop\n      pop\n      jump\t// out\n        /* \"contracts/LuckyTokenSkeleton.sol\":12436:12650  function mint(address to, uint256 amount) public virtual {... */\n    tag_55:\n        /* \"contracts/LuckyTokenSkeleton.sol\":12524:12551  hasMinterRole(_msgSender()) */\n      tag_107\n        /* \"contracts/LuckyTokenSkeleton.sol\":12538:12550  _msgSender() */\n      tag_108\n        /* \"contracts/LuckyTokenSkeleton.sol\":12538:12548  _msgSender */\n      tag_109\n        /* \"contracts/LuckyTokenSkeleton.sol\":12538:12550  _msgSender() */\n      jump\t// in\n    tag_108:\n        /* \"contracts/LuckyTokenSkeleton.sol\":12524:12537  hasMinterRole */\n      tag_34\n        /* \"contracts/LuckyTokenSkeleton.sol\":12524:12551  hasMinterRole(_msgSender()) */\n      jump\t// in\n    tag_107:\n        /* \"contracts/LuckyTokenSkeleton.sol\":12503:12616  require(... */\n      tag_110\n      jumpi\n      mload(0x40)\n      0x08c379a000000000000000000000000000000000000000000000000000000000\n      dup2\n      mstore\n      0x04\n      add\n      tag_111\n      swap1\n      tag_112\n      jump\t// in\n    tag_111:\n      mload(0x40)\n      dup1\n      swap2\n      sub\n      swap1\n      revert\n    tag_110:\n        /* \"contracts/LuckyTokenSkeleton.sol\":12626:12643  _mint(to, amount) */\n      tag_113\n        /* \"contracts/LuckyTokenSkeleton.sol\":12632:12634  to */\n      dup3\n        /* \"contracts/LuckyTokenSkeleton.sol\":12636:12642  amount */\n      dup3\n        /* \"contracts/LuckyTokenSkeleton.sol\":12626:12631  _mint */\n      tag_114\n        /* \"contracts/LuckyTokenSkeleton.sol\":12626:12643  _mint(to, amount) */\n      jump\t// in\n    tag_113:\n        /* \"contracts/LuckyTokenSkeleton.sol\":12436:12650  function mint(address to, uint256 amount) public virtual {... */\n      pop\n      pop\n      jump\t// out\n        /* \"contracts/LuckyTokenSkeleton.sol\":11215:11304  function burn(uint256 amount) public virtual {... */\n    tag_59:\n        /* \"contracts/LuckyTokenSkeleton.sol\":11270:11297  _burn(_msgSender(), amount) */\n      tag_116\n        /* \"contracts/LuckyTokenSkeleton.sol\":11276:11288  _msgSender() */\n      tag_117\n        /* \"contracts/LuckyTokenSkeleton.sol\":11276:11286  _msgSender */\n      tag_109\n        /* \"contracts/LuckyTokenSkeleton.sol\":11276:11288  _msgSender() */\n      jump\t// in\n    tag_117:\n        /* \"contracts/LuckyTokenSkeleton.sol\":11290:11296  amount */\n      dup3\n        /* \"contracts/LuckyTokenSkeleton.sol\":11270:11275  _burn */\n      tag_118\n        /* \"contracts/LuckyTokenSkeleton.sol\":11270:11297  _burn(_msgSender(), amount) */\n      jump\t// in\n    tag_116:\n        /* \"contracts/LuckyTokenSkeleton.sol\":11215:11304  function burn(uint256 amount) public virtual {... */\n      pop\n      jump\t// out\n        /* \"contracts/LuckyTokenSkeleton.sol\":2833:2964  function balanceOf(address account) public view virtual returns (uint256) {... */\n    tag_62:\n        /* \"contracts/LuckyTokenSkeleton.sol\":2898:2905  uint256 */\n      0x00\n        /* \"contracts/LuckyTokenSkeleton.sol\":2939:2948  _balances */\n      dup1\n        /* \"contracts/LuckyTokenSkeleton.sol\":2939:2957  _balances[account] */\n      0x00\n        /* \"contracts/LuckyTokenSkeleton.sol\":2949:2956  account */\n      dup4\n        /* \"contracts/LuckyTokenSkeleton.sol\":2939:2957  _balances[account] */\n      0xffffffffffffffffffffffffffffffffffffffff\n      and\n      0xffffffffffffffffffffffffffffffffffffffff\n      and\n      dup2\n      mstore\n      0x20\n      add\n      swap1\n      dup2\n      mstore\n      0x20\n      add\n      0x00\n      keccak256\n      sload\n        /* \"contracts/LuckyTokenSkeleton.sol\":2932:2957  return _balances[account] */\n      swap1\n      pop\n        /* \"contracts/LuckyTokenSkeleton.sol\":2833:2964  function balanceOf(address account) public view virtual returns (uint256) {... */\n      swap2\n      swap1\n      pop\n      jump\t// out\n        /* \"contracts/LuckyTokenSkeleton.sol\":11555:11716  function burnFrom(address account, uint256 amount) public virtual {... */\n    tag_66:\n        /* \"contracts/LuckyTokenSkeleton.sol\":11631:11677  _spendAllowance(account, _msgSender(), amount) */\n      tag_121\n        /* \"contracts/LuckyTokenSkeleton.sol\":11647:11654  account */\n      dup3\n        /* \"contracts/LuckyTokenSkeleton.sol\":11656:11668  _msgSender() */\n      tag_122\n        /* \"contracts/LuckyTokenSkeleton.sol\":11656:11666  _msgSender */\n      tag_109\n        /* \"contracts/LuckyTokenSkeleton.sol\":11656:11668  _msgSender() */\n      jump\t// in\n    tag_122:\n        /* \"contracts/LuckyTokenSkeleton.sol\":11670:11676  amount */\n      dup4\n        /* \"contracts/LuckyTokenSkeleton.sol\":11631:11646  _spendAllowance */\n      tag_97\n        /* \"contracts/LuckyTokenSkeleton.sol\":11631:11677  _spendAllowance(account, _msgSender(), amount) */\n      jump\t// in\n    tag_121:\n        /* \"contracts/LuckyTokenSkeleton.sol\":11687:11709  _burn(account, amount) */\n      tag_123\n        /* \"contracts/LuckyTokenSkeleton.sol\":11693:11700  account */\n      dup3\n        /* \"contracts/LuckyTokenSkeleton.sol\":11702:11708  amount */\n      dup3\n        /* \"contracts/LuckyTokenSkeleton.sol\":11687:11692  _burn */\n      tag_118\n        /* \"contracts/LuckyTokenSkeleton.sol\":11687:11709  _burn(account, amount) */\n      jump\t// in\n    tag_123:\n        /* \"contracts/LuckyTokenSkeleton.sol\":11555:11716  function burnFrom(address account, uint256 amount) public virtual {... */\n      pop\n      pop\n      jump\t// out\n        /* \"contracts/LuckyTokenSkeleton.sol\":2036:2188  function symbol() public view virtual returns (string memory) {... */\n    tag_68:\n        /* \"contracts/LuckyTokenSkeleton.sol\":2083:2096  string memory */\n      0x60\n        /* \"contracts/LuckyTokenSkeleton.sol\":2174:2181  _symbol */\n      0x04\n        /* \"contracts/LuckyTokenSkeleton.sol\":2167:2181  return _symbol */\n      dup1\n      sload\n      tag_125\n      swap1\n      tag_85\n      jump\t// in\n    tag_125:\n      dup1\n      0x1f\n      add\n      0x20\n      dup1\n      swap2\n      div\n      mul\n      0x20\n      add\n      mload(0x40)\n      swap1\n      dup2\n      add\n      0x40\n      mstore\n      dup1\n      swap3\n      swap2\n      swap1\n      dup2\n      dup2\n      mstore\n      0x20\n      add\n      dup3\n      dup1\n      sload\n      tag_126\n      swap1\n      tag_85\n      jump\t// in\n    tag_126:\n      dup1\n      iszero\n      tag_127\n      jumpi\n      dup1\n      0x1f\n      lt\n      tag_128\n      jumpi\n      0x0100\n      dup1\n      dup4\n      sload\n      div\n      mul\n      dup4\n      mstore\n      swap2\n      0x20\n      add\n      swap2\n      jump(tag_127)\n    tag_128:\n      dup3\n      add\n      swap2\n      swap1\n      0x00\n      mstore\n      keccak256(0x00, 0x20)\n      swap1\n    tag_129:\n      dup2\n      sload\n      dup2\n      mstore\n      swap1\n      0x01\n      add\n      swap1\n      0x20\n      add\n      dup1\n      dup4\n      gt\n      tag_129\n      jumpi\n      dup3\n      swap1\n      sub\n      0x1f\n      and\n      dup3\n      add\n      swap2\n    tag_127:\n      pop\n      pop\n      pop\n      pop\n      pop\n      swap1\n      pop\n        /* \"contracts/LuckyTokenSkeleton.sol\":2036:2188  function symbol() public view virtual returns (string memory) {... */\n      swap1\n      jump\t// out\n        /* \"contracts/LuckyTokenSkeleton.sol\":6596:7011  function decreaseAllowance(address spender, uint256 subtractedValue)... */\n    tag_72:\n        /* \"contracts/LuckyTokenSkeleton.sol\":6713:6717  bool */\n      0x00\n        /* \"contracts/LuckyTokenSkeleton.sol\":6837:6852  subtractedValue */\n      dup2\n        /* \"contracts/LuckyTokenSkeleton.sol\":6803:6833  allowance(msg.sender, spender) */\n      tag_131\n        /* \"contracts/LuckyTokenSkeleton.sol\":6813:6823  msg.sender */\n      caller\n        /* \"contracts/LuckyTokenSkeleton.sol\":6825:6832  spender */\n      dup6\n        /* \"contracts/LuckyTokenSkeleton.sol\":6803:6812  allowance */\n      tag_81\n        /* \"contracts/LuckyTokenSkeleton.sol\":6803:6833  allowance(msg.sender, spender) */\n      jump\t// in\n    tag_131:\n        /* \"contracts/LuckyTokenSkeleton.sol\":6803:6852  allowance(msg.sender, spender) >= subtractedValue */\n      lt\n      iszero\n        /* \"contracts/LuckyTokenSkeleton.sol\":6795:6894  require(allowance(msg.sender, spender) >= subtractedValue, \"Cannot decrease to negative allowance\") */\n      tag_132\n      jumpi\n      mload(0x40)\n      0x08c379a000000000000000000000000000000000000000000000000000000000\n      dup2\n      mstore\n      0x04\n      add\n      tag_133\n      swap1\n      tag_134\n      jump\t// in\n    tag_133:\n      mload(0x40)\n      dup1\n      swap2\n      sub\n      swap1\n      revert\n    tag_132:\n        /* \"contracts/LuckyTokenSkeleton.sol\":6904:6983  _approve(msg.sender, spender, allowance(msg.sender, spender) - subtractedValue) */\n      tag_135\n        /* \"contracts/LuckyTokenSkeleton.sol\":6913:6923  msg.sender */\n      caller\n        /* \"contracts/LuckyTokenSkeleton.sol\":6925:6932  spender */\n      dup5\n        /* \"contracts/LuckyTokenSkeleton.sol\":6967:6982  subtractedValue */\n      dup5\n        /* \"contracts/LuckyTokenSkeleton.sol\":6934:6964  allowance(msg.sender, spender) */\n      tag_136\n        /* \"contracts/LuckyTokenSkeleton.sol\":6944:6954  msg.sender */\n      caller\n        /* \"contracts/LuckyTokenSkeleton.sol\":6956:6963  spender */\n      dup9\n        /* \"contracts/LuckyTokenSkeleton.sol\":6934:6943  allowance */\n      tag_81\n        /* \"contracts/LuckyTokenSkeleton.sol\":6934:6964  allowance(msg.sender, spender) */\n      jump\t// in\n    tag_136:\n        /* \"contracts/LuckyTokenSkeleton.sol\":6934:6982  allowance(msg.sender, spender) - subtractedValue */\n      tag_137\n      swap2\n      swap1\n      tag_138\n      jump\t// in\n    tag_137:\n        /* \"contracts/LuckyTokenSkeleton.sol\":6904:6912  _approve */\n      tag_92\n        /* \"contracts/LuckyTokenSkeleton.sol\":6904:6983  _approve(msg.sender, spender, allowance(msg.sender, spender) - subtractedValue) */\n      jump\t// in\n    tag_135:\n        /* \"contracts/LuckyTokenSkeleton.sol\":7000:7004  true */\n      0x01\n        /* \"contracts/LuckyTokenSkeleton.sol\":6993:7004  return true */\n      swap1\n      pop\n        /* \"contracts/LuckyTokenSkeleton.sol\":6596:7011  function decreaseAllowance(address spender, uint256 subtractedValue)... */\n      swap3\n      swap2\n      pop\n      pop\n      jump\t// out\n        /* \"contracts/LuckyTokenSkeleton.sol\":3274:3479  function transfer(address to, uint256 amount)... */\n    tag_76:\n        /* \"contracts/LuckyTokenSkeleton.sol\":3368:3372  bool */\n      0x00\n        /* \"contracts/LuckyTokenSkeleton.sol\":3418:3451  _transfer(msg.sender, to, amount) */\n      tag_140\n        /* \"contracts/LuckyTokenSkeleton.sol\":3428:3438  msg.sender */\n      caller\n        /* \"contracts/LuckyTokenSkeleton.sol\":3440:3442  to */\n      dup5\n        /* \"contracts/LuckyTokenSkeleton.sol\":3444:3450  amount */\n      dup5\n        /* \"contracts/LuckyTokenSkeleton.sol\":3418:3427  _transfer */\n      tag_99\n        /* \"contracts/LuckyTokenSkeleton.sol\":3418:3451  _transfer(msg.sender, to, amount) */\n      jump\t// in\n    tag_140:\n        /* \"contracts/LuckyTokenSkeleton.sol\":3468:3472  true */\n      0x01\n        /* \"contracts/LuckyTokenSkeleton.sol\":3461:3472  return true */\n      swap1\n      pop\n        /* \"contracts/LuckyTokenSkeleton.sol\":3274:3479  function transfer(address to, uint256 amount)... */\n      swap3\n      swap2\n      pop\n      pop\n      jump\t// out\n        /* \"contracts/LuckyTokenSkeleton.sol\":3681:3872  function allowance(address owner, address spender)... */\n    tag_81:\n        /* \"contracts/LuckyTokenSkeleton.sol\":3793:3800  uint256 */\n      0x00\n        /* \"contracts/LuckyTokenSkeleton.sol\":3838:3849  _allowances */\n      0x01\n        /* \"contracts/LuckyTokenSkeleton.sol\":3838:3856  _allowances[owner] */\n      0x00\n        /* \"contracts/LuckyTokenSkeleton.sol\":3850:3855  owner */\n      dup5\n        /* \"contracts/LuckyTokenSkeleton.sol\":3838:3856  _allowances[owner] */\n      0xffffffffffffffffffffffffffffffffffffffff\n      and\n      0xffffffffffffffffffffffffffffffffffffffff\n      and\n      dup2\n      mstore\n      0x20\n      add\n      swap1\n      dup2\n      mstore\n      0x20\n      add\n      0x00\n      keccak256\n        /* \"contracts/LuckyTokenSkeleton.sol\":3838:3865  _allowances[owner][spender] */\n      0x00\n        /* \"contracts/LuckyTokenSkeleton.sol\":3857:3864  spender */\n      dup4\n        /* \"contracts/LuckyTokenSkeleton.sol\":3838:3865  _allowances[owner][spender] */\n      0xffffffffffffffffffffffffffffffffffffffff\n      and\n      0xffffffffffffffffffffffffffffffffffffffff\n      and\n      dup2\n      mstore\n      0x20\n      add\n      swap1\n      dup2\n      mstore\n      0x20\n      add\n      0x00\n      keccak256\n      sload\n        /* \"contracts/LuckyTokenSkeleton.sol\":3831:3865  return _allowances[owner][spender] */\n      swap1\n      pop\n        /* \"contracts/LuckyTokenSkeleton.sol\":3681:3872  function allowance(address owner, address spender)... */\n      swap3\n      swap2\n      pop\n      pop\n      jump\t// out\n        /* \"contracts/LuckyTokenSkeleton.sol\":9610:9975  function _approve(... */\n    tag_92:\n        /* \"contracts/LuckyTokenSkeleton.sol\":9774:9775  0 */\n      0x00\n        /* \"contracts/LuckyTokenSkeleton.sol\":9757:9776  owner != address(0) */\n      0xffffffffffffffffffffffffffffffffffffffff\n      and\n        /* \"contracts/LuckyTokenSkeleton.sol\":9757:9762  owner */\n      dup4\n        /* \"contracts/LuckyTokenSkeleton.sol\":9757:9776  owner != address(0) */\n      0xffffffffffffffffffffffffffffffffffffffff\n      and\n      eq\n      iszero\n        /* \"contracts/LuckyTokenSkeleton.sol\":9749:9807  require(owner != address(0), \"Approval from zero address\") */\n      tag_143\n      jumpi\n      mload(0x40)\n      0x08c379a000000000000000000000000000000000000000000000000000000000\n      dup2\n      mstore\n      0x04\n      add\n      tag_144\n      swap1\n      tag_145\n      jump\t// in\n    tag_144:\n      mload(0x40)\n      dup1\n      swap2\n      sub\n      swap1\n      revert\n    tag_143:\n        /* \"contracts/LuckyTokenSkeleton.sol\":9844:9845  0 */\n      0x00\n        /* \"contracts/LuckyTokenSkeleton.sol\":9825:9846  spender != address(0) */\n      0xffffffffffffffffffffffffffffffffffffffff\n      and\n        /* \"contracts/LuckyTokenSkeleton.sol\":9825:9832  spender */\n      dup3\n        /* \"contracts/LuckyTokenSkeleton.sol\":9825:9846  spender != address(0) */\n      0xffffffffffffffffffffffffffffffffffffffff\n      and\n      eq\n      iszero\n        /* \"contracts/LuckyTokenSkeleton.sol\":9817:9875  require(spender != address(0), \"Approval to zero address\") */\n      tag_146\n      jumpi\n      mload(0x40)\n      0x08c379a000000000000000000000000000000000000000000000000000000000\n      dup2\n      mstore\n      0x04\n      add\n      tag_147\n      swap1\n      tag_148\n      jump\t// in\n    tag_147:\n      mload(0x40)\n      dup1\n      swap2\n      sub\n      swap1\n      revert\n    tag_146:\n        /* \"contracts/LuckyTokenSkeleton.sol\":9915:9921  amount */\n      dup1\n        /* \"contracts/LuckyTokenSkeleton.sol\":9885:9896  _allowances */\n      0x01\n        /* \"contracts/LuckyTokenSkeleton.sol\":9885:9903  _allowances[owner] */\n      0x00\n        /* \"contracts/LuckyTokenSkeleton.sol\":9897:9902  owner */\n      dup6\n        /* \"contracts/LuckyTokenSkeleton.sol\":9885:9903  _allowances[owner] */\n      0xffffffffffffffffffffffffffffffffffffffff\n      and\n      0xffffffffffffffffffffffffffffffffffffffff\n      and\n      dup2\n      mstore\n      0x20\n      add\n      swap1\n      dup2\n      mstore\n      0x20\n      add\n      0x00\n      keccak256\n        /* \"contracts/LuckyTokenSkeleton.sol\":9885:9912  _allowances[owner][spender] */\n      0x00\n        /* \"contracts/LuckyTokenSkeleton.sol\":9904:9911  spender */\n      dup5\n        /* \"contracts/LuckyTokenSkeleton.sol\":9885:9912  _allowances[owner][spender] */\n      0xffffffffffffffffffffffffffffffffffffffff\n      and\n      0xffffffffffffffffffffffffffffffffffffffff\n      and\n      dup2\n      mstore\n      0x20\n      add\n      swap1\n      dup2\n      mstore\n      0x20\n      add\n      0x00\n      keccak256\n        /* \"contracts/LuckyTokenSkeleton.sol\":9885:9921  _allowances[owner][spender] = amount */\n      dup2\n      swap1\n      sstore\n      pop\n        /* \"contracts/LuckyTokenSkeleton.sol\":9952:9959  spender */\n      dup2\n        /* \"contracts/LuckyTokenSkeleton.sol\":9936:9968  Approval(owner, spender, amount) */\n      0xffffffffffffffffffffffffffffffffffffffff\n      and\n        /* \"contracts/LuckyTokenSkeleton.sol\":9945:9950  owner */\n      dup4\n        /* \"contracts/LuckyTokenSkeleton.sol\":9936:9968  Approval(owner, spender, amount) */\n      0xffffffffffffffffffffffffffffffffffffffff\n      and\n      0x8c5be1e5ebec7d5bd14f71427d1e84f3dd0314c0f7b2291e5b200ac8c7c3b925\n        /* \"contracts/LuckyTokenSkeleton.sol\":9961:9967  amount */\n      dup4\n        /* \"contracts/LuckyTokenSkeleton.sol\":9936:9968  Approval(owner, spender, amount) */\n      mload(0x40)\n      tag_149\n      swap2\n      swap1\n      tag_39\n      jump\t// in\n    tag_149:\n      mload(0x40)\n      dup1\n      swap2\n      sub\n      swap1\n      log3\n        /* \"contracts/LuckyTokenSkeleton.sol\":9610:9975  function _approve(... */\n      pop\n      pop\n      pop\n      jump\t// out\n        /* \"contracts/LuckyTokenSkeleton.sol\":10320:10867  function _spendAllowance(... */\n    tag_97:\n        /* \"contracts/LuckyTokenSkeleton.sol\":10450:10474  uint256 currentAllowance */\n      0x00\n        /* \"contracts/LuckyTokenSkeleton.sol\":10477:10502  allowance(owner, spender) */\n      tag_151\n        /* \"contracts/LuckyTokenSkeleton.sol\":10487:10492  owner */\n      dup5\n        /* \"contracts/LuckyTokenSkeleton.sol\":10494:10501  spender */\n      dup5\n        /* \"contracts/LuckyTokenSkeleton.sol\":10477:10486  allowance */\n      tag_81\n        /* \"contracts/LuckyTokenSkeleton.sol\":10477:10502  allowance(owner, spender) */\n      jump\t// in\n    tag_151:\n        /* \"contracts/LuckyTokenSkeleton.sol\":10450:10502  uint256 currentAllowance = allowance(owner, spender) */\n      swap1\n      pop\n        /* \"contracts/LuckyTokenSkeleton.sol\":10536:10553  type(uint256).max */\n      0xffffffffffffffffffffffffffffffffffffffffffffffffffffffffffffffff\n        /* \"contracts/LuckyTokenSkeleton.sol\":10516:10532  currentAllowance */\n      dup2\n        /* \"contracts/LuckyTokenSkeleton.sol\":10516:10553  currentAllowance != type(uint256).max */\n      eq\n        /* \"contracts/LuckyTokenSkeleton.sol\":10512:10861  if (currentAllowance != type(uint256).max) {... */\n      tag_152\n      jumpi\n        /* \"contracts/LuckyTokenSkeleton.sol\":10689:10695  amount */\n      dup2\n        /* \"contracts/LuckyTokenSkeleton.sol\":10669:10685  currentAllowance */\n      dup2\n        /* \"contracts/LuckyTokenSkeleton.sol\":10669:10695  currentAllowance >= amount */\n      lt\n      iszero\n        /* \"contracts/LuckyTokenSkeleton.sol\":10569:10743  require(... */\n      tag_153\n      jumpi\n      mload(0x40)\n      0x08c379a000000000000000000000000000000000000000000000000000000000\n      dup2\n      mstore\n      0x04\n      add\n      tag_154\n      swap1\n      tag_155\n      jump\t// in\n    tag_154:\n      mload(0x40)\n      dup1\n      swap2\n      sub\n      swap1\n      revert\n    tag_153:\n        /* \"contracts/LuckyTokenSkeleton.sol\":10785:10836  _approve(owner, spender, currentAllowance - amount) */\n      tag_156\n        /* \"contracts/LuckyTokenSkeleton.sol\":10794:10799  owner */\n      dup5\n        /* \"contracts/LuckyTokenSkeleton.sol\":10801:10808  spender */\n      dup5\n        /* \"contracts/LuckyTokenSkeleton.sol\":10829:10835  amount */\n      dup5\n        /* \"contracts/LuckyTokenSkeleton.sol\":10810:10826  currentAllowance */\n      dup5\n        /* \"contracts/LuckyTokenSkeleton.sol\":10810:10835  currentAllowance - amount */\n      sub\n        /* \"contracts/LuckyTokenSkeleton.sol\":10785:10793  _approve */\n      tag_92\n        /* \"contracts/LuckyTokenSkeleton.sol\":10785:10836  _approve(owner, spender, currentAllowance - amount) */\n      jump\t// in\n    tag_156:\n        /* \"contracts/LuckyTokenSkeleton.sol\":10512:10861  if (currentAllowance != type(uint256).max) {... */\n    tag_152:\n        /* \"contracts/LuckyTokenSkeleton.sol\":10440:10867  {... */\n      pop\n        /* \"contracts/LuckyTokenSkeleton.sol\":10320:10867  function _spendAllowance(... */\n      pop\n      pop\n      pop\n      jump\t// out\n        /* \"contracts/LuckyTokenSkeleton.sol\":7470:7921  function _transfer(... */\n    tag_99:\n        /* \"contracts/LuckyTokenSkeleton.sol\":7628:7629  0 */\n      0x00\n        /* \"contracts/LuckyTokenSkeleton.sol\":7612:7630  from != address(0) */\n      0xffffffffffffffffffffffffffffffffffffffff\n      and\n        /* \"contracts/LuckyTokenSkeleton.sol\":7612:7616  from */\n      dup4\n        /* \"contracts/LuckyTokenSkeleton.sol\":7612:7630  from != address(0) */\n      0xffffffffffffffffffffffffffffffffffffffff\n      and\n      eq\n      iszero\n        /* \"contracts/LuckyTokenSkeleton.sol\":7604:7661  require(from != address(0), \"Transfer from zero address\") */\n      tag_158\n      jumpi\n      mload(0x40)\n      0x08c379a000000000000000000000000000000000000000000000000000000000\n      dup2\n      mstore\n      0x04\n      add\n      tag_159\n      swap1\n      tag_160\n      jump\t// in\n    tag_159:\n      mload(0x40)\n      dup1\n      swap2\n      sub\n      swap1\n      revert\n    tag_158:\n        /* \"contracts/LuckyTokenSkeleton.sol\":7693:7694  0 */\n      0x00\n        /* \"contracts/LuckyTokenSkeleton.sol\":7679:7695  to != address(0) */\n      0xffffffffffffffffffffffffffffffffffffffff\n      and\n        /* \"contracts/LuckyTokenSkeleton.sol\":7679:7681  to */\n      dup3\n        /* \"contracts/LuckyTokenSkeleton.sol\":7679:7695  to != address(0) */\n      0xffffffffffffffffffffffffffffffffffffffff\n      and\n      eq\n      iszero\n        /* \"contracts/LuckyTokenSkeleton.sol\":7671:7724  require(to != address(0), \"Transfer to zero address\") */\n      tag_161\n      jumpi\n      mload(0x40)\n      0x08c379a000000000000000000000000000000000000000000000000000000000\n      dup2\n      mstore\n      0x04\n      add\n      tag_162\n      swap1\n      tag_163\n      jump\t// in\n    tag_162:\n      mload(0x40)\n      dup1\n      swap2\n      sub\n      swap1\n      revert\n    tag_161:\n        /* \"contracts/LuckyTokenSkeleton.sol\":7761:7767  amount */\n      dup1\n        /* \"contracts/LuckyTokenSkeleton.sol\":7742:7751  _balances */\n      0x00\n        /* \"contracts/LuckyTokenSkeleton.sol\":7742:7757  _balances[from] */\n      dup1\n        /* \"contracts/LuckyTokenSkeleton.sol\":7752:7756  from */\n      dup6\n        /* \"contracts/LuckyTokenSkeleton.sol\":7742:7757  _balances[from] */\n      0xffffffffffffffffffffffffffffffffffffffff\n      and\n      0xffffffffffffffffffffffffffffffffffffffff\n      and\n      dup2\n      mstore\n      0x20\n      add\n      swap1\n      dup2\n      mstore\n      0x20\n      add\n      0x00\n      keccak256\n      sload\n        /* \"contracts/LuckyTokenSkeleton.sol\":7742:7767  _balances[from] >= amount */\n      lt\n      iszero\n        /* \"contracts/LuckyTokenSkeleton.sol\":7734:7805  require(_balances[from] >= amount, \"Insufficient balance for transfer\") */\n      tag_164\n      jumpi\n      mload(0x40)\n      0x08c379a000000000000000000000000000000000000000000000000000000000\n      dup2\n      mstore\n      0x04\n      add\n      tag_165\n      swap1\n      tag_166\n      jump\t// in\n    tag_165:\n      mload(0x40)\n      dup1\n      swap2\n      sub\n      swap1\n      revert\n    tag_164:\n        /* \"contracts/LuckyTokenSkeleton.sol\":7834:7840  amount */\n      dup1\n        /* \"contracts/LuckyTokenSkeleton.sol\":7815:7824  _balances */\n      0x00\n        /* \"contracts/LuckyTokenSkeleton.sol\":7815:7830  _balances[from] */\n      dup1\n        /* \"contracts/LuckyTokenSkeleton.sol\":7825:7829  from */\n      dup6\n        /* \"contracts/LuckyTokenSkeleton.sol\":7815:7830  _balances[from] */\n      0xffffffffffffffffffffffffffffffffffffffff\n      and\n      0xffffffffffffffffffffffffffffffffffffffff\n      and\n      dup2\n      mstore\n      0x20\n      add\n      swap1\n      dup2\n      mstore\n      0x20\n      add\n      0x00\n      keccak256\n      0x00\n        /* \"contracts/LuckyTokenSkeleton.sol\":7815:7840  _balances[from] -= amount */\n      dup3\n      dup3\n      sload\n      tag_167\n      swap2\n      swap1\n      tag_138\n      jump\t// in\n    tag_167:\n      swap3\n      pop\n      pop\n      dup2\n      swap1\n      sstore\n      pop\n        /* \"contracts/LuckyTokenSkeleton.sol\":7867:7873  amount */\n      dup1\n        /* \"contracts/LuckyTokenSkeleton.sol\":7850:7859  _balances */\n      0x00\n        /* \"contracts/LuckyTokenSkeleton.sol\":7850:7863  _balances[to] */\n      dup1\n        /* \"contracts/LuckyTokenSkeleton.sol\":7860:7862  to */\n      dup5\n        /* \"contracts/LuckyTokenSkeleton.sol\":7850:7863  _balances[to] */\n      0xffffffffffffffffffffffffffffffffffffffff\n      and\n      0xffffffffffffffffffffffffffffffffffffffff\n      and\n      dup2\n      mstore\n      0x20\n      add\n      swap1\n      dup2\n      mstore\n      0x20\n      add\n      0x00\n      keccak256\n      0x00\n        /* \"contracts/LuckyTokenSkeleton.sol\":7850:7873  _balances[to] += amount */\n      dup3\n      dup3\n      sload\n      tag_168\n      swap2\n      swap1\n      tag_105\n      jump\t// in\n    tag_168:\n      swap3\n      pop\n      pop\n      dup2\n      swap1\n      sstore\n      pop\n        /* \"contracts/LuckyTokenSkeleton.sol\":7903:7905  to */\n      dup2\n        /* \"contracts/LuckyTokenSkeleton.sol\":7888:7914  Transfer(from, to, amount) */\n      0xffffffffffffffffffffffffffffffffffffffff\n      and\n        /* \"contracts/LuckyTokenSkeleton.sol\":7897:7901  from */\n      dup4\n        /* \"contracts/LuckyTokenSkeleton.sol\":7888:7914  Transfer(from, to, amount) */\n      0xffffffffffffffffffffffffffffffffffffffff\n      and\n      0xddf252ad1be2c89b69c2b068fc378daa952ba7f163c4a11628f55a4df523b3ef\n        /* \"contracts/LuckyTokenSkeleton.sol\":7907:7913  amount */\n      dup4\n        /* \"contracts/LuckyTokenSkeleton.sol\":7888:7914  Transfer(from, to, amount) */\n      mload(0x40)\n      tag_169\n      swap2\n      swap1\n      tag_39\n      jump\t// in\n    tag_169:\n      mload(0x40)\n      dup1\n      swap2\n      sub\n      swap1\n      log3\n        /* \"contracts/LuckyTokenSkeleton.sol\":7470:7921  function _transfer(... */\n      pop\n      pop\n      pop\n      jump\t// out\n        /* \"contracts/LuckyTokenSkeleton.sol\":534:683  function _msgSender() internal view virtual returns (address) {... */\n    tag_109:\n        /* \"contracts/LuckyTokenSkeleton.sol\":587:594  address */\n      0x00\n        /* \"contracts/LuckyTokenSkeleton.sol\":666:676  msg.sender */\n      caller\n        /* \"contracts/LuckyTokenSkeleton.sol\":659:676  return msg.sender */\n      swap1\n      pop\n        /* \"contracts/LuckyTokenSkeleton.sol\":534:683  function _msgSender() internal view virtual returns (address) {... */\n      swap1\n      jump\t// out\n        /* \"contracts/LuckyTokenSkeleton.sol\":8207:8491  function _mint(address account, uint256 amount) internal virtual {... */\n    tag_114:\n        /* \"contracts/LuckyTokenSkeleton.sol\":8324:8325  0 */\n      0x00\n        /* \"contracts/LuckyTokenSkeleton.sol\":8305:8326  account != address(0) */\n      0xffffffffffffffffffffffffffffffffffffffff\n      and\n        /* \"contracts/LuckyTokenSkeleton.sol\":8305:8312  account */\n      dup3\n        /* \"contracts/LuckyTokenSkeleton.sol\":8305:8326  account != address(0) */\n      0xffffffffffffffffffffffffffffffffffffffff\n      and\n      eq\n      iszero\n        /* \"contracts/LuckyTokenSkeleton.sol\":8297:8362  require(account != address(0), \"Cannot mint to the zero address\") */\n      tag_172\n      jumpi\n      mload(0x40)\n      0x08c379a000000000000000000000000000000000000000000000000000000000\n      dup2\n      mstore\n      0x04\n      add\n      tag_173\n      swap1\n      tag_174\n      jump\t// in\n    tag_173:\n      mload(0x40)\n      dup1\n      swap2\n      sub\n      swap1\n      revert\n    tag_172:\n        /* \"contracts/LuckyTokenSkeleton.sol\":8388:8394  amount */\n      dup1\n        /* \"contracts/LuckyTokenSkeleton.sol\":8372:8384  _totalSupply */\n      0x02\n      0x00\n        /* \"contracts/LuckyTokenSkeleton.sol\":8372:8394  _totalSupply += amount */\n      dup3\n      dup3\n      sload\n      tag_175\n      swap2\n      swap1\n      tag_105\n      jump\t// in\n    tag_175:\n      swap3\n      pop\n      pop\n      dup2\n      swap1\n      sstore\n      pop\n        /* \"contracts/LuckyTokenSkeleton.sol\":8426:8432  amount */\n      dup1\n        /* \"contracts/LuckyTokenSkeleton.sol\":8404:8413  _balances */\n      0x00\n        /* \"contracts/LuckyTokenSkeleton.sol\":8404:8422  _balances[account] */\n      dup1\n        /* \"contracts/LuckyTokenSkeleton.sol\":8414:8421  account */\n      dup5\n        /* \"contracts/LuckyTokenSkeleton.sol\":8404:8422  _balances[account] */\n      0xffffffffffffffffffffffffffffffffffffffff\n      and\n      0xffffffffffffffffffffffffffffffffffffffff\n      and\n      dup2\n      mstore\n      0x20\n      add\n      swap1\n      dup2\n      mstore\n      0x20\n      add\n      0x00\n      keccak256\n      0x00\n        /* \"contracts/LuckyTokenSkeleton.sol\":8404:8432  _balances[account] += amount */\n      dup3\n      dup3\n      sload\n      tag_176\n      swap2\n      swap1\n      tag_105\n      jump\t// in\n    tag_176:\n      swap3\n      pop\n      pop\n      dup2\n      swap1\n      sstore\n      pop\n        /* \"contracts/LuckyTokenSkeleton.sol\":8468:8475  account */\n      dup2\n        /* \"contracts/LuckyTokenSkeleton.sol\":8447:8484  Transfer(address(0), account, amount) */\n      0xffffffffffffffffffffffffffffffffffffffff\n      and\n        /* \"contracts/LuckyTokenSkeleton.sol\":8464:8465  0 */\n      0x00\n        /* \"contracts/LuckyTokenSkeleton.sol\":8447:8484  Transfer(address(0), account, amount) */\n      0xffffffffffffffffffffffffffffffffffffffff\n      and\n      0xddf252ad1be2c89b69c2b068fc378daa952ba7f163c4a11628f55a4df523b3ef\n        /* \"contracts/LuckyTokenSkeleton.sol\":8477:8483  amount */\n      dup4\n        /* \"contracts/LuckyTokenSkeleton.sol\":8447:8484  Transfer(address(0), account, amount) */\n      mload(0x40)\n      tag_177\n      swap2\n      swap1\n      tag_39\n      jump\t// in\n    tag_177:\n      mload(0x40)\n      dup1\n      swap2\n      sub\n      swap1\n      log3\n        /* \"contracts/LuckyTokenSkeleton.sol\":8207:8491  function _mint(address account, uint256 amount) internal virtual {... */\n      pop\n      pop\n      jump\t// out\n        /* \"contracts/LuckyTokenSkeleton.sol\":8816:9182  function _burn(address account, uint256 amount) internal virtual {... */\n    tag_118:\n        /* \"contracts/LuckyTokenSkeleton.sol\":8934:8935  0 */\n      0x00\n        /* \"contracts/LuckyTokenSkeleton.sol\":8915:8936  account != address(0) */\n      0xffffffffffffffffffffffffffffffffffffffff\n      and\n        /* \"contracts/LuckyTokenSkeleton.sol\":8915:8922  account */\n      dup3\n        /* \"contracts/LuckyTokenSkeleton.sol\":8915:8936  account != address(0) */\n      0xffffffffffffffffffffffffffffffffffffffff\n      and\n      eq\n      iszero\n        /* \"contracts/LuckyTokenSkeleton.sol\":8907:8974  require(account != address(0), \"Cannot burn from the zero address\") */\n      tag_179\n      jumpi\n      mload(0x40)\n      0x08c379a000000000000000000000000000000000000000000000000000000000\n      dup2\n      mstore\n      0x04\n      add\n      tag_180\n      swap1\n      tag_181\n      jump\t// in\n    tag_180:\n      mload(0x40)\n      dup1\n      swap2\n      sub\n      swap1\n      revert\n    tag_179:\n        /* \"contracts/LuckyTokenSkeleton.sol\":9014:9020  amount */\n      dup1\n        /* \"contracts/LuckyTokenSkeleton.sol\":8992:9001  _balances */\n      0x00\n        /* \"contracts/LuckyTokenSkeleton.sol\":8992:9010  _balances[account] */\n      dup1\n        /* \"contracts/LuckyTokenSkeleton.sol\":9002:9009  account */\n      dup5\n        /* \"contracts/LuckyTokenSkeleton.sol\":8992:9010  _balances[account] */\n      0xffffffffffffffffffffffffffffffffffffffff\n      and\n      0xffffffffffffffffffffffffffffffffffffffff\n      and\n      dup2\n      mstore\n      0x20\n      add\n      swap1\n      dup2\n      mstore\n      0x20\n      add\n      0x00\n      keccak256\n      sload\n        /* \"contracts/LuckyTokenSkeleton.sol\":8992:9020  _balances[account] >= amount */\n      lt\n      iszero\n        /* \"contracts/LuckyTokenSkeleton.sol\":8984:9053  require(_balances[account] >= amount, \"Insufficient balance to burn\") */\n      tag_182\n      jumpi\n      mload(0x40)\n      0x08c379a000000000000000000000000000000000000000000000000000000000\n      dup2\n      mstore\n      0x04\n      add\n      tag_183\n      swap1\n      tag_184\n      jump\t// in\n    tag_183:\n      mload(0x40)\n      dup1\n      swap2\n      sub\n      swap1\n      revert\n    tag_182:\n        /* \"contracts/LuckyTokenSkeleton.sol\":9079:9085  amount */\n      dup1\n        /* \"contracts/LuckyTokenSkeleton.sol\":9063:9075  _totalSupply */\n      0x02\n      0x00\n        /* \"contracts/LuckyTokenSkeleton.sol\":9063:9085  _totalSupply -= amount */\n      dup3\n      dup3\n      sload\n      tag_185\n      swap2\n      swap1\n      tag_138\n      jump\t// in\n    tag_185:\n      swap3\n      pop\n      pop\n      dup2\n      swap1\n      sstore\n      pop\n        /* \"contracts/LuckyTokenSkeleton.sol\":9117:9123  amount */\n      dup1\n        /* \"contracts/LuckyTokenSkeleton.sol\":9095:9104  _balances */\n      0x00\n        /* \"contracts/LuckyTokenSkeleton.sol\":9095:9113  _balances[account] */\n      dup1\n        /* \"contracts/LuckyTokenSkeleton.sol\":9105:9112  account */\n      dup5\n        /* \"contracts/LuckyTokenSkeleton.sol\":9095:9113  _balances[account] */\n      0xffffffffffffffffffffffffffffffffffffffff\n      and\n      0xffffffffffffffffffffffffffffffffffffffff\n      and\n      dup2\n      mstore\n      0x20\n      add\n      swap1\n      dup2\n      mstore\n      0x20\n      add\n      0x00\n      keccak256\n      0x00\n        /* \"contracts/LuckyTokenSkeleton.sol\":9095:9123  _balances[account] -= amount */\n      dup3\n      dup3\n      sload\n      tag_186\n      swap2\n      swap1\n      tag_138\n      jump\t// in\n    tag_186:\n      swap3\n      pop\n      pop\n      dup2\n      swap1\n      sstore\n      pop\n        /* \"contracts/LuckyTokenSkeleton.sol\":9164:9165  0 */\n      0x00\n        /* \"contracts/LuckyTokenSkeleton.sol\":9138:9175  Transfer(account, address(0), amount) */\n      0xffffffffffffffffffffffffffffffffffffffff\n      and\n        /* \"contracts/LuckyTokenSkeleton.sol\":9147:9154  account */\n      dup3\n        /* \"contracts/LuckyTokenSkeleton.sol\":9138:9175  Transfer(account, address(0), amount) */\n      0xffffffffffffffffffffffffffffffffffffffff\n      and\n      0xddf252ad1be2c89b69c2b068fc378daa952ba7f163c4a11628f55a4df523b3ef\n        /* \"contracts/LuckyTokenSkeleton.sol\":9168:9174  amount */\n      dup4\n        /* \"contracts/LuckyTokenSkeleton.sol\":9138:9175  Transfer(account, address(0), amount) */\n      mload(0x40)\n      tag_187\n      swap2\n      swap1\n      tag_39\n      jump\t// in\n    tag_187:\n      mload(0x40)\n      dup1\n      swap2\n      sub\n      swap1\n      log3\n        /* \"contracts/LuckyTokenSkeleton.sol\":8816:9182  function _burn(address account, uint256 amount) internal virtual {... */\n      pop\n      pop\n      jump\t// out\n        /* \"#utility.yul\":7:146   */\n    tag_189:\n        /* \"#utility.yul\":53:58   */\n      0x00\n        /* \"#utility.yul\":91:97   */\n      dup2\n        /* \"#utility.yul\":78:98   */\n      calldataload\n        /* \"#utility.yul\":69:98   */\n      swap1\n      pop\n        /* \"#utility.yul\":107:140   */\n      tag_191\n        /* \"#utility.yul\":134:139   */\n      dup2\n        /* \"#utility.yul\":107:140   */\n      tag_192\n      jump\t// in\n    tag_191:\n        /* \"#utility.yul\":7:146   */\n      swap3\n      swap2\n      pop\n      pop\n      jump\t// out\n        /* \"#utility.yul\":152:291   */\n    tag_193:\n        /* \"#utility.yul\":198:203   */\n      0x00\n        /* \"#utility.yul\":236:242   */\n      dup2\n        /* \"#utility.yul\":223:243   */\n      calldataload\n        /* \"#utility.yul\":214:243   */\n      swap1\n      pop\n        /* \"#utility.yul\":252:285   */\n      tag_195\n        /* \"#utility.yul\":279:284   */\n      dup2\n        /* \"#utility.yul\":252:285   */\n      tag_196\n      jump\t// in\n    tag_195:\n        /* \"#utility.yul\":152:291   */\n      swap3\n      swap2\n      pop\n      pop\n      jump\t// out\n        /* \"#utility.yul\":297:626   */\n    tag_33:\n        /* \"#utility.yul\":356:362   */\n      0x00\n        /* \"#utility.yul\":405:407   */\n      0x20\n        /* \"#utility.yul\":393:402   */\n      dup3\n        /* \"#utility.yul\":384:391   */\n      dup5\n        /* \"#utility.yul\":380:403   */\n      sub\n        /* \"#utility.yul\":376:408   */\n      slt\n        /* \"#utility.yul\":373:492   */\n      iszero\n      tag_198\n      jumpi\n        /* \"#utility.yul\":411:490   */\n      tag_199\n      tag_200\n      jump\t// in\n    tag_199:\n        /* \"#utility.yul\":373:492   */\n    tag_198:\n        /* \"#utility.yul\":531:532   */\n      0x00\n        /* \"#utility.yul\":556:609   */\n      tag_201\n        /* \"#utility.yul\":601:608   */\n      dup5\n        /* \"#utility.yul\":592:598   */\n      dup3\n        /* \"#utility.yul\":581:590   */\n      dup6\n        /* \"#utility.yul\":577:599   */\n      add\n        /* \"#utility.yul\":556:609   */\n      tag_189\n      jump\t// in\n    tag_201:\n        /* \"#utility.yul\":546:609   */\n      swap2\n      pop\n        /* \"#utility.yul\":502:619   */\n      pop\n        /* \"#utility.yul\":297:626   */\n      swap3\n      swap2\n      pop\n      pop\n      jump\t// out\n        /* \"#utility.yul\":632:1106   */\n    tag_80:\n        /* \"#utility.yul\":700:706   */\n      0x00\n        /* \"#utility.yul\":708:714   */\n      dup1\n        /* \"#utility.yul\":757:759   */\n      0x40\n        /* \"#utility.yul\":745:754   */\n      dup4\n        /* \"#utility.yul\":736:743   */\n      dup6\n        /* \"#utility.yul\":732:755   */\n      sub\n        /* \"#utility.yul\":728:760   */\n      slt\n        /* \"#utility.yul\":725:844   */\n      iszero\n      tag_203\n      jumpi\n        /* \"#utility.yul\":763:842   */\n      tag_204\n      tag_200\n      jump\t// in\n    tag_204:\n        /* \"#utility.yul\":725:844   */\n    tag_203:\n        /* \"#utility.yul\":883:884   */\n      0x00\n        /* \"#utility.yul\":908:961   */\n      tag_205\n        /* \"#utility.yul\":953:960   */\n      dup6\n        /* \"#utility.yul\":944:950   */\n      dup3\n        /* \"#utility.yul\":933:942   */\n      dup7\n        /* \"#utility.yul\":929:951   */\n      add\n        /* \"#utility.yul\":908:961   */\n      tag_189\n      jump\t// in\n    tag_205:\n        /* \"#utility.yul\":898:961   */\n      swap3\n      pop\n        /* \"#utility.yul\":854:971   */\n      pop\n        /* \"#utility.yul\":1010:1012   */\n      0x20\n        /* \"#utility.yul\":1036:1089   */\n      tag_206\n        /* \"#utility.yul\":1081:1088   */\n      dup6\n        /* \"#utility.yul\":1072:1078   */\n      dup3\n        /* \"#utility.yul\":1061:1070   */\n      dup7\n        /* \"#utility.yul\":1057:1079   */\n      add\n        /* \"#utility.yul\":1036:1089   */\n      tag_189\n      jump\t// in\n    tag_206:\n        /* \"#utility.yul\":1026:1089   */\n      swap2\n      pop\n        /* \"#utility.yul\":981:1099   */\n      pop\n        /* \"#utility.yul\":632:1106   */\n      swap3\n      pop\n      swap3\n      swap1\n      pop\n      jump\t// out\n        /* \"#utility.yul\":1112:1731   */\n    tag_42:\n        /* \"#utility.yul\":1189:1195   */\n      0x00\n        /* \"#utility.yul\":1197:1203   */\n      dup1\n        /* \"#utility.yul\":1205:1211   */\n      0x00\n        /* \"#utility.yul\":1254:1256   */\n      0x60\n        /* \"#utility.yul\":1242:1251   */\n      dup5\n        /* \"#utility.yul\":1233:1240   */\n      dup7\n        /* \"#utility.yul\":1229:1252   */\n      sub\n        /* \"#utility.yul\":1225:1257   */\n      slt\n        /* \"#utility.yul\":1222:1341   */\n      iszero\n      tag_208\n      jumpi\n        /* \"#utility.yul\":1260:1339   */\n      tag_209\n      tag_200\n      jump\t// in\n    tag_209:\n        /* \"#utility.yul\":1222:1341   */\n    tag_208:\n        /* \"#utility.yul\":1380:1381   */\n      0x00\n        /* \"#utility.yul\":1405:1458   */\n      tag_210\n        /* \"#utility.yul\":1450:1457   */\n      dup7\n        /* \"#utility.yul\":1441:1447   */\n      dup3\n        /* \"#utility.yul\":1430:1439   */\n      dup8\n        /* \"#utility.yul\":1426:1448   */\n      add\n        /* \"#utility.yul\":1405:1458   */\n      tag_189\n      jump\t// in\n    tag_210:\n        /* \"#utility.yul\":1395:1458   */\n      swap4\n      pop\n        /* \"#utility.yul\":1351:1468   */\n      pop\n        /* \"#utility.yul\":1507:1509   */\n      0x20\n        /* \"#utility.yul\":1533:1586   */\n      tag_211\n        /* \"#utility.yul\":1578:1585   */\n      dup7\n        /* \"#utility.yul\":1569:1575   */\n      dup3\n        /* \"#utility.yul\":1558:1567   */\n      dup8\n        /* \"#utility.yul\":1554:1576   */\n      add\n        /* \"#utility.yul\":1533:1586   */\n      tag_189\n      jump\t// in\n    tag_211:\n        /* \"#utility.yul\":1523:1586   */\n      swap3\n      pop\n        /* \"#utility.yul\":1478:1596   */\n      pop\n        /* \"#utility.yul\":1635:1637   */\n      0x40\n        /* \"#utility.yul\":1661:1714   */\n      tag_212\n        /* \"#utility.yul\":1706:1713   */\n      dup7\n        /* \"#utility.yul\":1697:1703   */\n      dup3\n        /* \"#utility.yul\":1686:1695   */\n      dup8\n        /* \"#utility.yul\":1682:1704   */\n      add\n        /* \"#utility.yul\":1661:1714   */\n      tag_193\n      jump\t// in\n    tag_212:\n        /* \"#utility.yul\":1651:1714   */\n      swap2\n      pop\n        /* \"#utility.yul\":1606:1724   */\n      pop\n        /* \"#utility.yul\":1112:1731   */\n      swap3\n      pop\n      swap3\n      pop\n      swap3\n      jump\t// out\n        /* \"#utility.yul\":1737:2211   */\n    tag_27:\n        /* \"#utility.yul\":1805:1811   */\n      0x00\n        /* \"#utility.yul\":1813:1819   */\n      dup1\n        /* \"#utility.yul\":1862:1864   */\n      0x40\n        /* \"#utility.yul\":1850:1859   */\n      dup4\n        /* \"#utility.yul\":1841:1848   */\n      dup6\n        /* \"#utility.yul\":1837:1860   */\n      sub\n        /* \"#utility.yul\":1833:1865   */\n      slt\n        /* \"#utility.yul\":1830:1949   */\n      iszero\n      tag_214\n      jumpi\n        /* \"#utility.yul\":1868:1947   */\n      tag_215\n      tag_200\n      jump\t// in\n    tag_215:\n        /* \"#utility.yul\":1830:1949   */\n    tag_214:\n        /* \"#utility.yul\":1988:1989   */\n      0x00\n        /* \"#utility.yul\":2013:2066   */\n      tag_216\n        /* \"#utility.yul\":2058:2065   */\n      dup6\n        /* \"#utility.yul\":2049:2055   */\n      dup3\n        /* \"#utility.yul\":2038:2047   */\n      dup7\n        /* \"#utility.yul\":2034:2056   */\n      add\n        /* \"#utility.yul\":2013:2066   */\n      tag_189\n      jump\t// in\n    tag_216:\n        /* \"#utility.yul\":2003:2066   */\n      swap3\n      pop\n        /* \"#utility.yul\":1959:2076   */\n      pop\n        /* \"#utility.yul\":2115:2117   */\n      0x20\n        /* \"#utility.yul\":2141:2194   */\n      tag_217\n        /* \"#utility.yul\":2186:2193   */\n      dup6\n        /* \"#utility.yul\":2177:2183   */\n      dup3\n        /* \"#utility.yul\":2166:2175   */\n      dup7\n        /* \"#utility.yul\":2162:2184   */\n      add\n        /* \"#utility.yul\":2141:2194   */\n      tag_193\n      jump\t// in\n    tag_217:\n        /* \"#utility.yul\":2131:2194   */\n      swap2\n      pop\n        /* \"#utility.yul\":2086:2204   */\n      pop\n        /* \"#utility.yul\":1737:2211   */\n      swap3\n      pop\n      swap3\n      swap1\n      pop\n      jump\t// out\n        /* \"#utility.yul\":2217:2546   */\n    tag_58:\n        /* \"#utility.yul\":2276:2282   */\n      0x00\n        /* \"#utility.yul\":2325:2327   */\n      0x20\n        /* \"#utility.yul\":2313:2322   */\n      dup3\n        /* \"#utility.yul\":2304:2311   */\n      dup5\n        /* \"#utility.yul\":2300:2323   */\n      sub\n        /* \"#utility.yul\":2296:2328   */\n      slt\n        /* \"#utility.yul\":2293:2412   */\n      iszero\n      tag_219\n      jumpi\n        /* \"#utility.yul\":2331:2410   */\n      tag_220\n      tag_200\n      jump\t// in\n    tag_220:\n        /* \"#utility.yul\":2293:2412   */\n    tag_219:\n        /* \"#utility.yul\":2451:2452   */\n      0x00\n        /* \"#utility.yul\":2476:2529   */\n      tag_221\n        /* \"#utility.yul\":2521:2528   */\n      dup5\n        /* \"#utility.yul\":2512:2518   */\n      dup3\n        /* \"#utility.yul\":2501:2510   */\n      dup6\n        /* \"#utility.yul\":2497:2519   */\n      add\n        /* \"#utility.yul\":2476:2529   */\n      tag_193\n      jump\t// in\n    tag_221:\n        /* \"#utility.yul\":2466:2529   */\n      swap2\n      pop\n        /* \"#utility.yul\":2422:2539   */\n      pop\n        /* \"#utility.yul\":2217:2546   */\n      swap3\n      swap2\n      pop\n      pop\n      jump\t// out\n        /* \"#utility.yul\":2552:2661   */\n    tag_222:\n        /* \"#utility.yul\":2633:2654   */\n      tag_224\n        /* \"#utility.yul\":2648:2653   */\n      dup2\n        /* \"#utility.yul\":2633:2654   */\n      tag_225\n      jump\t// in\n    tag_224:\n        /* \"#utility.yul\":2628:2631   */\n      dup3\n        /* \"#utility.yul\":2621:2655   */\n      mstore\n        /* \"#utility.yul\":2552:2661   */\n      pop\n      pop\n      jump\t// out\n        /* \"#utility.yul\":2667:3031   */\n    tag_226:\n        /* \"#utility.yul\":2755:2758   */\n      0x00\n        /* \"#utility.yul\":2783:2822   */\n      tag_228\n        /* \"#utility.yul\":2816:2821   */\n      dup3\n        /* \"#utility.yul\":2783:2822   */\n      tag_229\n      jump\t// in\n    tag_228:\n        /* \"#utility.yul\":2838:2909   */\n      tag_230\n        /* \"#utility.yul\":2902:2908   */\n      dup2\n        /* \"#utility.yul\":2897:2900   */\n      dup6\n        /* \"#utility.yul\":2838:2909   */\n      tag_231\n      jump\t// in\n    tag_230:\n        /* \"#utility.yul\":2831:2909   */\n      swap4\n      pop\n        /* \"#utility.yul\":2918:2970   */\n      tag_232\n        /* \"#utility.yul\":2963:2969   */\n      dup2\n        /* \"#utility.yul\":2958:2961   */\n      dup6\n        /* \"#utility.yul\":2951:2955   */\n      0x20\n        /* \"#utility.yul\":2944:2949   */\n      dup7\n        /* \"#utility.yul\":2940:2956   */\n      add\n        /* \"#utility.yul\":2918:2970   */\n      tag_233\n      jump\t// in\n    tag_232:\n        /* \"#utility.yul\":2995:3024   */\n      tag_234\n        /* \"#utility.yul\":3017:3023   */\n      dup2\n        /* \"#utility.yul\":2995:3024   */\n      tag_235\n      jump\t// in\n    tag_234:\n        /* \"#utility.yul\":2990:2993   */\n      dup5\n        /* \"#utility.yul\":2986:3025   */\n      add\n        /* \"#utility.yul\":2979:3025   */\n      swap2\n      pop\n        /* \"#utility.yul\":2759:3031   */\n      pop\n        /* \"#utility.yul\":2667:3031   */\n      swap3\n      swap2\n      pop\n      pop\n      jump\t// out\n        /* \"#utility.yul\":3037:3403   */\n    tag_236:\n        /* \"#utility.yul\":3179:3182   */\n      0x00\n        /* \"#utility.yul\":3200:3267   */\n      tag_238\n        /* \"#utility.yul\":3264:3266   */\n      0x1f\n        /* \"#utility.yul\":3259:3262   */\n      dup4\n        /* \"#utility.yul\":3200:3267   */\n      tag_231\n      jump\t// in\n    tag_238:\n        /* \"#utility.yul\":3193:3267   */\n      swap2\n      pop\n        /* \"#utility.yul\":3276:3369   */\n      tag_239\n        /* \"#utility.yul\":3365:3368   */\n      dup3\n        /* \"#utility.yul\":3276:3369   */\n      tag_240\n      jump\t// in\n    tag_239:\n        /* \"#utility.yul\":3394:3396   */\n      0x20\n        /* \"#utility.yul\":3389:3392   */\n      dup3\n        /* \"#utility.yul\":3385:3397   */\n      add\n        /* \"#utility.yul\":3378:3397   */\n      swap1\n      pop\n        /* \"#utility.yul\":3037:3403   */\n      swap2\n      swap1\n      pop\n      jump\t// out\n        /* \"#utility.yul\":3409:3775   */\n    tag_241:\n        /* \"#utility.yul\":3551:3554   */\n      0x00\n        /* \"#utility.yul\":3572:3639   */\n      tag_243\n        /* \"#utility.yul\":3636:3638   */\n      0x27\n        /* \"#utility.yul\":3631:3634   */\n      dup4\n        /* \"#utility.yul\":3572:3639   */\n      tag_231\n      jump\t// in\n    tag_243:\n        /* \"#utility.yul\":3565:3639   */\n      swap2\n      pop\n        /* \"#utility.yul\":3648:3741   */\n      tag_244\n        /* \"#utility.yul\":3737:3740   */\n      dup3\n        /* \"#utility.yul\":3648:3741   */\n      tag_245\n      jump\t// in\n    tag_244:\n        /* \"#utility.yul\":3766:3768   */\n      0x40\n        /* \"#utility.yul\":3761:3764   */\n      dup3\n        /* \"#utility.yul\":3757:3769   */\n      add\n        /* \"#utility.yul\":3750:3769   */\n      swap1\n      pop\n        /* \"#utility.yul\":3409:3775   */\n      swap2\n      swap1\n      pop\n      jump\t// out\n        /* \"#utility.yul\":3781:4147   */\n    tag_246:\n        /* \"#utility.yul\":3923:3926   */\n      0x00\n        /* \"#utility.yul\":3944:4011   */\n      tag_248\n        /* \"#utility.yul\":4008:4010   */\n      0x25\n        /* \"#utility.yul\":4003:4006   */\n      dup4\n        /* \"#utility.yul\":3944:4011   */\n      tag_231\n      jump\t// in\n    tag_248:\n        /* \"#utility.yul\":3937:4011   */\n      swap2\n      pop\n        /* \"#utility.yul\":4020:4113   */\n      tag_249\n        /* \"#utility.yul\":4109:4112   */\n      dup3\n        /* \"#utility.yul\":4020:4113   */\n      tag_250\n      jump\t// in\n    tag_249:\n        /* \"#utility.yul\":4138:4140   */\n      0x40\n        /* \"#utility.yul\":4133:4136   */\n      dup3\n        /* \"#utility.yul\":4129:4141   */\n      add\n        /* \"#utility.yul\":4122:4141   */\n      swap1\n      pop\n        /* \"#utility.yul\":3781:4147   */\n      swap2\n      swap1\n      pop\n      jump\t// out\n        /* \"#utility.yul\":4153:4519   */\n    tag_251:\n        /* \"#utility.yul\":4295:4298   */\n      0x00\n        /* \"#utility.yul\":4316:4383   */\n      tag_253\n        /* \"#utility.yul\":4380:4382   */\n      0x1a\n        /* \"#utility.yul\":4375:4378   */\n      dup4\n        /* \"#utility.yul\":4316:4383   */\n      tag_231\n      jump\t// in\n    tag_253:\n        /* \"#utility.yul\":4309:4383   */\n      swap2\n      pop\n        /* \"#utility.yul\":4392:4485   */\n      tag_254\n        /* \"#utility.yul\":4481:4484   */\n      dup3\n        /* \"#utility.yul\":4392:4485   */\n      tag_255\n      jump\t// in\n    tag_254:\n        /* \"#utility.yul\":4510:4512   */\n      0x20\n        /* \"#utility.yul\":4505:4508   */\n      dup3\n        /* \"#utility.yul\":4501:4513   */\n      add\n        /* \"#utility.yul\":4494:4513   */\n      swap1\n      pop\n        /* \"#utility.yul\":4153:4519   */\n      swap2\n      swap1\n      pop\n      jump\t// out\n        /* \"#utility.yul\":4525:4891   */\n    tag_256:\n        /* \"#utility.yul\":4667:4670   */\n      0x00\n        /* \"#utility.yul\":4688:4755   */\n      tag_258\n        /* \"#utility.yul\":4752:4754   */\n      0x21\n        /* \"#utility.yul\":4747:4750   */\n      dup4\n        /* \"#utility.yul\":4688:4755   */\n      tag_231\n      jump\t// in\n    tag_258:\n        /* \"#utility.yul\":4681:4755   */\n      swap2\n      pop\n        /* \"#utility.yul\":4764:4857   */\n      tag_259\n        /* \"#utility.yul\":4853:4856   */\n      dup3\n        /* \"#utility.yul\":4764:4857   */\n      tag_260\n      jump\t// in\n    tag_259:\n        /* \"#utility.yul\":4882:4884   */\n      0x40\n        /* \"#utility.yul\":4877:4880   */\n      dup3\n        /* \"#utility.yul\":4873:4885   */\n      add\n        /* \"#utility.yul\":4866:4885   */\n      swap1\n      pop\n        /* \"#utility.yul\":4525:4891   */\n      swap2\n      swap1\n      pop\n      jump\t// out\n        /* \"#utility.yul\":4897:5263   */\n    tag_261:\n        /* \"#utility.yul\":5039:5042   */\n      0x00\n        /* \"#utility.yul\":5060:5127   */\n      tag_263\n        /* \"#utility.yul\":5124:5126   */\n      0x1a\n        /* \"#utility.yul\":5119:5122   */\n      dup4\n        /* \"#utility.yul\":5060:5127   */\n      tag_231\n      jump\t// in\n    tag_263:\n        /* \"#utility.yul\":5053:5127   */\n      swap2\n      pop\n        /* \"#utility.yul\":5136:5229   */\n      tag_264\n        /* \"#utility.yul\":5225:5228   */\n      dup3\n        /* \"#utility.yul\":5136:5229   */\n      tag_265\n      jump\t// in\n    tag_264:\n        /* \"#utility.yul\":5254:5256   */\n      0x20\n        /* \"#utility.yul\":5249:5252   */\n      dup3\n        /* \"#utility.yul\":5245:5257   */\n      add\n        /* \"#utility.yul\":5238:5257   */\n      swap1\n      pop\n        /* \"#utility.yul\":4897:5263   */\n      swap2\n      swap1\n      pop\n      jump\t// out\n        /* \"#utility.yul\":5269:5635   */\n    tag_266:\n        /* \"#utility.yul\":5411:5414   */\n      0x00\n        /* \"#utility.yul\":5432:5499   */\n      tag_268\n        /* \"#utility.yul\":5496:5498   */\n      0x1e\n        /* \"#utility.yul\":5491:5494   */\n      dup4\n        /* \"#utility.yul\":5432:5499   */\n      tag_231\n      jump\t// in\n    tag_268:\n        /* \"#utility.yul\":5425:5499   */\n      swap2\n      pop\n        /* \"#utility.yul\":5508:5601   */\n      tag_269\n        /* \"#utility.yul\":5597:5600   */\n      dup3\n        /* \"#utility.yul\":5508:5601   */\n      tag_270\n      jump\t// in\n    tag_269:\n        /* \"#utility.yul\":5626:5628   */\n      0x20\n        /* \"#utility.yul\":5621:5624   */\n      dup3\n        /* \"#utility.yul\":5617:5629   */\n      add\n        /* \"#utility.yul\":5610:5629   */\n      swap1\n      pop\n        /* \"#utility.yul\":5269:5635   */\n      swap2\n      swap1\n      pop\n      jump\t// out\n        /* \"#utility.yul\":5641:6007   */\n    tag_271:\n        /* \"#utility.yul\":5783:5786   */\n      0x00\n        /* \"#utility.yul\":5804:5871   */\n      tag_273\n        /* \"#utility.yul\":5868:5870   */\n      0x18\n        /* \"#utility.yul\":5863:5866   */\n      dup4\n        /* \"#utility.yul\":5804:5871   */\n      tag_231\n      jump\t// in\n    tag_273:\n        /* \"#utility.yul\":5797:5871   */\n      swap2\n      pop\n        /* \"#utility.yul\":5880:5973   */\n      tag_274\n        /* \"#utility.yul\":5969:5972   */\n      dup3\n        /* \"#utility.yul\":5880:5973   */\n      tag_275\n      jump\t// in\n    tag_274:\n        /* \"#utility.yul\":5998:6000   */\n      0x20\n        /* \"#utility.yul\":5993:5996   */\n      dup3\n        /* \"#utility.yul\":5989:6001   */\n      add\n        /* \"#utility.yul\":5982:6001   */\n      swap1\n      pop\n        /* \"#utility.yul\":5641:6007   */\n      swap2\n      swap1\n      pop\n      jump\t// out\n        /* \"#utility.yul\":6013:6379   */\n    tag_276:\n        /* \"#utility.yul\":6155:6158   */\n      0x00\n        /* \"#utility.yul\":6176:6243   */\n      tag_278\n        /* \"#utility.yul\":6240:6242   */\n      0x1c\n        /* \"#utility.yul\":6235:6238   */\n      dup4\n        /* \"#utility.yul\":6176:6243   */\n      tag_231\n      jump\t// in\n    tag_278:\n        /* \"#utility.yul\":6169:6243   */\n      swap2\n      pop\n        /* \"#utility.yul\":6252:6345   */\n      tag_279\n        /* \"#utility.yul\":6341:6344   */\n      dup3\n        /* \"#utility.yul\":6252:6345   */\n      tag_280\n      jump\t// in\n    tag_279:\n        /* \"#utility.yul\":6370:6372   */\n      0x20\n        /* \"#utility.yul\":6365:6368   */\n      dup3\n        /* \"#utility.yul\":6361:6373   */\n      add\n        /* \"#utility.yul\":6354:6373   */\n      swap1\n      pop\n        /* \"#utility.yul\":6013:6379   */\n      swap2\n      swap1\n      pop\n      jump\t// out\n        /* \"#utility.yul\":6385:6751   */\n    tag_281:\n        /* \"#utility.yul\":6527:6530   */\n      0x00\n        /* \"#utility.yul\":6548:6615   */\n      tag_283\n        /* \"#utility.yul\":6612:6614   */\n      0x18\n        /* \"#utility.yul\":6607:6610   */\n      dup4\n        /* \"#utility.yul\":6548:6615   */\n      tag_231\n      jump\t// in\n    tag_283:\n        /* \"#utility.yul\":6541:6615   */\n      swap2\n      pop\n        /* \"#utility.yul\":6624:6717   */\n      tag_284\n        /* \"#utility.yul\":6713:6716   */\n      dup3\n        /* \"#utility.yul\":6624:6717   */\n      tag_285\n      jump\t// in\n    tag_284:\n        /* \"#utility.yul\":6742:6744   */\n      0x20\n        /* \"#utility.yul\":6737:6740   */\n      dup3\n        /* \"#utility.yul\":6733:6745   */\n      add\n        /* \"#utility.yul\":6726:6745   */\n      swap1\n      pop\n        /* \"#utility.yul\":6385:6751   */\n      swap2\n      swap1\n      pop\n      jump\t// out\n        /* \"#utility.yul\":6757:7123   */\n    tag_286:\n        /* \"#utility.yul\":6899:6902   */\n      0x00\n        /* \"#utility.yul\":6920:6987   */\n      tag_288\n        /* \"#utility.yul\":6984:6986   */\n      0x21\n        /* \"#utility.yul\":6979:6982   */\n      dup4\n        /* \"#utility.yul\":6920:6987   */\n      tag_231\n      jump\t// in\n    tag_288:\n        /* \"#utility.yul\":6913:6987   */\n      swap2\n      pop\n        /* \"#utility.yul\":6996:7089   */\n      tag_289\n        /* \"#utility.yul\":7085:7088   */\n      dup3\n        /* \"#utility.yul\":6996:7089   */\n      tag_290\n      jump\t// in\n    tag_289:\n        /* \"#utility.yul\":7114:7116   */\n      0x40\n        /* \"#utility.yul\":7109:7112   */\n      dup3\n        /* \"#utility.yul\":7105:7117   */\n      add\n        /* \"#utility.yul\":7098:7117   */\n      swap1\n      pop\n        /* \"#utility.yul\":6757:7123   */\n      swap2\n      swap1\n      pop\n      jump\t// out\n        /* \"#utility.yul\":7129:7247   */\n    tag_291:\n        /* \"#utility.yul\":7216:7240   */\n      tag_293\n        /* \"#utility.yul\":7234:7239   */\n      dup2\n        /* \"#utility.yul\":7216:7240   */\n      tag_294\n      jump\t// in\n    tag_293:\n        /* \"#utility.yul\":7211:7214   */\n      dup3\n        /* \"#utility.yul\":7204:7241   */\n      mstore\n        /* \"#utility.yul\":7129:7247   */\n      pop\n      pop\n      jump\t// out\n        /* \"#utility.yul\":7253:7365   */\n    tag_295:\n        /* \"#utility.yul\":7336:7358   */\n      tag_297\n        /* \"#utility.yul\":7352:7357   */\n      dup2\n        /* \"#utility.yul\":7336:7358   */\n      tag_298\n      jump\t// in\n    tag_297:\n        /* \"#utility.yul\":7331:7334   */\n      dup3\n        /* \"#utility.yul\":7324:7359   */\n      mstore\n        /* \"#utility.yul\":7253:7365   */\n      pop\n      pop\n      jump\t// out\n        /* \"#utility.yul\":7371:7581   */\n    tag_30:\n        /* \"#utility.yul\":7458:7462   */\n      0x00\n        /* \"#utility.yul\":7496:7498   */\n      0x20\n        /* \"#utility.yul\":7485:7494   */\n      dup3\n        /* \"#utility.yul\":7481:7499   */\n      add\n        /* \"#utility.yul\":7473:7499   */\n      swap1\n      pop\n        /* \"#utility.yul\":7509:7574   */\n      tag_300\n        /* \"#utility.yul\":7571:7572   */\n      0x00\n        /* \"#utility.yul\":7560:7569   */\n      dup4\n        /* \"#utility.yul\":7556:7573   */\n      add\n        /* \"#utility.yul\":7547:7553   */\n      dup5\n        /* \"#utility.yul\":7509:7574   */\n      tag_222\n      jump\t// in\n    tag_300:\n        /* \"#utility.yul\":7371:7581   */\n      swap3\n      swap2\n      pop\n      pop\n      jump\t// out\n        /* \"#utility.yul\":7587:7900   */\n    tag_24:\n        /* \"#utility.yul\":7700:7704   */\n      0x00\n        /* \"#utility.yul\":7738:7740   */\n      0x20\n        /* \"#utility.yul\":7727:7736   */\n      dup3\n        /* \"#utility.yul\":7723:7741   */\n      add\n        /* \"#utility.yul\":7715:7741   */\n      swap1\n      pop\n        /* \"#utility.yul\":7787:7796   */\n      dup2\n        /* \"#utility.yul\":7781:7785   */\n      dup2\n        /* \"#utility.yul\":7777:7797   */\n      sub\n        /* \"#utility.yul\":7773:7774   */\n      0x00\n        /* \"#utility.yul\":7762:7771   */\n      dup4\n        /* \"#utility.yul\":7758:7775   */\n      add\n        /* \"#utility.yul\":7751:7798   */\n      mstore\n        /* \"#utility.yul\":7815:7893   */\n      tag_302\n        /* \"#utility.yul\":7888:7892   */\n      dup2\n        /* \"#utility.yul\":7879:7885   */\n      dup5\n        /* \"#utility.yul\":7815:7893   */\n      tag_226\n      jump\t// in\n    tag_302:\n        /* \"#utility.yul\":7807:7893   */\n      swap1\n      pop\n        /* \"#utility.yul\":7587:7900   */\n      swap3\n      swap2\n      pop\n      pop\n      jump\t// out\n        /* \"#utility.yul\":7906:8325   */\n    tag_174:\n        /* \"#utility.yul\":8072:8076   */\n      0x00\n        /* \"#utility.yul\":8110:8112   */\n      0x20\n        /* \"#utility.yul\":8099:8108   */\n      dup3\n        /* \"#utility.yul\":8095:8113   */\n      add\n        /* \"#utility.yul\":8087:8113   */\n      swap1\n      pop\n        /* \"#utility.yul\":8159:8168   */\n      dup2\n        /* \"#utility.yul\":8153:8157   */\n      dup2\n        /* \"#utility.yul\":8149:8169   */\n      sub\n        /* \"#utility.yul\":8145:8146   */\n      0x00\n        /* \"#utility.yul\":8134:8143   */\n      dup4\n        /* \"#utility.yul\":8130:8147   */\n      add\n        /* \"#utility.yul\":8123:8170   */\n      mstore\n        /* \"#utility.yul\":8187:8318   */\n      tag_304\n        /* \"#utility.yul\":8313:8317   */\n      dup2\n        /* \"#utility.yul\":8187:8318   */\n      tag_236\n      jump\t// in\n    tag_304:\n        /* \"#utility.yul\":8179:8318   */\n      swap1\n      pop\n        /* \"#utility.yul\":7906:8325   */\n      swap2\n      swap1\n      pop\n      jump\t// out\n        /* \"#utility.yul\":8331:8750   */\n    tag_112:\n        /* \"#utility.yul\":8497:8501   */\n      0x00\n        /* \"#utility.yul\":8535:8537   */\n      0x20\n        /* \"#utility.yul\":8524:8533   */\n      dup3\n        /* \"#utility.yul\":8520:8538   */\n      add\n        /* \"#utility.yul\":8512:8538   */\n      swap1\n      pop\n        /* \"#utility.yul\":8584:8593   */\n      dup2\n        /* \"#utility.yul\":8578:8582   */\n      dup2\n        /* \"#utility.yul\":8574:8594   */\n      sub\n        /* \"#utility.yul\":8570:8571   */\n      0x00\n        /* \"#utility.yul\":8559:8568   */\n      dup4\n        /* \"#utility.yul\":8555:8572   */\n      add\n        /* \"#utility.yul\":8548:8595   */\n      mstore\n        /* \"#utility.yul\":8612:8743   */\n      tag_306\n        /* \"#utility.yul\":8738:8742   */\n      dup2\n        /* \"#utility.yul\":8612:8743   */\n      tag_241\n      jump\t// in\n    tag_306:\n        /* \"#utility.yul\":8604:8743   */\n      swap1\n      pop\n        /* \"#utility.yul\":8331:8750   */\n      swap2\n      swap1\n      pop\n      jump\t// out\n        /* \"#utility.yul\":8756:9175   */\n    tag_134:\n        /* \"#utility.yul\":8922:8926   */\n      0x00\n        /* \"#utility.yul\":8960:8962   */\n      0x20\n        /* \"#utility.yul\":8949:8958   */\n      dup3\n        /* \"#utility.yul\":8945:8963   */\n      add\n        /* \"#utility.yul\":8937:8963   */\n      swap1\n      pop\n        /* \"#utility.yul\":9009:9018   */\n      dup2\n        /* \"#utility.yul\":9003:9007   */\n      dup2\n        /* \"#utility.yul\":8999:9019   */\n      sub\n        /* \"#utility.yul\":8995:8996   */\n      0x00\n        /* \"#utility.yul\":8984:8993   */\n      dup4\n        /* \"#utility.yul\":8980:8997   */\n      add\n        /* \"#utility.yul\":8973:9020   */\n      mstore\n        /* \"#utility.yul\":9037:9168   */\n      tag_308\n        /* \"#utility.yul\":9163:9167   */\n      dup2\n        /* \"#utility.yul\":9037:9168   */\n      tag_246\n      jump\t// in\n    tag_308:\n        /* \"#utility.yul\":9029:9168   */\n      swap1\n      pop\n        /* \"#utility.yul\":8756:9175   */\n      swap2\n      swap1\n      pop\n      jump\t// out\n        /* \"#utility.yul\":9181:9600   */\n    tag_145:\n        /* \"#utility.yul\":9347:9351   */\n      0x00\n        /* \"#utility.yul\":9385:9387   */\n      0x20\n        /* \"#utility.yul\":9374:9383   */\n      dup3\n        /* \"#utility.yul\":9370:9388   */\n      add\n        /* \"#utility.yul\":9362:9388   */\n      swap1\n      pop\n        /* \"#utility.yul\":9434:9443   */\n      dup2\n        /* \"#utility.yul\":9428:9432   */\n      dup2\n        /* \"#utility.yul\":9424:9444   */\n      sub\n        /* \"#utility.yul\":9420:9421   */\n      0x00\n        /* \"#utility.yul\":9409:9418   */\n      dup4\n        /* \"#utility.yul\":9405:9422   */\n      add\n        /* \"#utility.yul\":9398:9445   */\n      mstore\n        /* \"#utility.yul\":9462:9593   */\n      tag_310\n        /* \"#utility.yul\":9588:9592   */\n      dup2\n        /* \"#utility.yul\":9462:9593   */\n      tag_251\n      jump\t// in\n    tag_310:\n        /* \"#utility.yul\":9454:9593   */\n      swap1\n      pop\n        /* \"#utility.yul\":9181:9600   */\n      swap2\n      swap1\n      pop\n      jump\t// out\n        /* \"#utility.yul\":9606:10025   */\n    tag_166:\n        /* \"#utility.yul\":9772:9776   */\n      0x00\n        /* \"#utility.yul\":9810:9812   */\n      0x20\n        /* \"#utility.yul\":9799:9808   */\n      dup3\n        /* \"#utility.yul\":9795:9813   */\n      add\n        /* \"#utility.yul\":9787:9813   */\n      swap1\n      pop\n        /* \"#utility.yul\":9859:9868   */\n      dup2\n        /* \"#utility.yul\":9853:9857   */\n      dup2\n        /* \"#utility.yul\":9849:9869   */\n      sub\n        /* \"#utility.yul\":9845:9846   */\n      0x00\n        /* \"#utility.yul\":9834:9843   */\n      dup4\n        /* \"#utility.yul\":9830:9847   */\n      add\n        /* \"#utility.yul\":9823:9870   */\n      mstore\n        /* \"#utility.yul\":9887:10018   */\n      tag_312\n        /* \"#utility.yul\":10013:10017   */\n      dup2\n        /* \"#utility.yul\":9887:10018   */\n      tag_256\n      jump\t// in\n    tag_312:\n        /* \"#utility.yul\":9879:10018   */\n      swap1\n      pop\n        /* \"#utility.yul\":9606:10025   */\n      swap2\n      swap1\n      pop\n      jump\t// out\n        /* \"#utility.yul\":10031:10450   */\n    tag_160:\n        /* \"#utility.yul\":10197:10201   */\n      0x00\n        /* \"#utility.yul\":10235:10237   */\n      0x20\n        /* \"#utility.yul\":10224:10233   */\n      dup3\n        /* \"#utility.yul\":10220:10238   */\n      add\n        /* \"#utility.yul\":10212:10238   */\n      swap1\n      pop\n        /* \"#utility.yul\":10284:10293   */\n      dup2\n        /* \"#utility.yul\":10278:10282   */\n      dup2\n        /* \"#utility.yul\":10274:10294   */\n      sub\n        /* \"#utility.yul\":10270:10271   */\n      0x00\n        /* \"#utility.yul\":10259:10268   */\n      dup4\n        /* \"#utility.yul\":10255:10272   */\n      add\n        /* \"#utility.yul\":10248:10295   */\n      mstore\n        /* \"#utility.yul\":10312:10443   */\n      tag_314\n        /* \"#utility.yul\":10438:10442   */\n      dup2\n        /* \"#utility.yul\":10312:10443   */\n      tag_261\n      jump\t// in\n    tag_314:\n        /* \"#utility.yul\":10304:10443   */\n      swap1\n      pop\n        /* \"#utility.yul\":10031:10450   */\n      swap2\n      swap1\n      pop\n      jump\t// out\n        /* \"#utility.yul\":10456:10875   */\n    tag_155:\n        /* \"#utility.yul\":10622:10626   */\n      0x00\n        /* \"#utility.yul\":10660:10662   */\n      0x20\n        /* \"#utility.yul\":10649:10658   */\n      dup3\n        /* \"#utility.yul\":10645:10663   */\n      add\n        /* \"#utility.yul\":10637:10663   */\n      swap1\n      pop\n        /* \"#utility.yul\":10709:10718   */\n      dup2\n        /* \"#utility.yul\":10703:10707   */\n      dup2\n        /* \"#utility.yul\":10699:10719   */\n      sub\n        /* \"#utility.yul\":10695:10696   */\n      0x00\n        /* \"#utility.yul\":10684:10693   */\n      dup4\n        /* \"#utility.yul\":10680:10697   */\n      add\n        /* \"#utility.yul\":10673:10720   */\n      mstore\n        /* \"#utility.yul\":10737:10868   */\n      tag_316\n        /* \"#utility.yul\":10863:10867   */\n      dup2\n        /* \"#utility.yul\":10737:10868   */\n      tag_266\n      jump\t// in\n    tag_316:\n        /* \"#utility.yul\":10729:10868   */\n      swap1\n      pop\n        /* \"#utility.yul\":10456:10875   */\n      swap2\n      swap1\n      pop\n      jump\t// out\n        /* \"#utility.yul\":10881:11300   */\n    tag_163:\n        /* \"#utility.yul\":11047:11051   */\n      0x00\n        /* \"#utility.yul\":11085:11087   */\n      0x20\n        /* \"#utility.yul\":11074:11083   */\n      dup3\n        /* \"#utility.yul\":11070:11088   */\n      add\n        /* \"#utility.yul\":11062:11088   */\n      swap1\n      pop\n        /* \"#utility.yul\":11134:11143   */\n      dup2\n        /* \"#utility.yul\":11128:11132   */\n      dup2\n        /* \"#utility.yul\":11124:11144   */\n      sub\n        /* \"#utility.yul\":11120:11121   */\n      0x00\n        /* \"#utility.yul\":11109:11118   */\n      dup4\n        /* \"#utility.yul\":11105:11122   */\n      add\n        /* \"#utility.yul\":11098:11145   */\n      mstore\n        /* \"#utility.yul\":11162:11293   */\n      tag_318\n        /* \"#utility.yul\":11288:11292   */\n      dup2\n        /* \"#utility.yul\":11162:11293   */\n      tag_271\n      jump\t// in\n    tag_318:\n        /* \"#utility.yul\":11154:11293   */\n      swap1\n      pop\n        /* \"#utility.yul\":10881:11300   */\n      swap2\n      swap1\n      pop\n      jump\t// out\n        /* \"#utility.yul\":11306:11725   */\n    tag_184:\n        /* \"#utility.yul\":11472:11476   */\n      0x00\n        /* \"#utility.yul\":11510:11512   */\n      0x20\n        /* \"#utility.yul\":11499:11508   */\n      dup3\n        /* \"#utility.yul\":11495:11513   */\n      add\n        /* \"#utility.yul\":11487:11513   */\n      swap1\n      pop\n        /* \"#utility.yul\":11559:11568   */\n      dup2\n        /* \"#utility.yul\":11553:11557   */\n      dup2\n        /* \"#utility.yul\":11549:11569   */\n      sub\n        /* \"#utility.yul\":11545:11546   */\n      0x00\n        /* \"#utility.yul\":11534:11543   */\n      dup4\n        /* \"#utility.yul\":11530:11547   */\n      add\n        /* \"#utility.yul\":11523:11570   */\n      mstore\n        /* \"#utility.yul\":11587:11718   */\n      tag_320\n        /* \"#utility.yul\":11713:11717   */\n      dup2\n        /* \"#utility.yul\":11587:11718   */\n      tag_276\n      jump\t// in\n    tag_320:\n        /* \"#utility.yul\":11579:11718   */\n      swap1\n      pop\n        /* \"#utility.yul\":11306:11725   */\n      swap2\n      swap1\n      pop\n      jump\t// out\n        /* \"#utility.yul\":11731:12150   */\n    tag_148:\n        /* \"#utility.yul\":11897:11901   */\n      0x00\n        /* \"#utility.yul\":11935:11937   */\n      0x20\n        /* \"#utility.yul\":11924:11933   */\n      dup3\n        /* \"#utility.yul\":11920:11938   */\n      add\n        /* \"#utility.yul\":11912:11938   */\n      swap1\n      pop\n        /* \"#utility.yul\":11984:11993   */\n      dup2\n        /* \"#utility.yul\":11978:11982   */\n      dup2\n        /* \"#utility.yul\":11974:11994   */\n      sub\n        /* \"#utility.yul\":11970:11971   */\n      0x00\n        /* \"#utility.yul\":11959:11968   */\n      dup4\n        /* \"#utility.yul\":11955:11972   */\n      add\n        /* \"#utility.yul\":11948:11995   */\n      mstore\n        /* \"#utility.yul\":12012:12143   */\n      tag_322\n        /* \"#utility.yul\":12138:12142   */\n      dup2\n        /* \"#utility.yul\":12012:12143   */\n      tag_281\n      jump\t// in\n    tag_322:\n        /* \"#utility.yul\":12004:12143   */\n      swap1\n      pop\n        /* \"#utility.yul\":11731:12150   */\n      swap2\n      swap1\n      pop\n      jump\t// out\n        /* \"#utility.yul\":12156:12575   */\n    tag_181:\n        /* \"#utility.yul\":12322:12326   */\n      0x00\n        /* \"#utility.yul\":12360:12362   */\n      0x20\n        /* \"#utility.yul\":12349:12358   */\n      dup3\n        /* \"#utility.yul\":12345:12363   */\n      add\n        /* \"#utility.yul\":12337:12363   */\n      swap1\n      pop\n        /* \"#utility.yul\":12409:12418   */\n      dup2\n        /* \"#utility.yul\":12403:12407   */\n      dup2\n        /* \"#utility.yul\":12399:12419   */\n      sub\n        /* \"#utility.yul\":12395:12396   */\n      0x00\n        /* \"#utility.yul\":12384:12393   */\n      dup4\n        /* \"#utility.yul\":12380:12397   */\n      add\n        /* \"#utility.yul\":12373:12420   */\n      mstore\n        /* \"#utility.yul\":12437:12568   */\n      tag_324\n        /* \"#utility.yul\":12563:12567   */\n      dup2\n        /* \"#utility.yul\":12437:12568   */\n      tag_286\n      jump\t// in\n    tag_324:\n        /* \"#utility.yul\":12429:12568   */\n      swap1\n      pop\n        /* \"#utility.yul\":12156:12575   */\n      swap2\n      swap1\n      pop\n      jump\t// out\n        /* \"#utility.yul\":12581:12803   */\n    tag_39:\n        /* \"#utility.yul\":12674:12678   */\n      0x00\n        /* \"#utility.yul\":12712:12714   */\n      0x20\n        /* \"#utility.yul\":12701:12710   */\n      dup3\n        /* \"#utility.yul\":12697:12715   */\n      add\n        /* \"#utility.yul\":12689:12715   */\n      swap1\n      pop\n        /* \"#utility.yul\":12725:12796   */\n      tag_326\n        /* \"#utility.yul\":12793:12794   */\n      0x00\n        /* \"#utility.yul\":12782:12791   */\n      dup4\n        /* \"#utility.yul\":12778:12795   */\n      add\n        /* \"#utility.yul\":12769:12775   */\n      dup5\n        /* \"#utility.yul\":12725:12796   */\n      tag_291\n      jump\t// in\n    tag_326:\n        /* \"#utility.yul\":12581:12803   */\n      swap3\n      swap2\n      pop\n      pop\n      jump\t// out\n        /* \"#utility.yul\":12809:13023   */\n    tag_48:\n        /* \"#utility.yul\":12898:12902   */\n      0x00\n        /* \"#utility.yul\":12936:12938   */\n      0x20\n        /* \"#utility.yul\":12925:12934   */\n      dup3\n        /* \"#utility.yul\":12921:12939   */\n      add\n        /* \"#utility.yul\":12913:12939   */\n      swap1\n      pop\n        /* \"#utility.yul\":12949:13016   */\n      tag_328\n        /* \"#utility.yul\":13013:13014   */\n      0x00\n        /* \"#utility.yul\":13002:13011   */\n      dup4\n        /* \"#utility.yul\":12998:13015   */\n      add\n        /* \"#utility.yul\":12989:12995   */\n      dup5\n        /* \"#utility.yul\":12949:13016   */\n      tag_295\n      jump\t// in\n    tag_328:\n        /* \"#utility.yul\":12809:13023   */\n      swap3\n      swap2\n      pop\n      pop\n      jump\t// out\n        /* \"#utility.yul\":13110:13209   */\n    tag_229:\n        /* \"#utility.yul\":13162:13168   */\n      0x00\n        /* \"#utility.yul\":13196:13201   */\n      dup2\n        /* \"#utility.yul\":13190:13202   */\n      mload\n        /* \"#utility.yul\":13180:13202   */\n      swap1\n      pop\n        /* \"#utility.yul\":13110:13209   */\n      swap2\n      swap1\n      pop\n      jump\t// out\n        /* \"#utility.yul\":13215:13384   */\n    tag_231:\n        /* \"#utility.yul\":13299:13310   */\n      0x00\n        /* \"#utility.yul\":13333:13339   */\n      dup3\n        /* \"#utility.yul\":13328:13331   */\n      dup3\n        /* \"#utility.yul\":13321:13340   */\n      mstore\n        /* \"#utility.yul\":13373:13377   */\n      0x20\n        /* \"#utility.yul\":13368:13371   */\n      dup3\n        /* \"#utility.yul\":13364:13378   */\n      add\n        /* \"#utility.yul\":13349:13378   */\n      swap1\n      pop\n        /* \"#utility.yul\":13215:13384   */\n      swap3\n      swap2\n      pop\n      pop\n      jump\t// out\n        /* \"#utility.yul\":13390:13695   */\n    tag_105:\n        /* \"#utility.yul\":13430:13433   */\n      0x00\n        /* \"#utility.yul\":13449:13469   */\n      tag_334\n        /* \"#utility.yul\":13467:13468   */\n      dup3\n        /* \"#utility.yul\":13449:13469   */\n      tag_294\n      jump\t// in\n    tag_334:\n        /* \"#utility.yul\":13444:13469   */\n      swap2\n      pop\n        /* \"#utility.yul\":13483:13503   */\n      tag_335\n        /* \"#utility.yul\":13501:13502   */\n      dup4\n        /* \"#utility.yul\":13483:13503   */\n      tag_294\n      jump\t// in\n    tag_335:\n        /* \"#utility.yul\":13478:13503   */\n      swap3\n      pop\n        /* \"#utility.yul\":13637:13638   */\n      dup3\n        /* \"#utility.yul\":13569:13635   */\n      0xffffffffffffffffffffffffffffffffffffffffffffffffffffffffffffffff\n        /* \"#utility.yul\":13565:13639   */\n      sub\n        /* \"#utility.yul\":13562:13563   */\n      dup3\n        /* \"#utility.yul\":13559:13640   */\n      gt\n        /* \"#utility.yul\":13556:13663   */\n      iszero\n      tag_336\n      jumpi\n        /* \"#utility.yul\":13643:13661   */\n      tag_337\n      tag_338\n      jump\t// in\n    tag_337:\n        /* \"#utility.yul\":13556:13663   */\n    tag_336:\n        /* \"#utility.yul\":13687:13688   */\n      dup3\n        /* \"#utility.yul\":13684:13685   */\n      dup3\n        /* \"#utility.yul\":13680:13689   */\n      add\n        /* \"#utility.yul\":13673:13689   */\n      swap1\n      pop\n        /* \"#utility.yul\":13390:13695   */\n      swap3\n      swap2\n      pop\n      pop\n      jump\t// out\n        /* \"#utility.yul\":13701:13892   */\n    tag_138:\n        /* \"#utility.yul\":13741:13745   */\n      0x00\n        /* \"#utility.yul\":13761:13781   */\n      tag_340\n        /* \"#utility.yul\":13779:13780   */\n      dup3\n        /* \"#utility.yul\":13761:13781   */\n      tag_294\n      jump\t// in\n    tag_340:\n        /* \"#utility.yul\":13756:13781   */\n      swap2\n      pop\n        /* \"#utility.yul\":13795:13815   */\n      tag_341\n        /* \"#utility.yul\":13813:13814   */\n      dup4\n        /* \"#utility.yul\":13795:13815   */\n      tag_294\n      jump\t// in\n    tag_341:\n        /* \"#utility.yul\":13790:13815   */\n      swap3\n      pop\n        /* \"#utility.yul\":13834:13835   */\n      dup3\n        /* \"#utility.yul\":13831:13832   */\n      dup3\n        /* \"#utility.yul\":13828:13836   */\n      lt\n        /* \"#utility.yul\":13825:13859   */\n      iszero\n      tag_342\n      jumpi\n        /* \"#utility.yul\":13839:13857   */\n      tag_343\n      tag_338\n      jump\t// in\n    tag_343:\n        /* \"#utility.yul\":13825:13859   */\n    tag_342:\n        /* \"#utility.yul\":13884:13885   */\n      dup3\n        /* \"#utility.yul\":13881:13882   */\n      dup3\n        /* \"#utility.yul\":13877:13886   */\n      sub\n        /* \"#utility.yul\":13869:13886   */\n      swap1\n      pop\n        /* \"#utility.yul\":13701:13892   */\n      swap3\n      swap2\n      pop\n      pop\n      jump\t// out\n        /* \"#utility.yul\":13898:13994   */\n    tag_344:\n        /* \"#utility.yul\":13935:13942   */\n      0x00\n        /* \"#utility.yul\":13964:13988   */\n      tag_346\n        /* \"#utility.yul\":13982:13987   */\n      dup3\n        /* \"#utility.yul\":13964:13988   */\n      tag_347\n      jump\t// in\n    tag_346:\n        /* \"#utility.yul\":13953:13988   */\n      swap1\n      pop\n        /* \"#utility.yul\":13898:13994   */\n      swap2\n      swap1\n      pop\n      jump\t// out\n        /* \"#utility.yul\":14000:14090   */\n    tag_225:\n        /* \"#utility.yul\":14034:14041   */\n      0x00\n        /* \"#utility.yul\":14077:14082   */\n      dup2\n        /* \"#utility.yul\":14070:14083   */\n      iszero\n        /* \"#utility.yul\":14063:14084   */\n      iszero\n        /* \"#utility.yul\":14052:14084   */\n      swap1\n      pop\n        /* \"#utility.yul\":14000:14090   */\n      swap2\n      swap1\n      pop\n      jump\t// out\n        /* \"#utility.yul\":14096:14222   */\n    tag_347:\n        /* \"#utility.yul\":14133:14140   */\n      0x00\n        /* \"#utility.yul\":14173:14215   */\n      0xffffffffffffffffffffffffffffffffffffffff\n        /* \"#utility.yul\":14166:14171   */\n      dup3\n        /* \"#utility.yul\":14162:14216   */\n      and\n        /* \"#utility.yul\":14151:14216   */\n      swap1\n      pop\n        /* \"#utility.yul\":14096:14222   */\n      swap2\n      swap1\n      pop\n      jump\t// out\n        /* \"#utility.yul\":14228:14305   */\n    tag_294:\n        /* \"#utility.yul\":14265:14272   */\n      0x00\n        /* \"#utility.yul\":14294:14299   */\n      dup2\n        /* \"#utility.yul\":14283:14299   */\n      swap1\n      pop\n        /* \"#utility.yul\":14228:14305   */\n      swap2\n      swap1\n      pop\n      jump\t// out\n        /* \"#utility.yul\":14311:14397   */\n    tag_298:\n        /* \"#utility.yul\":14346:14353   */\n      0x00\n        /* \"#utility.yul\":14386:14390   */\n      0xff\n        /* \"#utility.yul\":14379:14384   */\n      dup3\n        /* \"#utility.yul\":14375:14391   */\n      and\n        /* \"#utility.yul\":14364:14391   */\n      swap1\n      pop\n        /* \"#utility.yul\":14311:14397   */\n      swap2\n      swap1\n      pop\n      jump\t// out\n        /* \"#utility.yul\":14403:14710   */\n    tag_233:\n        /* \"#utility.yul\":14471:14472   */\n      0x00\n        /* \"#utility.yul\":14481:14594   */\n    tag_353:\n        /* \"#utility.yul\":14495:14501   */\n      dup4\n        /* \"#utility.yul\":14492:14493   */\n      dup2\n        /* \"#utility.yul\":14489:14502   */\n      lt\n        /* \"#utility.yul\":14481:14594   */\n      iszero\n      tag_355\n      jumpi\n        /* \"#utility.yul\":14580:14581   */\n      dup1\n        /* \"#utility.yul\":14575:14578   */\n      dup3\n        /* \"#utility.yul\":14571:14582   */\n      add\n        /* \"#utility.yul\":14565:14583   */\n      mload\n        /* \"#utility.yul\":14561:14562   */\n      dup2\n        /* \"#utility.yul\":14556:14559   */\n      dup5\n        /* \"#utility.yul\":14552:14563   */\n      add\n        /* \"#utility.yul\":14545:14584   */\n      mstore\n        /* \"#utility.yul\":14517:14519   */\n      0x20\n        /* \"#utility.yul\":14514:14515   */\n      dup2\n        /* \"#utility.yul\":14510:14520   */\n      add\n        /* \"#utility.yul\":14505:14520   */\n      swap1\n      pop\n        /* \"#utility.yul\":14481:14594   */\n      jump(tag_353)\n    tag_355:\n        /* \"#utility.yul\":14612:14618   */\n      dup4\n        /* \"#utility.yul\":14609:14610   */\n      dup2\n        /* \"#utility.yul\":14606:14619   */\n      gt\n        /* \"#utility.yul\":14603:14704   */\n      iszero\n      tag_356\n      jumpi\n        /* \"#utility.yul\":14692:14693   */\n      0x00\n        /* \"#utility.yul\":14683:14689   */\n      dup5\n        /* \"#utility.yul\":14678:14681   */\n      dup5\n        /* \"#utility.yul\":14674:14690   */\n      add\n        /* \"#utility.yul\":14667:14694   */\n      mstore\n        /* \"#utility.yul\":14603:14704   */\n    tag_356:\n        /* \"#utility.yul\":14452:14710   */\n      pop\n        /* \"#utility.yul\":14403:14710   */\n      pop\n      pop\n      pop\n      jump\t// out\n        /* \"#utility.yul\":14716:15036   */\n    tag_85:\n        /* \"#utility.yul\":14760:14766   */\n      0x00\n        /* \"#utility.yul\":14797:14798   */\n      0x02\n        /* \"#utility.yul\":14791:14795   */\n      dup3\n        /* \"#utility.yul\":14787:14799   */\n      div\n        /* \"#utility.yul\":14777:14799   */\n      swap1\n      pop\n        /* \"#utility.yul\":14844:14845   */\n      0x01\n        /* \"#utility.yul\":14838:14842   */\n      dup3\n        /* \"#utility.yul\":14834:14846   */\n      and\n        /* \"#utility.yul\":14865:14883   */\n      dup1\n        /* \"#utility.yul\":14855:14936   */\n      tag_358\n      jumpi\n        /* \"#utility.yul\":14921:14925   */\n      0x7f\n        /* \"#utility.yul\":14913:14919   */\n      dup3\n        /* \"#utility.yul\":14909:14926   */\n      and\n        /* \"#utility.yul\":14899:14926   */\n      swap2\n      pop\n        /* \"#utility.yul\":14855:14936   */\n    tag_358:\n        /* \"#utility.yul\":14983:14985   */\n      0x20\n        /* \"#utility.yul\":14975:14981   */\n      dup3\n        /* \"#utility.yul\":14972:14986   */\n      lt\n        /* \"#utility.yul\":14952:14970   */\n      dup2\n        /* \"#utility.yul\":14949:14987   */\n      eq\n        /* \"#utility.yul\":14946:15030   */\n      iszero\n      tag_359\n      jumpi\n        /* \"#utility.yul\":15002:15020   */\n      tag_360\n      tag_361\n      jump\t// in\n    tag_360:\n        /* \"#utility.yul\":14946:15030   */\n    tag_359:\n        /* \"#utility.yul\":14767:15036   */\n      pop\n        /* \"#utility.yul\":14716:15036   */\n      swap2\n      swap1\n      pop\n      jump\t// out\n        /* \"#utility.yul\":15042:15222   */\n    tag_338:\n        /* \"#utility.yul\":15090:15167   */\n      0x4e487b7100000000000000000000000000000000000000000000000000000000\n        /* \"#utility.yul\":15087:15088   */\n      0x00\n        /* \"#utility.yul\":15080:15168   */\n      mstore\n        /* \"#utility.yul\":15187:15191   */\n      0x11\n        /* \"#utility.yul\":15184:15185   */\n      0x04\n        /* \"#utility.yul\":15177:15192   */\n      mstore\n        /* \"#utility.yul\":15211:15215   */\n      0x24\n        /* \"#utility.yul\":15208:15209   */\n      0x00\n        /* \"#utility.yul\":15201:15216   */\n      revert\n        /* \"#utility.yul\":15228:15408   */\n    tag_361:\n        /* \"#utility.yul\":15276:15353   */\n      0x4e487b7100000000000000000000000000000000000000000000000000000000\n        /* \"#utility.yul\":15273:15274   */\n      0x00\n        /* \"#utility.yul\":15266:15354   */\n      mstore\n        /* \"#utility.yul\":15373:15377   */\n      0x22\n        /* \"#utility.yul\":15370:15371   */\n      0x04\n        /* \"#utility.yul\":15363:15378   */\n      mstore\n        /* \"#utility.yul\":15397:15401   */\n      0x24\n        /* \"#utility.yul\":15394:15395   */\n      0x00\n        /* \"#utility.yul\":15387:15402   */\n      revert\n        /* \"#utility.yul\":15537:15654   */\n    tag_200:\n        /* \"#utility.yul\":15646:15647   */\n      0x00\n        /* \"#utility.yul\":15643:15644   */\n      dup1\n        /* \"#utility.yul\":15636:15648   */\n      revert\n        /* \"#utility.yul\":15660:15762   */\n    tag_235:\n        /* \"#utility.yul\":15701:15707   */\n      0x00\n        /* \"#utility.yul\":15752:15754   */\n      0x1f\n        /* \"#utility.yul\":15748:15755   */\n      not\n        /* \"#utility.yul\":15743:15745   */\n      0x1f\n        /* \"#utility.yul\":15736:15741   */\n      dup4\n        /* \"#utility.yul\":15732:15746   */\n      add\n        /* \"#utility.yul\":15728:15756   */\n      and\n        /* \"#utility.yul\":15718:15756   */\n      swap1\n      pop\n        /* \"#utility.yul\":15660:15762   */\n      swap2\n      swap1\n      pop\n      jump\t// out\n        /* \"#utility.yul\":15768:15949   */\n    tag_240:\n        /* \"#utility.yul\":15908:15941   */\n      0x43616e6e6f74206d696e7420746f20746865207a65726f206164647265737300\n        /* \"#utility.yul\":15904:15905   */\n      0x00\n        /* \"#utility.yul\":15896:15902   */\n      dup3\n        /* \"#utility.yul\":15892:15906   */\n      add\n        /* \"#utility.yul\":15885:15942   */\n      mstore\n        /* \"#utility.yul\":15768:15949   */\n      pop\n      jump\t// out\n        /* \"#utility.yul\":15955:16181   */\n    tag_245:\n        /* \"#utility.yul\":16095:16129   */\n      0x726571756573746572206d7573742068617665206d696e74657220726f6c6520\n        /* \"#utility.yul\":16091:16092   */\n      0x00\n        /* \"#utility.yul\":16083:16089   */\n      dup3\n        /* \"#utility.yul\":16079:16093   */\n      add\n        /* \"#utility.yul\":16072:16130   */\n      mstore\n        /* \"#utility.yul\":16164:16173   */\n      0x746f206d696e7400000000000000000000000000000000000000000000000000\n        /* \"#utility.yul\":16159:16161   */\n      0x20\n        /* \"#utility.yul\":16151:16157   */\n      dup3\n        /* \"#utility.yul\":16147:16162   */\n      add\n        /* \"#utility.yul\":16140:16174   */\n      mstore\n        /* \"#utility.yul\":15955:16181   */\n      pop\n      jump\t// out\n        /* \"#utility.yul\":16187:16411   */\n    tag_250:\n        /* \"#utility.yul\":16327:16361   */\n      0x43616e6e6f7420646563726561736520746f206e6567617469766520616c6c6f\n        /* \"#utility.yul\":16323:16324   */\n      0x00\n        /* \"#utility.yul\":16315:16321   */\n      dup3\n        /* \"#utility.yul\":16311:16325   */\n      add\n        /* \"#utility.yul\":16304:16362   */\n      mstore\n        /* \"#utility.yul\":16396:16403   */\n      0x77616e6365000000000000000000000000000000000000000000000000000000\n        /* \"#utility.yul\":16391:16393   */\n      0x20\n        /* \"#utility.yul\":16383:16389   */\n      dup3\n        /* \"#utility.yul\":16379:16394   */\n      add\n        /* \"#utility.yul\":16372:16404   */\n      mstore\n        /* \"#utility.yul\":16187:16411   */\n      pop\n      jump\t// out\n        /* \"#utility.yul\":16417:16593   */\n    tag_255:\n        /* \"#utility.yul\":16557:16585   */\n      0x417070726f76616c2066726f6d207a65726f2061646472657373000000000000\n        /* \"#utility.yul\":16553:16554   */\n      0x00\n        /* \"#utility.yul\":16545:16551   */\n      dup3\n        /* \"#utility.yul\":16541:16555   */\n      add\n        /* \"#utility.yul\":16534:16586   */\n      mstore\n        /* \"#utility.yul\":16417:16593   */\n      pop\n      jump\t// out\n        /* \"#utility.yul\":16599:16819   */\n    tag_260:\n        /* \"#utility.yul\":16739:16773   */\n      0x496e73756666696369656e742062616c616e636520666f72207472616e736665\n        /* \"#utility.yul\":16735:16736   */\n      0x00\n        /* \"#utility.yul\":16727:16733   */\n      dup3\n        /* \"#utility.yul\":16723:16737   */\n      add\n        /* \"#utility.yul\":16716:16774   */\n      mstore\n        /* \"#utility.yul\":16808:16811   */\n      0x7200000000000000000000000000000000000000000000000000000000000000\n        /* \"#utility.yul\":16803:16805   */\n      0x20\n        /* \"#utility.yul\":16795:16801   */\n      dup3\n        /* \"#utility.yul\":16791:16806   */\n      add\n        /* \"#utility.yul\":16784:16812   */\n      mstore\n        /* \"#utility.yul\":16599:16819   */\n      pop\n      jump\t// out\n        /* \"#utility.yul\":16825:17001   */\n    tag_265:\n        /* \"#utility.yul\":16965:16993   */\n      0x5472616e736665722066726f6d207a65726f2061646472657373000000000000\n        /* \"#utility.yul\":16961:16962   */\n      0x00\n        /* \"#utility.yul\":16953:16959   */\n      dup3\n        /* \"#utility.yul\":16949:16963   */\n      add\n        /* \"#utility.yul\":16942:16994   */\n      mstore\n        /* \"#utility.yul\":16825:17001   */\n      pop\n      jump\t// out\n        /* \"#utility.yul\":17007:17187   */\n    tag_270:\n        /* \"#utility.yul\":17147:17179   */\n      0x43757272656e7420616c6c6f77616e636520696e73756666696369656e740000\n        /* \"#utility.yul\":17143:17144   */\n      0x00\n        /* \"#utility.yul\":17135:17141   */\n      dup3\n        /* \"#utility.yul\":17131:17145   */\n      add\n        /* \"#utility.yul\":17124:17180   */\n      mstore\n        /* \"#utility.yul\":17007:17187   */\n      pop\n      jump\t// out\n        /* \"#utility.yul\":17193:17367   */\n    tag_275:\n        /* \"#utility.yul\":17333:17359   */\n      0x5472616e7366657220746f207a65726f20616464726573730000000000000000\n        /* \"#utility.yul\":17329:17330   */\n      0x00\n        /* \"#utility.yul\":17321:17327   */\n      dup3\n        /* \"#utility.yul\":17317:17331   */\n      add\n        /* \"#utility.yul\":17310:17360   */\n      mstore\n        /* \"#utility.yul\":17193:17367   */\n      pop\n      jump\t// out\n        /* \"#utility.yul\":17373:17551   */\n    tag_280:\n        /* \"#utility.yul\":17513:17543   */\n      0x496e73756666696369656e742062616c616e636520746f206275726e00000000\n        /* \"#utility.yul\":17509:17510   */\n      0x00\n        /* \"#utility.yul\":17501:17507   */\n      dup3\n        /* \"#utility.yul\":17497:17511   */\n      add\n        /* \"#utility.yul\":17490:17544   */\n      mstore\n        /* \"#utility.yul\":17373:17551   */\n      pop\n      jump\t// out\n        /* \"#utility.yul\":17557:17731   */\n    tag_285:\n        /* \"#utility.yul\":17697:17723   */\n      0x417070726f76616c20746f207a65726f20616464726573730000000000000000\n        /* \"#utility.yul\":17693:17694   */\n      0x00\n        /* \"#utility.yul\":17685:17691   */\n      dup3\n        /* \"#utility.yul\":17681:17695   */\n      add\n        /* \"#utility.yul\":17674:17724   */\n      mstore\n        /* \"#utility.yul\":17557:17731   */\n      pop\n      jump\t// out\n        /* \"#utility.yul\":17737:17957   */\n    tag_290:\n        /* \"#utility.yul\":17877:17911   */\n      0x43616e6e6f74206275726e2066726f6d20746865207a65726f20616464726573\n        /* \"#utility.yul\":17873:17874   */\n      0x00\n        /* \"#utility.yul\":17865:17871   */\n      dup3\n        /* \"#utility.yul\":17861:17875   */\n      add\n        /* \"#utility.yul\":17854:17912   */\n      mstore\n        /* \"#utility.yul\":17946:17949   */\n      0x7300000000000000000000000000000000000000000000000000000000000000\n        /* \"#utility.yul\":17941:17943   */\n      0x20\n        /* \"#utility.yul\":17933:17939   */\n      dup3\n        /* \"#utility.yul\":17929:17944   */\n      add\n        /* \"#utility.yul\":17922:17950   */\n      mstore\n        /* \"#utility.yul\":17737:17957   */\n      pop\n      jump\t// out\n        /* \"#utility.yul\":17963:18085   */\n    tag_192:\n        /* \"#utility.yul\":18036:18060   */\n      tag_380\n        /* \"#utility.yul\":18054:18059   */\n      dup2\n        /* \"#utility.yul\":18036:18060   */\n      tag_344\n      jump\t// in\n    tag_380:\n        /* \"#utility.yul\":18029:18034   */\n      dup2\n        /* \"#utility.yul\":18026:18061   */\n      eq\n        /* \"#utility.yul\":18016:18079   */\n      tag_381\n      jumpi\n        /* \"#utility.yul\":18075:18076   */\n      0x00\n        /* \"#utility.yul\":18072:18073   */\n      dup1\n        /* \"#utility.yul\":18065:18077   */\n      revert\n        /* \"#utility.yul\":18016:18079   */\n    tag_381:\n        /* \"#utility.yul\":17963:18085   */\n      pop\n      jump\t// out\n        /* \"#utility.yul\":18091:18213   */\n    tag_196:\n        /* \"#utility.yul\":18164:18188   */\n      tag_383\n        /* \"#utility.yul\":18182:18187   */\n      dup2\n        /* \"#utility.yul\":18164:18188   */\n      tag_294\n      jump\t// in\n    tag_383:\n        /* \"#utility.yul\":18157:18162   */\n      dup2\n        /* \"#utility.yul\":18154:18189   */\n      eq\n        /* \"#utility.yul\":18144:18207   */\n      tag_384\n      jumpi\n        /* \"#utility.yul\":18203:18204   */\n      0x00\n        /* \"#utility.yul\":18200:18201   */\n      dup1\n        /* \"#utility.yul\":18193:18205   */\n      revert\n        /* \"#utility.yul\":18144:18207   */\n    tag_384:\n        /* \"#utility.yul\":18091:18213   */\n      pop\n      jump\t// out\n\n    auxdata: 0xa2646970667358221220006a1e7f7fa55b92fb1d4f70c3db3b4cdb6c2e5c3cc4b162aa1a9cb4f713b26364736f6c63430008070033\n}\n",
				"bytecode": {
					"linkReferences": {},
					"object": "60806040523480156200001157600080fd5b5060405162001cda38038062001cda833981810160405281019062000037919062000212565b8181816003908051906020019062000051929190620000e4565b5080600490805190602001906200006a929190620000e4565b50505060016005600062000083620000dc60201b60201c565b73ffffffffffffffffffffffffffffffffffffffff1673ffffffffffffffffffffffffffffffffffffffff16815260200190815260200160002060006101000a81548160ff02191690831515021790555050506200041b565b600033905090565b828054620000f2906200032c565b90600052602060002090601f01602090048101928262000116576000855562000162565b82601f106200013157805160ff191683800117855562000162565b8280016001018555821562000162579182015b828111156200016157825182559160200191906001019062000144565b5b50905062000171919062000175565b5090565b5b808211156200019057600081600090555060010162000176565b5090565b6000620001ab620001a584620002c0565b62000297565b905082815260208101848484011115620001ca57620001c9620003fb565b5b620001d7848285620002f6565b509392505050565b600082601f830112620001f757620001f6620003f6565b5b81516200020984826020860162000194565b91505092915050565b600080604083850312156200022c576200022b62000405565b5b600083015167ffffffffffffffff8111156200024d576200024c62000400565b5b6200025b85828601620001df565b925050602083015167ffffffffffffffff8111156200027f576200027e62000400565b5b6200028d85828601620001df565b9150509250929050565b6000620002a3620002b6565b9050620002b1828262000362565b919050565b6000604051905090565b600067ffffffffffffffff821115620002de57620002dd620003c7565b5b620002e9826200040a565b9050602081019050919050565b60005b8381101562000316578082015181840152602081019050620002f9565b8381111562000326576000848401525b50505050565b600060028204905060018216806200034557607f821691505b602082108114156200035c576200035b62000398565b5b50919050565b6200036d826200040a565b810181811067ffffffffffffffff821117156200038f576200038e620003c7565b5b80604052505050565b7f4e487b7100000000000000000000000000000000000000000000000000000000600052602260045260246000fd5b7f4e487b7100000000000000000000000000000000000000000000000000000000600052604160045260246000fd5b600080fd5b600080fd5b600080fd5b600080fd5b6000601f19601f8301169050919050565b6118af806200042b6000396000f3fe608060405234801561001057600080fd5b50600436106100f55760003560e01c806340c10f191161009757806395d89b411161006657806395d89b4114610298578063a457c2d7146102b6578063a9059cbb146102e6578063dd62ed3e14610316576100f5565b806340c10f191461021457806342966c681461023057806370a082311461024c57806379cc67901461027c576100f5565b806318160ddd116100d357806318160ddd1461017857806323b872dd14610196578063313ce567146101c657806339509351146101e4576100f5565b806306fdde03146100fa578063095ea7b314610118578063099db01714610148575b600080fd5b610102610346565b60405161010f9190611264565b60405180910390f35b610132600480360381019061012d9190610ff5565b6103d8565b60405161013f9190611249565b60405180910390f35b610162600480360381019061015d9190610f35565b6103ef565b60405161016f9190611249565b60405180910390f35b610180610445565b60405161018d91906113e6565b60405180910390f35b6101b060048036038101906101ab9190610fa2565b61044f565b6040516101bd9190611249565b60405180910390f35b6101ce610472565b6040516101db9190611401565b60405180910390f35b6101fe60048036038101906101f99190610ff5565b61047b565b60405161020b9190611249565b60405180910390f35b61022e60048036038101906102299190610ff5565b6104a6565b005b61024a60048036038101906102459190611035565b610503565b005b61026660048036038101906102619190610f35565b610517565b60405161027391906113e6565b60405180910390f35b61029660048036038101906102919190610ff5565b61055f565b005b6102a061057f565b6040516102ad9190611264565b60405180910390f35b6102d060048036038101906102cb9190610ff5565b610611565b6040516102dd9190611249565b60405180910390f35b61030060048036038101906102fb9190610ff5565b610688565b60405161030d9190611249565b60405180910390f35b610330600480360381019061032b9190610f62565b61069f565b60405161033d91906113e6565b60405180910390f35b6060600380546103559061154a565b80601f01602080910402602001604051908101604052809291908181526020018280546103819061154a565b80156103ce5780601f106103a3576101008083540402835291602001916103ce565b820191906000526020600020905b8154815290600101906020018083116103b157829003601f168201915b5050505050905090565b60006103e5338484610726565b6001905092915050565b6000600560008373ffffffffffffffffffffffffffffffffffffffff1673ffffffffffffffffffffffffffffffffffffffff16815260200190815260200160002060009054906101000a900460ff169050919050565b6000600254905090565b600061045c8433846108f1565b61046784848461097d565b600190509392505050565b60006012905090565b600061049c33848461048d338861069f565b6104979190611438565b610726565b6001905092915050565b6104b66104b1610bf2565b6103ef565b6104f5576040517f08c379a00000000000000000000000000000000000000000000000000000000081526004016104ec906112a6565b60405180910390fd5b6104ff8282610bfa565b5050565b61051461050e610bf2565b82610d42565b50565b60008060008373ffffffffffffffffffffffffffffffffffffffff1673ffffffffffffffffffffffffffffffffffffffff168152602001908152602001600020549050919050565b6105718261056b610bf2565b836108f1565b61057b8282610d42565b5050565b60606004805461058e9061154a565b80601f01602080910402602001604051908101604052809291908181526020018280546105ba9061154a565b80156106075780601f106105dc57610100808354040283529160200191610607565b820191906000526020600020905b8154815290600101906020018083116105ea57829003601f168201915b5050505050905090565b60008161061e338561069f565b101561065f576040517f08c379a0000000000000000000000000000000000000000000000000000000008152600401610656906112c6565b60405180910390fd5b61067e33848461066f338861069f565b610679919061148e565b610726565b6001905092915050565b600061069533848461097d565b6001905092915050565b6000600160008473ffffffffffffffffffffffffffffffffffffffff1673ffffffffffffffffffffffffffffffffffffffff16815260200190815260200160002060008373ffffffffffffffffffffffffffffffffffffffff1673ffffffffffffffffffffffffffffffffffffffff16815260200190815260200160002054905092915050565b600073ffffffffffffffffffffffffffffffffffffffff168373ffffffffffffffffffffffffffffffffffffffff161415610796576040517f08c379a000000000000000000000000000000000000000000000000000000000815260040161078d906112e6565b60405180910390fd5b600073ffffffffffffffffffffffffffffffffffffffff168273ffffffffffffffffffffffffffffffffffffffff161415610806576040517f08c379a00000000000000000000000000000000000000000000000000000000081526004016107fd906113a6565b60405180910390fd5b80600160008573ffffffffffffffffffffffffffffffffffffffff1673ffffffffffffffffffffffffffffffffffffffff16815260200190815260200160002060008473ffffffffffffffffffffffffffffffffffffffff1673ffffffffffffffffffffffffffffffffffffffff168152602001908152602001600020819055508173ffffffffffffffffffffffffffffffffffffffff168373ffffffffffffffffffffffffffffffffffffffff167f8c5be1e5ebec7d5bd14f71427d1e84f3dd0314c0f7b2291e5b200ac8c7c3b925836040516108e491906113e6565b60405180910390a3505050565b60006108fd848461069f565b90507fffffffffffffffffffffffffffffffffffffffffffffffffffffffffffffffff81146109775781811015610969576040517f08c379a000000000000000000000000000000000000000000000000000000000815260040161096090611346565b60405180910390fd5b6109768484848403610726565b5b50505050565b600073ffffffffffffffffffffffffffffffffffffffff168373ffffffffffffffffffffffffffffffffffffffff1614156109ed576040517f08c379a00000000000000000000000000000000000000000000000000000000081526004016109e490611326565b60405180910390fd5b600073ffffffffffffffffffffffffffffffffffffffff168273ffffffffffffffffffffffffffffffffffffffff161415610a5d576040517f08c379a0000000000000000000000000000000000000000000000000000000008152600401610a5490611366565b60405180910390fd5b806000808573ffffffffffffffffffffffffffffffffffffffff1673ffffffffffffffffffffffffffffffffffffffff168152602001908152602001600020541015610ade576040517f08c379a0000000000000000000000000000000000000000000000000000000008152600401610ad590611306565b60405180910390fd5b806000808573ffffffffffffffffffffffffffffffffffffffff1673ffffffffffffffffffffffffffffffffffffffff1681526020019081526020016000206000828254610b2c919061148e565b92505081905550806000808473ffffffffffffffffffffffffffffffffffffffff1673ffffffffffffffffffffffffffffffffffffffff1681526020019081526020016000206000828254610b819190611438565b925050819055508173ffffffffffffffffffffffffffffffffffffffff168373ffffffffffffffffffffffffffffffffffffffff167fddf252ad1be2c89b69c2b068fc378daa952ba7f163c4a11628f55a4df523b3ef83604051610be591906113e6565b60405180910390a3505050565b600033905090565b600073ffffffffffffffffffffffffffffffffffffffff168273ffffffffffffffffffffffffffffffffffffffff161415610c6a576040517f08c379a0000000000000000000000000000000000000000000000000000000008152600401610c6190611286565b60405180910390fd5b8060026000828254610c7c9190611438565b92505081905550806000808473ffffffffffffffffffffffffffffffffffffffff1673ffffffffffffffffffffffffffffffffffffffff1681526020019081526020016000206000828254610cd19190611438565b925050819055508173ffffffffffffffffffffffffffffffffffffffff16600073ffffffffffffffffffffffffffffffffffffffff167fddf252ad1be2c89b69c2b068fc378daa952ba7f163c4a11628f55a4df523b3ef83604051610d3691906113e6565b60405180910390a35050565b600073ffffffffffffffffffffffffffffffffffffffff168273ffffffffffffffffffffffffffffffffffffffff161415610db2576040517f08c379a0000000000000000000000000000000000000000000000000000000008152600401610da9906113c6565b60405180910390fd5b806000808473ffffffffffffffffffffffffffffffffffffffff1673ffffffffffffffffffffffffffffffffffffffff168152602001908152602001600020541015610e33576040517f08c379a0000000000000000000000000000000000000000000000000000000008152600401610e2a90611386565b60405180910390fd5b8060026000828254610e45919061148e565b92505081905550806000808473ffffffffffffffffffffffffffffffffffffffff1673ffffffffffffffffffffffffffffffffffffffff1681526020019081526020016000206000828254610e9a919061148e565b92505081905550600073ffffffffffffffffffffffffffffffffffffffff168273ffffffffffffffffffffffffffffffffffffffff167fddf252ad1be2c89b69c2b068fc378daa952ba7f163c4a11628f55a4df523b3ef83604051610eff91906113e6565b60405180910390a35050565b600081359050610f1a8161184b565b92915050565b600081359050610f2f81611862565b92915050565b600060208284031215610f4b57610f4a6115da565b5b6000610f5984828501610f0b565b91505092915050565b60008060408385031215610f7957610f786115da565b5b6000610f8785828601610f0b565b9250506020610f9885828601610f0b565b9150509250929050565b600080600060608486031215610fbb57610fba6115da565b5b6000610fc986828701610f0b565b9350506020610fda86828701610f0b565b9250506040610feb86828701610f20565b9150509250925092565b6000806040838503121561100c5761100b6115da565b5b600061101a85828601610f0b565b925050602061102b85828601610f20565b9150509250929050565b60006020828403121561104b5761104a6115da565b5b600061105984828501610f20565b91505092915050565b61106b816114d4565b82525050565b600061107c8261141c565b6110868185611427565b9350611096818560208601611517565b61109f816115df565b840191505092915050565b60006110b7601f83611427565b91506110c2826115f0565b602082019050919050565b60006110da602783611427565b91506110e582611619565b604082019050919050565b60006110fd602583611427565b915061110882611668565b604082019050919050565b6000611120601a83611427565b915061112b826116b7565b602082019050919050565b6000611143602183611427565b915061114e826116e0565b604082019050919050565b6000611166601a83611427565b91506111718261172f565b602082019050919050565b6000611189601e83611427565b915061119482611758565b602082019050919050565b60006111ac601883611427565b91506111b782611781565b602082019050919050565b60006111cf601c83611427565b91506111da826117aa565b602082019050919050565b60006111f2601883611427565b91506111fd826117d3565b602082019050919050565b6000611215602183611427565b9150611220826117fc565b604082019050919050565b61123481611500565b82525050565b6112438161150a565b82525050565b600060208201905061125e6000830184611062565b92915050565b6000602082019050818103600083015261127e8184611071565b905092915050565b6000602082019050818103600083015261129f816110aa565b9050919050565b600060208201905081810360008301526112bf816110cd565b9050919050565b600060208201905081810360008301526112df816110f0565b9050919050565b600060208201905081810360008301526112ff81611113565b9050919050565b6000602082019050818103600083015261131f81611136565b9050919050565b6000602082019050818103600083015261133f81611159565b9050919050565b6000602082019050818103600083015261135f8161117c565b9050919050565b6000602082019050818103600083015261137f8161119f565b9050919050565b6000602082019050818103600083015261139f816111c2565b9050919050565b600060208201905081810360008301526113bf816111e5565b9050919050565b600060208201905081810360008301526113df81611208565b9050919050565b60006020820190506113fb600083018461122b565b92915050565b6000602082019050611416600083018461123a565b92915050565b600081519050919050565b600082825260208201905092915050565b600061144382611500565b915061144e83611500565b9250827fffffffffffffffffffffffffffffffffffffffffffffffffffffffffffffffff038211156114835761148261157c565b5b828201905092915050565b600061149982611500565b91506114a483611500565b9250828210156114b7576114b661157c565b5b828203905092915050565b60006114cd826114e0565b9050919050565b60008115159050919050565b600073ffffffffffffffffffffffffffffffffffffffff82169050919050565b6000819050919050565b600060ff82169050919050565b60005b8381101561153557808201518184015260208101905061151a565b83811115611544576000848401525b50505050565b6000600282049050600182168061156257607f821691505b60208210811415611576576115756115ab565b5b50919050565b7f4e487b7100000000000000000000000000000000000000000000000000000000600052601160045260246000fd5b7f4e487b7100000000000000000000000000000000000000000000000000000000600052602260045260246000fd5b600080fd5b6000601f19601f8301169050919050565b7f43616e6e6f74206d696e7420746f20746865207a65726f206164647265737300600082015250565b7f726571756573746572206d7573742068617665206d696e74657220726f6c652060008201527f746f206d696e7400000000000000000000000000000000000000000000000000602082015250565b7f43616e6e6f7420646563726561736520746f206e6567617469766520616c6c6f60008201527f77616e6365000000000000000000000000000000000000000000000000000000602082015250565b7f417070726f76616c2066726f6d207a65726f2061646472657373000000000000600082015250565b7f496e73756666696369656e742062616c616e636520666f72207472616e73666560008201527f7200000000000000000000000000000000000000000000000000000000000000602082015250565b7f5472616e736665722066726f6d207a65726f2061646472657373000000000000600082015250565b7f43757272656e7420616c6c6f77616e636520696e73756666696369656e740000600082015250565b7f5472616e7366657220746f207a65726f20616464726573730000000000000000600082015250565b7f496e73756666696369656e742062616c616e636520746f206275726e00000000600082015250565b7f417070726f76616c20746f207a65726f20616464726573730000000000000000600082015250565b7f43616e6e6f74206275726e2066726f6d20746865207a65726f2061646472657360008201527f7300000000000000000000000000000000000000000000000000000000000000602082015250565b611854816114c2565b811461185f57600080fd5b50565b61186b81611500565b811461187657600080fd5b5056fea2646970667358221220006a1e7f7fa55b92fb1d4f70c3db3b4cdb6c2e5c3cc4b162aa1a9cb4f713b26364736f6c63430008070033",
					"opcodes": "PUSH1 0x80 PUSH1 0x40 MSTORE CALLVALUE DUP1 ISZERO PUSH3 0x11 JUMPI PUSH1 0x0 DUP1 REVERT JUMPDEST POP PUSH1 0x40 MLOAD PUSH3 0x1CDA CODESIZE SUB DUP1 PUSH3 0x1CDA DUP4 CODECOPY DUP2 DUP2 ADD PUSH1 0x40 MSTORE DUP2 ADD SWAP1 PUSH3 0x37 SWAP2 SWAP1 PUSH3 0x212 JUMP JUMPDEST DUP2 DUP2 DUP2 PUSH1 0x3 SWAP1 DUP1 MLOAD SWAP1 PUSH1 0x20 ADD SWAP1 PUSH3 0x51 SWAP3 SWAP2 SWAP1 PUSH3 0xE4 JUMP JUMPDEST POP DUP1 PUSH1 0x4 SWAP1 DUP1 MLOAD SWAP1 PUSH1 0x20 ADD SWAP1 PUSH3 0x6A SWAP3 SWAP2 SWAP1 PUSH3 0xE4 JUMP JUMPDEST POP POP POP PUSH1 0x1 PUSH1 0x5 PUSH1 0x0 PUSH3 0x83 PUSH3 0xDC PUSH1 0x20 SHL PUSH1 0x20 SHR JUMP JUMPDEST PUSH20 0xFFFFFFFFFFFFFFFFFFFFFFFFFFFFFFFFFFFFFFFF AND PUSH20 0xFFFFFFFFFFFFFFFFFFFFFFFFFFFFFFFFFFFFFFFF AND DUP2 MSTORE PUSH1 0x20 ADD SWAP1 DUP2 MSTORE PUSH1 0x20 ADD PUSH1 0x0 KECCAK256 PUSH1 0x0 PUSH2 0x100 EXP DUP2 SLOAD DUP2 PUSH1 0xFF MUL NOT AND SWAP1 DUP4 ISZERO ISZERO MUL OR SWAP1 SSTORE POP POP POP PUSH3 0x41B JUMP JUMPDEST PUSH1 0x0 CALLER SWAP1 POP SWAP1 JUMP JUMPDEST DUP3 DUP1 SLOAD PUSH3 0xF2 SWAP1 PUSH3 0x32C JUMP JUMPDEST SWAP1 PUSH1 0x0 MSTORE PUSH1 0x20 PUSH1 0x0 KECCAK256 SWAP1 PUSH1 0x1F ADD PUSH1 0x20 SWAP1 DIV DUP2 ADD SWAP3 DUP3 PUSH3 0x116 JUMPI PUSH1 0x0 DUP6 SSTORE PUSH3 0x162 JUMP JUMPDEST DUP3 PUSH1 0x1F LT PUSH3 0x131 JUMPI DUP1 MLOAD PUSH1 0xFF NOT AND DUP4 DUP1 ADD OR DUP6 SSTORE PUSH3 0x162 JUMP JUMPDEST DUP3 DUP1 ADD PUSH1 0x1 ADD DUP6 SSTORE DUP3 ISZERO PUSH3 0x162 JUMPI SWAP2 DUP3 ADD JUMPDEST DUP3 DUP2 GT ISZERO PUSH3 0x161 JUMPI DUP3 MLOAD DUP3 SSTORE SWAP2 PUSH1 0x20 ADD SWAP2 SWAP1 PUSH1 0x1 ADD SWAP1 PUSH3 0x144 JUMP JUMPDEST JUMPDEST POP SWAP1 POP PUSH3 0x171 SWAP2 SWAP1 PUSH3 0x175 JUMP JUMPDEST POP SWAP1 JUMP JUMPDEST JUMPDEST DUP1 DUP3 GT ISZERO PUSH3 0x190 JUMPI PUSH1 0x0 DUP2 PUSH1 0x0 SWAP1 SSTORE POP PUSH1 0x1 ADD PUSH3 0x176 JUMP JUMPDEST POP SWAP1 JUMP JUMPDEST PUSH1 0x0 PUSH3 0x1AB PUSH3 0x1A5 DUP5 PUSH3 0x2C0 JUMP JUMPDEST PUSH3 0x297 JUMP JUMPDEST SWAP1 POP DUP3 DUP2 MSTORE PUSH1 0x20 DUP2 ADD DUP5 DUP5 DUP5 ADD GT ISZERO PUSH3 0x1CA JUMPI PUSH3 0x1C9 PUSH3 0x3FB JUMP JUMPDEST JUMPDEST PUSH3 0x1D7 DUP5 DUP3 DUP6 PUSH3 0x2F6 JUMP JUMPDEST POP SWAP4 SWAP3 POP POP POP JUMP JUMPDEST PUSH1 0x0 DUP3 PUSH1 0x1F DUP4 ADD SLT PUSH3 0x1F7 JUMPI PUSH3 0x1F6 PUSH3 0x3F6 JUMP JUMPDEST JUMPDEST DUP2 MLOAD PUSH3 0x209 DUP5 DUP3 PUSH1 0x20 DUP7 ADD PUSH3 0x194 JUMP JUMPDEST SWAP2 POP POP SWAP3 SWAP2 POP POP JUMP JUMPDEST PUSH1 0x0 DUP1 PUSH1 0x40 DUP4 DUP6 SUB SLT ISZERO PUSH3 0x22C JUMPI PUSH3 0x22B PUSH3 0x405 JUMP JUMPDEST JUMPDEST PUSH1 0x0 DUP4 ADD MLOAD PUSH8 0xFFFFFFFFFFFFFFFF DUP2 GT ISZERO PUSH3 0x24D JUMPI PUSH3 0x24C PUSH3 0x400 JUMP JUMPDEST JUMPDEST PUSH3 0x25B DUP6 DUP3 DUP7 ADD PUSH3 0x1DF JUMP JUMPDEST SWAP3 POP POP PUSH1 0x20 DUP4 ADD MLOAD PUSH8 0xFFFFFFFFFFFFFFFF DUP2 GT ISZERO PUSH3 0x27F JUMPI PUSH3 0x27E PUSH3 0x400 JUMP JUMPDEST JUMPDEST PUSH3 0x28D DUP6 DUP3 DUP7 ADD PUSH3 0x1DF JUMP JUMPDEST SWAP2 POP POP SWAP3 POP SWAP3 SWAP1 POP JUMP JUMPDEST PUSH1 0x0 PUSH3 0x2A3 PUSH3 0x2B6 JUMP JUMPDEST SWAP1 POP PUSH3 0x2B1 DUP3 DUP3 PUSH3 0x362 JUMP JUMPDEST SWAP2 SWAP1 POP JUMP JUMPDEST PUSH1 0x0 PUSH1 0x40 MLOAD SWAP1 POP SWAP1 JUMP JUMPDEST PUSH1 0x0 PUSH8 0xFFFFFFFFFFFFFFFF DUP3 GT ISZERO PUSH3 0x2DE JUMPI PUSH3 0x2DD PUSH3 0x3C7 JUMP JUMPDEST JUMPDEST PUSH3 0x2E9 DUP3 PUSH3 0x40A JUMP JUMPDEST SWAP1 POP PUSH1 0x20 DUP2 ADD SWAP1 POP SWAP2 SWAP1 POP JUMP JUMPDEST PUSH1 0x0 JUMPDEST DUP4 DUP2 LT ISZERO PUSH3 0x316 JUMPI DUP1 DUP3 ADD MLOAD DUP2 DUP5 ADD MSTORE PUSH1 0x20 DUP2 ADD SWAP1 POP PUSH3 0x2F9 JUMP JUMPDEST DUP4 DUP2 GT ISZERO PUSH3 0x326 JUMPI PUSH1 0x0 DUP5 DUP5 ADD MSTORE JUMPDEST POP POP POP POP JUMP JUMPDEST PUSH1 0x0 PUSH1 0x2 DUP3 DIV SWAP1 POP PUSH1 0x1 DUP3 AND DUP1 PUSH3 0x345 JUMPI PUSH1 0x7F DUP3 AND SWAP2 POP JUMPDEST PUSH1 0x20 DUP3 LT DUP2 EQ ISZERO PUSH3 0x35C JUMPI PUSH3 0x35B PUSH3 0x398 JUMP JUMPDEST JUMPDEST POP SWAP2 SWAP1 POP JUMP JUMPDEST PUSH3 0x36D DUP3 PUSH3 0x40A JUMP JUMPDEST DUP2 ADD DUP2 DUP2 LT PUSH8 0xFFFFFFFFFFFFFFFF DUP3 GT OR ISZERO PUSH3 0x38F JUMPI PUSH3 0x38E PUSH3 0x3C7 JUMP JUMPDEST JUMPDEST DUP1 PUSH1 0x40 MSTORE POP POP POP JUMP JUMPDEST PUSH32 0x4E487B7100000000000000000000000000000000000000000000000000000000 PUSH1 0x0 MSTORE PUSH1 0x22 PUSH1 0x4 MSTORE PUSH1 0x24 PUSH1 0x0 REVERT JUMPDEST PUSH32 0x4E487B7100000000000000000000000000000000000000000000000000000000 PUSH1 0x0 MSTORE PUSH1 0x41 PUSH1 0x4 MSTORE PUSH1 0x24 PUSH1 0x0 REVERT JUMPDEST PUSH1 0x0 DUP1 REVERT JUMPDEST PUSH1 0x0 DUP1 REVERT JUMPDEST PUSH1 0x0 DUP1 REVERT JUMPDEST PUSH1 0x0 DUP1 REVERT JUMPDEST PUSH1 0x0 PUSH1 0x1F NOT PUSH1 0x1F DUP4 ADD AND SWAP1 POP SWAP2 SWAP1 POP JUMP JUMPDEST PUSH2 0x18AF DUP1 PUSH3 0x42B PUSH1 0x0 CODECOPY PUSH1 0x0 RETURN INVALID PUSH1 0x80 PUSH1 0x40 MSTORE CALLVALUE DUP1 ISZERO PUSH2 0x10 JUMPI PUSH1 0x0 DUP1 REVERT JUMPDEST POP PUSH1 0x4 CALLDATASIZE LT PUSH2 0xF5 JUMPI PUSH1 0x0 CALLDATALOAD PUSH1 0xE0 SHR DUP1 PUSH4 0x40C10F19 GT PUSH2 0x97 JUMPI DUP1 PUSH4 0x95D89B41 GT PUSH2 0x66 JUMPI DUP1 PUSH4 0x95D89B41 EQ PUSH2 0x298 JUMPI DUP1 PUSH4 0xA457C2D7 EQ PUSH2 0x2B6 JUMPI DUP1 PUSH4 0xA9059CBB EQ PUSH2 0x2E6 JUMPI DUP1 PUSH4 0xDD62ED3E EQ PUSH2 0x316 JUMPI PUSH2 0xF5 JUMP JUMPDEST DUP1 PUSH4 0x40C10F19 EQ PUSH2 0x214 JUMPI DUP1 PUSH4 0x42966C68 EQ PUSH2 0x230 JUMPI DUP1 PUSH4 0x70A08231 EQ PUSH2 0x24C JUMPI DUP1 PUSH4 0x79CC6790 EQ PUSH2 0x27C JUMPI PUSH2 0xF5 JUMP JUMPDEST DUP1 PUSH4 0x18160DDD GT PUSH2 0xD3 JUMPI DUP1 PUSH4 0x18160DDD EQ PUSH2 0x178 JUMPI DUP1 PUSH4 0x23B872DD EQ PUSH2 0x196 JUMPI DUP1 PUSH4 0x313CE567 EQ PUSH2 0x1C6 JUMPI DUP1 PUSH4 0x39509351 EQ PUSH2 0x1E4 JUMPI PUSH2 0xF5 JUMP JUMPDEST DUP1 PUSH4 0x6FDDE03 EQ PUSH2 0xFA JUMPI DUP1 PUSH4 0x95EA7B3 EQ PUSH2 0x118 JUMPI DUP1 PUSH4 0x99DB017 EQ PUSH2 0x148 JUMPI JUMPDEST PUSH1 0x0 DUP1 REVERT JUMPDEST PUSH2 0x102 PUSH2 0x346 JUMP JUMPDEST PUSH1 0x40 MLOAD PUSH2 0x10F SWAP2 SWAP1 PUSH2 0x1264 JUMP JUMPDEST PUSH1 0x40 MLOAD DUP1 SWAP2 SUB SWAP1 RETURN JUMPDEST PUSH2 0x132 PUSH1 0x4 DUP1 CALLDATASIZE SUB DUP2 ADD SWAP1 PUSH2 0x12D SWAP2 SWAP1 PUSH2 0xFF5 JUMP JUMPDEST PUSH2 0x3D8 JUMP JUMPDEST PUSH1 0x40 MLOAD PUSH2 0x13F SWAP2 SWAP1 PUSH2 0x1249 JUMP JUMPDEST PUSH1 0x40 MLOAD DUP1 SWAP2 SUB SWAP1 RETURN JUMPDEST PUSH2 0x162 PUSH1 0x4 DUP1 CALLDATASIZE SUB DUP2 ADD SWAP1 PUSH2 0x15D SWAP2 SWAP1 PUSH2 0xF35 JUMP JUMPDEST PUSH2 0x3EF JUMP JUMPDEST PUSH1 0x40 MLOAD PUSH2 0x16F SWAP2 SWAP1 PUSH2 0x1249 JUMP JUMPDEST PUSH1 0x40 MLOAD DUP1 SWAP2 SUB SWAP1 RETURN JUMPDEST PUSH2 0x180 PUSH2 0x445 JUMP JUMPDEST PUSH1 0x40 MLOAD PUSH2 0x18D SWAP2 SWAP1 PUSH2 0x13E6 JUMP JUMPDEST PUSH1 0x40 MLOAD DUP1 SWAP2 SUB SWAP1 RETURN JUMPDEST PUSH2 0x1B0 PUSH1 0x4 DUP1 CALLDATASIZE SUB DUP2 ADD SWAP1 PUSH2 0x1AB SWAP2 SWAP1 PUSH2 0xFA2 JUMP JUMPDEST PUSH2 0x44F JUMP JUMPDEST PUSH1 0x40 MLOAD PUSH2 0x1BD SWAP2 SWAP1 PUSH2 0x1249 JUMP JUMPDEST PUSH1 0x40 MLOAD DUP1 SWAP2 SUB SWAP1 RETURN JUMPDEST PUSH2 0x1CE PUSH2 0x472 JUMP JUMPDEST PUSH1 0x40 MLOAD PUSH2 0x1DB SWAP2 SWAP1 PUSH2 0x1401 JUMP JUMPDEST PUSH1 0x40 MLOAD DUP1 SWAP2 SUB SWAP1 RETURN JUMPDEST PUSH2 0x1FE PUSH1 0x4 DUP1 CALLDATASIZE SUB DUP2 ADD SWAP1 PUSH2 0x1F9 SWAP2 SWAP1 PUSH2 0xFF5 JUMP JUMPDEST PUSH2 0x47B JUMP JUMPDEST PUSH1 0x40 MLOAD PUSH2 0x20B SWAP2 SWAP1 PUSH2 0x1249 JUMP JUMPDEST PUSH1 0x40 MLOAD DUP1 SWAP2 SUB SWAP1 RETURN JUMPDEST PUSH2 0x22E PUSH1 0x4 DUP1 CALLDATASIZE SUB DUP2 ADD SWAP1 PUSH2 0x229 SWAP2 SWAP1 PUSH2 0xFF5 JUMP JUMPDEST PUSH2 0x4A6 JUMP JUMPDEST STOP JUMPDEST PUSH2 0x24A PUSH1 0x4 DUP1 CALLDATASIZE SUB DUP2 ADD SWAP1 PUSH2 0x245 SWAP2 SWAP1 PUSH2 0x1035 JUMP JUMPDEST PUSH2 0x503 JUMP JUMPDEST STOP JUMPDEST PUSH2 0x266 PUSH1 0x4 DUP1 CALLDATASIZE SUB DUP2 ADD SWAP1 PUSH2 0x261 SWAP2 SWAP1 PUSH2 0xF35 JUMP JUMPDEST PUSH2 0x517 JUMP JUMPDEST PUSH1 0x40 MLOAD PUSH2 0x273 SWAP2 SWAP1 PUSH2 0x13E6 JUMP JUMPDEST PUSH1 0x40 MLOAD DUP1 SWAP2 SUB SWAP1 RETURN JUMPDEST PUSH2 0x296 PUSH1 0x4 DUP1 CALLDATASIZE SUB DUP2 ADD SWAP1 PUSH2 0x291 SWAP2 SWAP1 PUSH2 0xFF5 JUMP JUMPDEST PUSH2 0x55F JUMP JUMPDEST STOP JUMPDEST PUSH2 0x2A0 PUSH2 0x57F JUMP JUMPDEST PUSH1 0x40 MLOAD PUSH2 0x2AD SWAP2 SWAP1 PUSH2 0x1264 JUMP JUMPDEST PUSH1 0x40 MLOAD DUP1 SWAP2 SUB SWAP1 RETURN JUMPDEST PUSH2 0x2D0 PUSH1 0x4 DUP1 CALLDATASIZE SUB DUP2 ADD SWAP1 PUSH2 0x2CB SWAP2 SWAP1 PUSH2 0xFF5 JUMP JUMPDEST PUSH2 0x611 JUMP JUMPDEST PUSH1 0x40 MLOAD PUSH2 0x2DD SWAP2 SWAP1 PUSH2 0x1249 JUMP JUMPDEST PUSH1 0x40 MLOAD DUP1 SWAP2 SUB SWAP1 RETURN JUMPDEST PUSH2 0x300 PUSH1 0x4 DUP1 CALLDATASIZE SUB DUP2 ADD SWAP1 PUSH2 0x2FB SWAP2 SWAP1 PUSH2 0xFF5 JUMP JUMPDEST PUSH2 0x688 JUMP JUMPDEST PUSH1 0x40 MLOAD PUSH2 0x30D SWAP2 SWAP1 PUSH2 0x1249 JUMP JUMPDEST PUSH1 0x40 MLOAD DUP1 SWAP2 SUB SWAP1 RETURN JUMPDEST PUSH2 0x330 PUSH1 0x4 DUP1 CALLDATASIZE SUB DUP2 ADD SWAP1 PUSH2 0x32B SWAP2 SWAP1 PUSH2 0xF62 JUMP JUMPDEST PUSH2 0x69F JUMP JUMPDEST PUSH1 0x40 MLOAD PUSH2 0x33D SWAP2 SWAP1 PUSH2 0x13E6 JUMP JUMPDEST PUSH1 0x40 MLOAD DUP1 SWAP2 SUB SWAP1 RETURN JUMPDEST PUSH1 0x60 PUSH1 0x3 DUP1 SLOAD PUSH2 0x355 SWAP1 PUSH2 0x154A JUMP JUMPDEST DUP1 PUSH1 0x1F ADD PUSH1 0x20 DUP1 SWAP2 DIV MUL PUSH1 0x20 ADD PUSH1 0x40 MLOAD SWAP1 DUP2 ADD PUSH1 0x40 MSTORE DUP1 SWAP3 SWAP2 SWAP1 DUP2 DUP2 MSTORE PUSH1 0x20 ADD DUP3 DUP1 SLOAD PUSH2 0x381 SWAP1 PUSH2 0x154A JUMP JUMPDEST DUP1 ISZERO PUSH2 0x3CE JUMPI DUP1 PUSH1 0x1F LT PUSH2 0x3A3 JUMPI PUSH2 0x100 DUP1 DUP4 SLOAD DIV MUL DUP4 MSTORE SWAP2 PUSH1 0x20 ADD SWAP2 PUSH2 0x3CE JUMP JUMPDEST DUP3 ADD SWAP2 SWAP1 PUSH1 0x0 MSTORE PUSH1 0x20 PUSH1 0x0 KECCAK256 SWAP1 JUMPDEST DUP2 SLOAD DUP2 MSTORE SWAP1 PUSH1 0x1 ADD SWAP1 PUSH1 0x20 ADD DUP1 DUP4 GT PUSH2 0x3B1 JUMPI DUP3 SWAP1 SUB PUSH1 0x1F AND DUP3 ADD SWAP2 JUMPDEST POP POP POP POP POP SWAP1 POP SWAP1 JUMP JUMPDEST PUSH1 0x0 PUSH2 0x3E5 CALLER DUP5 DUP5 PUSH2 0x726 JUMP JUMPDEST PUSH1 0x1 SWAP1 POP SWAP3 SWAP2 POP POP JUMP JUMPDEST PUSH1 0x0 PUSH1 0x5 PUSH1 0x0 DUP4 PUSH20 0xFFFFFFFFFFFFFFFFFFFFFFFFFFFFFFFFFFFFFFFF AND PUSH20 0xFFFFFFFFFFFFFFFFFFFFFFFFFFFFFFFFFFFFFFFF AND DUP2 MSTORE PUSH1 0x20 ADD SWAP1 DUP2 MSTORE PUSH1 0x20 ADD PUSH1 0x0 KECCAK256 PUSH1 0x0 SWAP1 SLOAD SWAP1 PUSH2 0x100 EXP SWAP1 DIV PUSH1 0xFF AND SWAP1 POP SWAP2 SWAP1 POP JUMP JUMPDEST PUSH1 0x0 PUSH1 0x2 SLOAD SWAP1 POP SWAP1 JUMP JUMPDEST PUSH1 0x0 PUSH2 0x45C DUP5 CALLER DUP5 PUSH2 0x8F1 JUMP JUMPDEST PUSH2 0x467 DUP5 DUP5 DUP5 PUSH2 0x97D JUMP JUMPDEST PUSH1 0x1 SWAP1 POP SWAP4 SWAP3 POP POP POP JUMP JUMPDEST PUSH1 0x0 PUSH1 0x12 SWAP1 POP SWAP1 JUMP JUMPDEST PUSH1 0x0 PUSH2 0x49C CALLER DUP5 DUP5 PUSH2 0x48D CALLER DUP9 PUSH2 0x69F JUMP JUMPDEST PUSH2 0x497 SWAP2 SWAP1 PUSH2 0x1438 JUMP JUMPDEST PUSH2 0x726 JUMP JUMPDEST PUSH1 0x1 SWAP1 POP SWAP3 SWAP2 POP POP JUMP JUMPDEST PUSH2 0x4B6 PUSH2 0x4B1 PUSH2 0xBF2 JUMP JUMPDEST PUSH2 0x3EF JUMP JUMPDEST PUSH2 0x4F5 JUMPI PUSH1 0x40 MLOAD PUSH32 0x8C379A000000000000000000000000000000000000000000000000000000000 DUP2 MSTORE PUSH1 0x4 ADD PUSH2 0x4EC SWAP1 PUSH2 0x12A6 JUMP JUMPDEST PUSH1 0x40 MLOAD DUP1 SWAP2 SUB SWAP1 REVERT JUMPDEST PUSH2 0x4FF DUP3 DUP3 PUSH2 0xBFA JUMP JUMPDEST POP POP JUMP JUMPDEST PUSH2 0x514 PUSH2 0x50E PUSH2 0xBF2 JUMP JUMPDEST DUP3 PUSH2 0xD42 JUMP JUMPDEST POP JUMP JUMPDEST PUSH1 0x0 DUP1 PUSH1 0x0 DUP4 PUSH20 0xFFFFFFFFFFFFFFFFFFFFFFFFFFFFFFFFFFFFFFFF AND PUSH20 0xFFFFFFFFFFFFFFFFFFFFFFFFFFFFFFFFFFFFFFFF AND DUP2 MSTORE PUSH1 0x20 ADD SWAP1 DUP2 MSTORE PUSH1 0x20 ADD PUSH1 0x0 KECCAK256 SLOAD SWAP1 POP SWAP2 SWAP1 POP JUMP JUMPDEST PUSH2 0x571 DUP3 PUSH2 0x56B PUSH2 0xBF2 JUMP JUMPDEST DUP4 PUSH2 0x8F1 JUMP JUMPDEST PUSH2 0x57B DUP3 DUP3 PUSH2 0xD42 JUMP JUMPDEST POP POP JUMP JUMPDEST PUSH1 0x60 PUSH1 0x4 DUP1 SLOAD PUSH2 0x58E SWAP1 PUSH2 0x154A JUMP JUMPDEST DUP1 PUSH1 0x1F ADD PUSH1 0x20 DUP1 SWAP2 DIV MUL PUSH1 0x20 ADD PUSH1 0x40 MLOAD SWAP1 DUP2 ADD PUSH1 0x40 MSTORE DUP1 SWAP3 SWAP2 SWAP1 DUP2 DUP2 MSTORE PUSH1 0x20 ADD DUP3 DUP1 SLOAD PUSH2 0x5BA SWAP1 PUSH2 0x154A JUMP JUMPDEST DUP1 ISZERO PUSH2 0x607 JUMPI DUP1 PUSH1 0x1F LT PUSH2 0x5DC JUMPI PUSH2 0x100 DUP1 DUP4 SLOAD DIV MUL DUP4 MSTORE SWAP2 PUSH1 0x20 ADD SWAP2 PUSH2 0x607 JUMP JUMPDEST DUP3 ADD SWAP2 SWAP1 PUSH1 0x0 MSTORE PUSH1 0x20 PUSH1 0x0 KECCAK256 SWAP1 JUMPDEST DUP2 SLOAD DUP2 MSTORE SWAP1 PUSH1 0x1 ADD SWAP1 PUSH1 0x20 ADD DUP1 DUP4 GT PUSH2 0x5EA JUMPI DUP3 SWAP1 SUB PUSH1 0x1F AND DUP3 ADD SWAP2 JUMPDEST POP POP POP POP POP SWAP1 POP SWAP1 JUMP JUMPDEST PUSH1 0x0 DUP2 PUSH2 0x61E CALLER DUP6 PUSH2 0x69F JUMP JUMPDEST LT ISZERO PUSH2 0x65F JUMPI PUSH1 0x40 MLOAD PUSH32 0x8C379A000000000000000000000000000000000000000000000000000000000 DUP2 MSTORE PUSH1 0x4 ADD PUSH2 0x656 SWAP1 PUSH2 0x12C6 JUMP JUMPDEST PUSH1 0x40 MLOAD DUP1 SWAP2 SUB SWAP1 REVERT JUMPDEST PUSH2 0x67E CALLER DUP5 DUP5 PUSH2 0x66F CALLER DUP9 PUSH2 0x69F JUMP JUMPDEST PUSH2 0x679 SWAP2 SWAP1 PUSH2 0x148E JUMP JUMPDEST PUSH2 0x726 JUMP JUMPDEST PUSH1 0x1 SWAP1 POP SWAP3 SWAP2 POP POP JUMP JUMPDEST PUSH1 0x0 PUSH2 0x695 CALLER DUP5 DUP5 PUSH2 0x97D JUMP JUMPDEST PUSH1 0x1 SWAP1 POP SWAP3 SWAP2 POP POP JUMP JUMPDEST PUSH1 0x0 PUSH1 0x1 PUSH1 0x0 DUP5 PUSH20 0xFFFFFFFFFFFFFFFFFFFFFFFFFFFFFFFFFFFFFFFF AND PUSH20 0xFFFFFFFFFFFFFFFFFFFFFFFFFFFFFFFFFFFFFFFF AND DUP2 MSTORE PUSH1 0x20 ADD SWAP1 DUP2 MSTORE PUSH1 0x20 ADD PUSH1 0x0 KECCAK256 PUSH1 0x0 DUP4 PUSH20 0xFFFFFFFFFFFFFFFFFFFFFFFFFFFFFFFFFFFFFFFF AND PUSH20 0xFFFFFFFFFFFFFFFFFFFFFFFFFFFFFFFFFFFFFFFF AND DUP2 MSTORE PUSH1 0x20 ADD SWAP1 DUP2 MSTORE PUSH1 0x20 ADD PUSH1 0x0 KECCAK256 SLOAD SWAP1 POP SWAP3 SWAP2 POP POP JUMP JUMPDEST PUSH1 0x0 PUSH20 0xFFFFFFFFFFFFFFFFFFFFFFFFFFFFFFFFFFFFFFFF AND DUP4 PUSH20 0xFFFFFFFFFFFFFFFFFFFFFFFFFFFFFFFFFFFFFFFF AND EQ ISZERO PUSH2 0x796 JUMPI PUSH1 0x40 MLOAD PUSH32 0x8C379A000000000000000000000000000000000000000000000000000000000 DUP2 MSTORE PUSH1 0x4 ADD PUSH2 0x78D SWAP1 PUSH2 0x12E6 JUMP JUMPDEST PUSH1 0x40 MLOAD DUP1 SWAP2 SUB SWAP1 REVERT JUMPDEST PUSH1 0x0 PUSH20 0xFFFFFFFFFFFFFFFFFFFFFFFFFFFFFFFFFFFFFFFF AND DUP3 PUSH20 0xFFFFFFFFFFFFFFFFFFFFFFFFFFFFFFFFFFFFFFFF AND EQ ISZERO PUSH2 0x806 JUMPI PUSH1 0x40 MLOAD PUSH32 0x8C379A000000000000000000000000000000000000000000000000000000000 DUP2 MSTORE PUSH1 0x4 ADD PUSH2 0x7FD SWAP1 PUSH2 0x13A6 JUMP JUMPDEST PUSH1 0x40 MLOAD DUP1 SWAP2 SUB SWAP1 REVERT JUMPDEST DUP1 PUSH1 0x1 PUSH1 0x0 DUP6 PUSH20 0xFFFFFFFFFFFFFFFFFFFFFFFFFFFFFFFFFFFFFFFF AND PUSH20 0xFFFFFFFFFFFFFFFFFFFFFFFFFFFFFFFFFFFFFFFF AND DUP2 MSTORE PUSH1 0x20 ADD SWAP1 DUP2 MSTORE PUSH1 0x20 ADD PUSH1 0x0 KECCAK256 PUSH1 0x0 DUP5 PUSH20 0xFFFFFFFFFFFFFFFFFFFFFFFFFFFFFFFFFFFFFFFF AND PUSH20 0xFFFFFFFFFFFFFFFFFFFFFFFFFFFFFFFFFFFFFFFF AND DUP2 MSTORE PUSH1 0x20 ADD SWAP1 DUP2 MSTORE PUSH1 0x20 ADD PUSH1 0x0 KECCAK256 DUP2 SWAP1 SSTORE POP DUP2 PUSH20 0xFFFFFFFFFFFFFFFFFFFFFFFFFFFFFFFFFFFFFFFF AND DUP4 PUSH20 0xFFFFFFFFFFFFFFFFFFFFFFFFFFFFFFFFFFFFFFFF AND PUSH32 0x8C5BE1E5EBEC7D5BD14F71427D1E84F3DD0314C0F7B2291E5B200AC8C7C3B925 DUP4 PUSH1 0x40 MLOAD PUSH2 0x8E4 SWAP2 SWAP1 PUSH2 0x13E6 JUMP JUMPDEST PUSH1 0x40 MLOAD DUP1 SWAP2 SUB SWAP1 LOG3 POP POP POP JUMP JUMPDEST PUSH1 0x0 PUSH2 0x8FD DUP5 DUP5 PUSH2 0x69F JUMP JUMPDEST SWAP1 POP PUSH32 0xFFFFFFFFFFFFFFFFFFFFFFFFFFFFFFFFFFFFFFFFFFFFFFFFFFFFFFFFFFFFFFFF DUP2 EQ PUSH2 0x977 JUMPI DUP2 DUP2 LT ISZERO PUSH2 0x969 JUMPI PUSH1 0x40 MLOAD PUSH32 0x8C379A000000000000000000000000000000000000000000000000000000000 DUP2 MSTORE PUSH1 0x4 ADD PUSH2 0x960 SWAP1 PUSH2 0x1346 JUMP JUMPDEST PUSH1 0x40 MLOAD DUP1 SWAP2 SUB SWAP1 REVERT JUMPDEST PUSH2 0x976 DUP5 DUP5 DUP5 DUP5 SUB PUSH2 0x726 JUMP JUMPDEST JUMPDEST POP POP POP POP JUMP JUMPDEST PUSH1 0x0 PUSH20 0xFFFFFFFFFFFFFFFFFFFFFFFFFFFFFFFFFFFFFFFF AND DUP4 PUSH20 0xFFFFFFFFFFFFFFFFFFFFFFFFFFFFFFFFFFFFFFFF AND EQ ISZERO PUSH2 0x9ED JUMPI PUSH1 0x40 MLOAD PUSH32 0x8C379A000000000000000000000000000000000000000000000000000000000 DUP2 MSTORE PUSH1 0x4 ADD PUSH2 0x9E4 SWAP1 PUSH2 0x1326 JUMP JUMPDEST PUSH1 0x40 MLOAD DUP1 SWAP2 SUB SWAP1 REVERT JUMPDEST PUSH1 0x0 PUSH20 0xFFFFFFFFFFFFFFFFFFFFFFFFFFFFFFFFFFFFFFFF AND DUP3 PUSH20 0xFFFFFFFFFFFFFFFFFFFFFFFFFFFFFFFFFFFFFFFF AND EQ ISZERO PUSH2 0xA5D JUMPI PUSH1 0x40 MLOAD PUSH32 0x8C379A000000000000000000000000000000000000000000000000000000000 DUP2 MSTORE PUSH1 0x4 ADD PUSH2 0xA54 SWAP1 PUSH2 0x1366 JUMP JUMPDEST PUSH1 0x40 MLOAD DUP1 SWAP2 SUB SWAP1 REVERT JUMPDEST DUP1 PUSH1 0x0 DUP1 DUP6 PUSH20 0xFFFFFFFFFFFFFFFFFFFFFFFFFFFFFFFFFFFFFFFF AND PUSH20 0xFFFFFFFFFFFFFFFFFFFFFFFFFFFFFFFFFFFFFFFF AND DUP2 MSTORE PUSH1 0x20 ADD SWAP1 DUP2 MSTORE PUSH1 0x20 ADD PUSH1 0x0 KECCAK256 SLOAD LT ISZERO PUSH2 0xADE JUMPI PUSH1 0x40 MLOAD PUSH32 0x8C379A000000000000000000000000000000000000000000000000000000000 DUP2 MSTORE PUSH1 0x4 ADD PUSH2 0xAD5 SWAP1 PUSH2 0x1306 JUMP JUMPDEST PUSH1 0x40 MLOAD DUP1 SWAP2 SUB SWAP1 REVERT JUMPDEST DUP1 PUSH1 0x0 DUP1 DUP6 PUSH20 0xFFFFFFFFFFFFFFFFFFFFFFFFFFFFFFFFFFFFFFFF AND PUSH20 0xFFFFFFFFFFFFFFFFFFFFFFFFFFFFFFFFFFFFFFFF AND DUP2 MSTORE PUSH1 0x20 ADD SWAP1 DUP2 MSTORE PUSH1 0x20 ADD PUSH1 0x0 KECCAK256 PUSH1 0x0 DUP3 DUP3 SLOAD PUSH2 0xB2C SWAP2 SWAP1 PUSH2 0x148E JUMP JUMPDEST SWAP3 POP POP DUP2 SWAP1 SSTORE POP DUP1 PUSH1 0x0 DUP1 DUP5 PUSH20 0xFFFFFFFFFFFFFFFFFFFFFFFFFFFFFFFFFFFFFFFF AND PUSH20 0xFFFFFFFFFFFFFFFFFFFFFFFFFFFFFFFFFFFFFFFF AND DUP2 MSTORE PUSH1 0x20 ADD SWAP1 DUP2 MSTORE PUSH1 0x20 ADD PUSH1 0x0 KECCAK256 PUSH1 0x0 DUP3 DUP3 SLOAD PUSH2 0xB81 SWAP2 SWAP1 PUSH2 0x1438 JUMP JUMPDEST SWAP3 POP POP DUP2 SWAP1 SSTORE POP DUP2 PUSH20 0xFFFFFFFFFFFFFFFFFFFFFFFFFFFFFFFFFFFFFFFF AND DUP4 PUSH20 0xFFFFFFFFFFFFFFFFFFFFFFFFFFFFFFFFFFFFFFFF AND PUSH32 0xDDF252AD1BE2C89B69C2B068FC378DAA952BA7F163C4A11628F55A4DF523B3EF DUP4 PUSH1 0x40 MLOAD PUSH2 0xBE5 SWAP2 SWAP1 PUSH2 0x13E6 JUMP JUMPDEST PUSH1 0x40 MLOAD DUP1 SWAP2 SUB SWAP1 LOG3 POP POP POP JUMP JUMPDEST PUSH1 0x0 CALLER SWAP1 POP SWAP1 JUMP JUMPDEST PUSH1 0x0 PUSH20 0xFFFFFFFFFFFFFFFFFFFFFFFFFFFFFFFFFFFFFFFF AND DUP3 PUSH20 0xFFFFFFFFFFFFFFFFFFFFFFFFFFFFFFFFFFFFFFFF AND EQ ISZERO PUSH2 0xC6A JUMPI PUSH1 0x40 MLOAD PUSH32 0x8C379A000000000000000000000000000000000000000000000000000000000 DUP2 MSTORE PUSH1 0x4 ADD PUSH2 0xC61 SWAP1 PUSH2 0x1286 JUMP JUMPDEST PUSH1 0x40 MLOAD DUP1 SWAP2 SUB SWAP1 REVERT JUMPDEST DUP1 PUSH1 0x2 PUSH1 0x0 DUP3 DUP3 SLOAD PUSH2 0xC7C SWAP2 SWAP1 PUSH2 0x1438 JUMP JUMPDEST SWAP3 POP POP DUP2 SWAP1 SSTORE POP DUP1 PUSH1 0x0 DUP1 DUP5 PUSH20 0xFFFFFFFFFFFFFFFFFFFFFFFFFFFFFFFFFFFFFFFF AND PUSH20 0xFFFFFFFFFFFFFFFFFFFFFFFFFFFFFFFFFFFFFFFF AND DUP2 MSTORE PUSH1 0x20 ADD SWAP1 DUP2 MSTORE PUSH1 0x20 ADD PUSH1 0x0 KECCAK256 PUSH1 0x0 DUP3 DUP3 SLOAD PUSH2 0xCD1 SWAP2 SWAP1 PUSH2 0x1438 JUMP JUMPDEST SWAP3 POP POP DUP2 SWAP1 SSTORE POP DUP2 PUSH20 0xFFFFFFFFFFFFFFFFFFFFFFFFFFFFFFFFFFFFFFFF AND PUSH1 0x0 PUSH20 0xFFFFFFFFFFFFFFFFFFFFFFFFFFFFFFFFFFFFFFFF AND PUSH32 0xDDF252AD1BE2C89B69C2B068FC378DAA952BA7F163C4A11628F55A4DF523B3EF DUP4 PUSH1 0x40 MLOAD PUSH2 0xD36 SWAP2 SWAP1 PUSH2 0x13E6 JUMP JUMPDEST PUSH1 0x40 MLOAD DUP1 SWAP2 SUB SWAP1 LOG3 POP POP JUMP JUMPDEST PUSH1 0x0 PUSH20 0xFFFFFFFFFFFFFFFFFFFFFFFFFFFFFFFFFFFFFFFF AND DUP3 PUSH20 0xFFFFFFFFFFFFFFFFFFFFFFFFFFFFFFFFFFFFFFFF AND EQ ISZERO PUSH2 0xDB2 JUMPI PUSH1 0x40 MLOAD PUSH32 0x8C379A000000000000000000000000000000000000000000000000000000000 DUP2 MSTORE PUSH1 0x4 ADD PUSH2 0xDA9 SWAP1 PUSH2 0x13C6 JUMP JUMPDEST PUSH1 0x40 MLOAD DUP1 SWAP2 SUB SWAP1 REVERT JUMPDEST DUP1 PUSH1 0x0 DUP1 DUP5 PUSH20 0xFFFFFFFFFFFFFFFFFFFFFFFFFFFFFFFFFFFFFFFF AND PUSH20 0xFFFFFFFFFFFFFFFFFFFFFFFFFFFFFFFFFFFFFFFF AND DUP2 MSTORE PUSH1 0x20 ADD SWAP1 DUP2 MSTORE PUSH1 0x20 ADD PUSH1 0x0 KECCAK256 SLOAD LT ISZERO PUSH2 0xE33 JUMPI PUSH1 0x40 MLOAD PUSH32 0x8C379A000000000000000000000000000000000000000000000000000000000 DUP2 MSTORE PUSH1 0x4 ADD PUSH2 0xE2A SWAP1 PUSH2 0x1386 JUMP JUMPDEST PUSH1 0x40 MLOAD DUP1 SWAP2 SUB SWAP1 REVERT JUMPDEST DUP1 PUSH1 0x2 PUSH1 0x0 DUP3 DUP3 SLOAD PUSH2 0xE45 SWAP2 SWAP1 PUSH2 0x148E JUMP JUMPDEST SWAP3 POP POP DUP2 SWAP1 SSTORE POP DUP1 PUSH1 0x0 DUP1 DUP5 PUSH20 0xFFFFFFFFFFFFFFFFFFFFFFFFFFFFFFFFFFFFFFFF AND PUSH20 0xFFFFFFFFFFFFFFFFFFFFFFFFFFFFFFFFFFFFFFFF AND DUP2 MSTORE PUSH1 0x20 ADD SWAP1 DUP2 MSTORE PUSH1 0x20 ADD PUSH1 0x0 KECCAK256 PUSH1 0x0 DUP3 DUP3 SLOAD PUSH2 0xE9A SWAP2 SWAP1 PUSH2 0x148E JUMP JUMPDEST SWAP3 POP POP DUP2 SWAP1 SSTORE POP PUSH1 0x0 PUSH20 0xFFFFFFFFFFFFFFFFFFFFFFFFFFFFFFFFFFFFFFFF AND DUP3 PUSH20 0xFFFFFFFFFFFFFFFFFFFFFFFFFFFFFFFFFFFFFFFF AND PUSH32 0xDDF252AD1BE2C89B69C2B068FC378DAA952BA7F163C4A11628F55A4DF523B3EF DUP4 PUSH1 0x40 MLOAD PUSH2 0xEFF SWAP2 SWAP1 PUSH2 0x13E6 JUMP JUMPDEST PUSH1 0x40 MLOAD DUP1 SWAP2 SUB SWAP1 LOG3 POP POP JUMP JUMPDEST PUSH1 0x0 DUP2 CALLDATALOAD SWAP1 POP PUSH2 0xF1A DUP2 PUSH2 0x184B JUMP JUMPDEST SWAP3 SWAP2 POP POP JUMP JUMPDEST PUSH1 0x0 DUP2 CALLDATALOAD SWAP1 POP PUSH2 0xF2F DUP2 PUSH2 0x1862 JUMP JUMPDEST SWAP3 SWAP2 POP POP JUMP JUMPDEST PUSH1 0x0 PUSH1 0x20 DUP3 DUP5 SUB SLT ISZERO PUSH2 0xF4B JUMPI PUSH2 0xF4A PUSH2 0x15DA JUMP JUMPDEST JUMPDEST PUSH1 0x0 PUSH2 0xF59 DUP5 DUP3 DUP6 ADD PUSH2 0xF0B JUMP JUMPDEST SWAP2 POP POP SWAP3 SWAP2 POP POP JUMP JUMPDEST PUSH1 0x0 DUP1 PUSH1 0x40 DUP4 DUP6 SUB SLT ISZERO PUSH2 0xF79 JUMPI PUSH2 0xF78 PUSH2 0x15DA JUMP JUMPDEST JUMPDEST PUSH1 0x0 PUSH2 0xF87 DUP6 DUP3 DUP7 ADD PUSH2 0xF0B JUMP JUMPDEST SWAP3 POP POP PUSH1 0x20 PUSH2 0xF98 DUP6 DUP3 DUP7 ADD PUSH2 0xF0B JUMP JUMPDEST SWAP2 POP POP SWAP3 POP SWAP3 SWAP1 POP JUMP JUMPDEST PUSH1 0x0 DUP1 PUSH1 0x0 PUSH1 0x60 DUP5 DUP7 SUB SLT ISZERO PUSH2 0xFBB JUMPI PUSH2 0xFBA PUSH2 0x15DA JUMP JUMPDEST JUMPDEST PUSH1 0x0 PUSH2 0xFC9 DUP7 DUP3 DUP8 ADD PUSH2 0xF0B JUMP JUMPDEST SWAP4 POP POP PUSH1 0x20 PUSH2 0xFDA DUP7 DUP3 DUP8 ADD PUSH2 0xF0B JUMP JUMPDEST SWAP3 POP POP PUSH1 0x40 PUSH2 0xFEB DUP7 DUP3 DUP8 ADD PUSH2 0xF20 JUMP JUMPDEST SWAP2 POP POP SWAP3 POP SWAP3 POP SWAP3 JUMP JUMPDEST PUSH1 0x0 DUP1 PUSH1 0x40 DUP4 DUP6 SUB SLT ISZERO PUSH2 0x100C JUMPI PUSH2 0x100B PUSH2 0x15DA JUMP JUMPDEST JUMPDEST PUSH1 0x0 PUSH2 0x101A DUP6 DUP3 DUP7 ADD PUSH2 0xF0B JUMP JUMPDEST SWAP3 POP POP PUSH1 0x20 PUSH2 0x102B DUP6 DUP3 DUP7 ADD PUSH2 0xF20 JUMP JUMPDEST SWAP2 POP POP SWAP3 POP SWAP3 SWAP1 POP JUMP JUMPDEST PUSH1 0x0 PUSH1 0x20 DUP3 DUP5 SUB SLT ISZERO PUSH2 0x104B JUMPI PUSH2 0x104A PUSH2 0x15DA JUMP JUMPDEST JUMPDEST PUSH1 0x0 PUSH2 0x1059 DUP5 DUP3 DUP6 ADD PUSH2 0xF20 JUMP JUMPDEST SWAP2 POP POP SWAP3 SWAP2 POP POP JUMP JUMPDEST PUSH2 0x106B DUP2 PUSH2 0x14D4 JUMP JUMPDEST DUP3 MSTORE POP POP JUMP JUMPDEST PUSH1 0x0 PUSH2 0x107C DUP3 PUSH2 0x141C JUMP JUMPDEST PUSH2 0x1086 DUP2 DUP6 PUSH2 0x1427 JUMP JUMPDEST SWAP4 POP PUSH2 0x1096 DUP2 DUP6 PUSH1 0x20 DUP7 ADD PUSH2 0x1517 JUMP JUMPDEST PUSH2 0x109F DUP2 PUSH2 0x15DF JUMP JUMPDEST DUP5 ADD SWAP2 POP POP SWAP3 SWAP2 POP POP JUMP JUMPDEST PUSH1 0x0 PUSH2 0x10B7 PUSH1 0x1F DUP4 PUSH2 0x1427 JUMP JUMPDEST SWAP2 POP PUSH2 0x10C2 DUP3 PUSH2 0x15F0 JUMP JUMPDEST PUSH1 0x20 DUP3 ADD SWAP1 POP SWAP2 SWAP1 POP JUMP JUMPDEST PUSH1 0x0 PUSH2 0x10DA PUSH1 0x27 DUP4 PUSH2 0x1427 JUMP JUMPDEST SWAP2 POP PUSH2 0x10E5 DUP3 PUSH2 0x1619 JUMP JUMPDEST PUSH1 0x40 DUP3 ADD SWAP1 POP SWAP2 SWAP1 POP JUMP JUMPDEST PUSH1 0x0 PUSH2 0x10FD PUSH1 0x25 DUP4 PUSH2 0x1427 JUMP JUMPDEST SWAP2 POP PUSH2 0x1108 DUP3 PUSH2 0x1668 JUMP JUMPDEST PUSH1 0x40 DUP3 ADD SWAP1 POP SWAP2 SWAP1 POP JUMP JUMPDEST PUSH1 0x0 PUSH2 0x1120 PUSH1 0x1A DUP4 PUSH2 0x1427 JUMP JUMPDEST SWAP2 POP PUSH2 0x112B DUP3 PUSH2 0x16B7 JUMP JUMPDEST PUSH1 0x20 DUP3 ADD SWAP1 POP SWAP2 SWAP1 POP JUMP JUMPDEST PUSH1 0x0 PUSH2 0x1143 PUSH1 0x21 DUP4 PUSH2 0x1427 JUMP JUMPDEST SWAP2 POP PUSH2 0x114E DUP3 PUSH2 0x16E0 JUMP JUMPDEST PUSH1 0x40 DUP3 ADD SWAP1 POP SWAP2 SWAP1 POP JUMP JUMPDEST PUSH1 0x0 PUSH2 0x1166 PUSH1 0x1A DUP4 PUSH2 0x1427 JUMP JUMPDEST SWAP2 POP PUSH2 0x1171 DUP3 PUSH2 0x172F JUMP JUMPDEST PUSH1 0x20 DUP3 ADD SWAP1 POP SWAP2 SWAP1 POP JUMP JUMPDEST PUSH1 0x0 PUSH2 0x1189 PUSH1 0x1E DUP4 PUSH2 0x1427 JUMP JUMPDEST SWAP2 POP PUSH2 0x1194 DUP3 PUSH2 0x1758 JUMP JUMPDEST PUSH1 0x20 DUP3 ADD SWAP1 POP SWAP2 SWAP1 POP JUMP JUMPDEST PUSH1 0x0 PUSH2 0x11AC PUSH1 0x18 DUP4 PUSH2 0x1427 JUMP JUMPDEST SWAP2 POP PUSH2 0x11B7 DUP3 PUSH2 0x1781 JUMP JUMPDEST PUSH1 0x20 DUP3 ADD SWAP1 POP SWAP2 SWAP1 POP JUMP JUMPDEST PUSH1 0x0 PUSH2 0x11CF PUSH1 0x1C DUP4 PUSH2 0x1427 JUMP JUMPDEST SWAP2 POP PUSH2 0x11DA DUP3 PUSH2 0x17AA JUMP JUMPDEST PUSH1 0x20 DUP3 ADD SWAP1 POP SWAP2 SWAP1 POP JUMP JUMPDEST PUSH1 0x0 PUSH2 0x11F2 PUSH1 0x18 DUP4 PUSH2 0x1427 JUMP JUMPDEST SWAP2 POP PUSH2 0x11FD DUP3 PUSH2 0x17D3 JUMP JUMPDEST PUSH1 0x20 DUP3 ADD SWAP1 POP SWAP2 SWAP1 POP JUMP JUMPDEST PUSH1 0x0 PUSH2 0x1215 PUSH1 0x21 DUP4 PUSH2 0x1427 JUMP JUMPDEST SWAP2 POP PUSH2 0x1220 DUP3 PUSH2 0x17FC JUMP JUMPDEST PUSH1 0x40 DUP3 ADD SWAP1 POP SWAP2 SWAP1 POP JUMP JUMPDEST PUSH2 0x1234 DUP2 PUSH2 0x1500 JUMP JUMPDEST DUP3 MSTORE POP POP JUMP JUMPDEST PUSH2 0x1243 DUP2 PUSH2 0x150A JUMP JUMPDEST DUP3 MSTORE POP POP JUMP JUMPDEST PUSH1 0x0 PUSH1 0x20 DUP3 ADD SWAP1 POP PUSH2 0x125E PUSH1 0x0 DUP4 ADD DUP5 PUSH2 0x1062 JUMP JUMPDEST SWAP3 SWAP2 POP POP JUMP JUMPDEST PUSH1 0x0 PUSH1 0x20 DUP3 ADD SWAP1 POP DUP2 DUP2 SUB PUSH1 0x0 DUP4 ADD MSTORE PUSH2 0x127E DUP2 DUP5 PUSH2 0x1071 JUMP JUMPDEST SWAP1 POP SWAP3 SWAP2 POP POP JUMP JUMPDEST PUSH1 0x0 PUSH1 0x20 DUP3 ADD SWAP1 POP DUP2 DUP2 SUB PUSH1 0x0 DUP4 ADD MSTORE PUSH2 0x129F DUP2 PUSH2 0x10AA JUMP JUMPDEST SWAP1 POP SWAP2 SWAP1 POP JUMP JUMPDEST PUSH1 0x0 PUSH1 0x20 DUP3 ADD SWAP1 POP DUP2 DUP2 SUB PUSH1 0x0 DUP4 ADD MSTORE PUSH2 0x12BF DUP2 PUSH2 0x10CD JUMP JUMPDEST SWAP1 POP SWAP2 SWAP1 POP JUMP JUMPDEST PUSH1 0x0 PUSH1 0x20 DUP3 ADD SWAP1 POP DUP2 DUP2 SUB PUSH1 0x0 DUP4 ADD MSTORE PUSH2 0x12DF DUP2 PUSH2 0x10F0 JUMP JUMPDEST SWAP1 POP SWAP2 SWAP1 POP JUMP JUMPDEST PUSH1 0x0 PUSH1 0x20 DUP3 ADD SWAP1 POP DUP2 DUP2 SUB PUSH1 0x0 DUP4 ADD MSTORE PUSH2 0x12FF DUP2 PUSH2 0x1113 JUMP JUMPDEST SWAP1 POP SWAP2 SWAP1 POP JUMP JUMPDEST PUSH1 0x0 PUSH1 0x20 DUP3 ADD SWAP1 POP DUP2 DUP2 SUB PUSH1 0x0 DUP4 ADD MSTORE PUSH2 0x131F DUP2 PUSH2 0x1136 JUMP JUMPDEST SWAP1 POP SWAP2 SWAP1 POP JUMP JUMPDEST PUSH1 0x0 PUSH1 0x20 DUP3 ADD SWAP1 POP DUP2 DUP2 SUB PUSH1 0x0 DUP4 ADD MSTORE PUSH2 0x133F DUP2 PUSH2 0x1159 JUMP JUMPDEST SWAP1 POP SWAP2 SWAP1 POP JUMP JUMPDEST PUSH1 0x0 PUSH1 0x20 DUP3 ADD SWAP1 POP DUP2 DUP2 SUB PUSH1 0x0 DUP4 ADD MSTORE PUSH2 0x135F DUP2 PUSH2 0x117C JUMP JUMPDEST SWAP1 POP SWAP2 SWAP1 POP JUMP JUMPDEST PUSH1 0x0 PUSH1 0x20 DUP3 ADD SWAP1 POP DUP2 DUP2 SUB PUSH1 0x0 DUP4 ADD MSTORE PUSH2 0x137F DUP2 PUSH2 0x119F JUMP JUMPDEST SWAP1 POP SWAP2 SWAP1 POP JUMP JUMPDEST PUSH1 0x0 PUSH1 0x20 DUP3 ADD SWAP1 POP DUP2 DUP2 SUB PUSH1 0x0 DUP4 ADD MSTORE PUSH2 0x139F DUP2 PUSH2 0x11C2 JUMP JUMPDEST SWAP1 POP SWAP2 SWAP1 POP JUMP JUMPDEST PUSH1 0x0 PUSH1 0x20 DUP3 ADD SWAP1 POP DUP2 DUP2 SUB PUSH1 0x0 DUP4 ADD MSTORE PUSH2 0x13BF DUP2 PUSH2 0x11E5 JUMP JUMPDEST SWAP1 POP SWAP2 SWAP1 POP JUMP JUMPDEST PUSH1 0x0 PUSH1 0x20 DUP3 ADD SWAP1 POP DUP2 DUP2 SUB PUSH1 0x0 DUP4 ADD MSTORE PUSH2 0x13DF DUP2 PUSH2 0x1208 JUMP JUMPDEST SWAP1 POP SWAP2 SWAP1 POP JUMP JUMPDEST PUSH1 0x0 PUSH1 0x20 DUP3 ADD SWAP1 POP PUSH2 0x13FB PUSH1 0x0 DUP4 ADD DUP5 PUSH2 0x122B JUMP JUMPDEST SWAP3 SWAP2 POP POP JUMP JUMPDEST PUSH1 0x0 PUSH1 0x20 DUP3 ADD SWAP1 POP PUSH2 0x1416 PUSH1 0x0 DUP4 ADD DUP5 PUSH2 0x123A JUMP JUMPDEST SWAP3 SWAP2 POP POP JUMP JUMPDEST PUSH1 0x0 DUP2 MLOAD SWAP1 POP SWAP2 SWAP1 POP JUMP JUMPDEST PUSH1 0x0 DUP3 DUP3 MSTORE PUSH1 0x20 DUP3 ADD SWAP1 POP SWAP3 SWAP2 POP POP JUMP JUMPDEST PUSH1 0x0 PUSH2 0x1443 DUP3 PUSH2 0x1500 JUMP JUMPDEST SWAP2 POP PUSH2 0x144E DUP4 PUSH2 0x1500 JUMP JUMPDEST SWAP3 POP DUP3 PUSH32 0xFFFFFFFFFFFFFFFFFFFFFFFFFFFFFFFFFFFFFFFFFFFFFFFFFFFFFFFFFFFFFFFF SUB DUP3 GT ISZERO PUSH2 0x1483 JUMPI PUSH2 0x1482 PUSH2 0x157C JUMP JUMPDEST JUMPDEST DUP3 DUP3 ADD SWAP1 POP SWAP3 SWAP2 POP POP JUMP JUMPDEST PUSH1 0x0 PUSH2 0x1499 DUP3 PUSH2 0x1500 JUMP JUMPDEST SWAP2 POP PUSH2 0x14A4 DUP4 PUSH2 0x1500 JUMP JUMPDEST SWAP3 POP DUP3 DUP3 LT ISZERO PUSH2 0x14B7 JUMPI PUSH2 0x14B6 PUSH2 0x157C JUMP JUMPDEST JUMPDEST DUP3 DUP3 SUB SWAP1 POP SWAP3 SWAP2 POP POP JUMP JUMPDEST PUSH1 0x0 PUSH2 0x14CD DUP3 PUSH2 0x14E0 JUMP JUMPDEST SWAP1 POP SWAP2 SWAP1 POP JUMP JUMPDEST PUSH1 0x0 DUP2 ISZERO ISZERO SWAP1 POP SWAP2 SWAP1 POP JUMP JUMPDEST PUSH1 0x0 PUSH20 0xFFFFFFFFFFFFFFFFFFFFFFFFFFFFFFFFFFFFFFFF DUP3 AND SWAP1 POP SWAP2 SWAP1 POP JUMP JUMPDEST PUSH1 0x0 DUP2 SWAP1 POP SWAP2 SWAP1 POP JUMP JUMPDEST PUSH1 0x0 PUSH1 0xFF DUP3 AND SWAP1 POP SWAP2 SWAP1 POP JUMP JUMPDEST PUSH1 0x0 JUMPDEST DUP4 DUP2 LT ISZERO PUSH2 0x1535 JUMPI DUP1 DUP3 ADD MLOAD DUP2 DUP5 ADD MSTORE PUSH1 0x20 DUP2 ADD SWAP1 POP PUSH2 0x151A JUMP JUMPDEST DUP4 DUP2 GT ISZERO PUSH2 0x1544 JUMPI PUSH1 0x0 DUP5 DUP5 ADD MSTORE JUMPDEST POP POP POP POP JUMP JUMPDEST PUSH1 0x0 PUSH1 0x2 DUP3 DIV SWAP1 POP PUSH1 0x1 DUP3 AND DUP1 PUSH2 0x1562 JUMPI PUSH1 0x7F DUP3 AND SWAP2 POP JUMPDEST PUSH1 0x20 DUP3 LT DUP2 EQ ISZERO PUSH2 0x1576 JUMPI PUSH2 0x1575 PUSH2 0x15AB JUMP JUMPDEST JUMPDEST POP SWAP2 SWAP1 POP JUMP JUMPDEST PUSH32 0x4E487B7100000000000000000000000000000000000000000000000000000000 PUSH1 0x0 MSTORE PUSH1 0x11 PUSH1 0x4 MSTORE PUSH1 0x24 PUSH1 0x0 REVERT JUMPDEST PUSH32 0x4E487B7100000000000000000000000000000000000000000000000000000000 PUSH1 0x0 MSTORE PUSH1 0x22 PUSH1 0x4 MSTORE PUSH1 0x24 PUSH1 0x0 REVERT JUMPDEST PUSH1 0x0 DUP1 REVERT JUMPDEST PUSH1 0x0 PUSH1 0x1F NOT PUSH1 0x1F DUP4 ADD AND SWAP1 POP SWAP2 SWAP1 POP JUMP JUMPDEST PUSH32 0x43616E6E6F74206D696E7420746F20746865207A65726F206164647265737300 PUSH1 0x0 DUP3 ADD MSTORE POP JUMP JUMPDEST PUSH32 0x726571756573746572206D7573742068617665206D696E74657220726F6C6520 PUSH1 0x0 DUP3 ADD MSTORE PUSH32 0x746F206D696E7400000000000000000000000000000000000000000000000000 PUSH1 0x20 DUP3 ADD MSTORE POP JUMP JUMPDEST PUSH32 0x43616E6E6F7420646563726561736520746F206E6567617469766520616C6C6F PUSH1 0x0 DUP3 ADD MSTORE PUSH32 0x77616E6365000000000000000000000000000000000000000000000000000000 PUSH1 0x20 DUP3 ADD MSTORE POP JUMP JUMPDEST PUSH32 0x417070726F76616C2066726F6D207A65726F2061646472657373000000000000 PUSH1 0x0 DUP3 ADD MSTORE POP JUMP JUMPDEST PUSH32 0x496E73756666696369656E742062616C616E636520666F72207472616E736665 PUSH1 0x0 DUP3 ADD MSTORE PUSH32 0x7200000000000000000000000000000000000000000000000000000000000000 PUSH1 0x20 DUP3 ADD MSTORE POP JUMP JUMPDEST PUSH32 0x5472616E736665722066726F6D207A65726F2061646472657373000000000000 PUSH1 0x0 DUP3 ADD MSTORE POP JUMP JUMPDEST PUSH32 0x43757272656E7420616C6C6F77616E636520696E73756666696369656E740000 PUSH1 0x0 DUP3 ADD MSTORE POP JUMP JUMPDEST PUSH32 0x5472616E7366657220746F207A65726F20616464726573730000000000000000 PUSH1 0x0 DUP3 ADD MSTORE POP JUMP JUMPDEST PUSH32 0x496E73756666696369656E742062616C616E636520746F206275726E00000000 PUSH1 0x0 DUP3 ADD MSTORE POP JUMP JUMPDEST PUSH32 0x417070726F76616C20746F207A65726F20616464726573730000000000000000 PUSH1 0x0 DUP3 ADD MSTORE POP JUMP JUMPDEST PUSH32 0x43616E6E6F74206275726E2066726F6D20746865207A65726F20616464726573 PUSH1 0x0 DUP3 ADD MSTORE PUSH32 0x7300000000000000000000000000000000000000000000000000000000000000 PUSH1 0x20 DUP3 ADD MSTORE POP JUMP JUMPDEST PUSH2 0x1854 DUP2 PUSH2 0x14C2 JUMP JUMPDEST DUP2 EQ PUSH2 0x185F JUMPI PUSH1 0x0 DUP1 REVERT JUMPDEST POP JUMP JUMPDEST PUSH2 0x186B DUP2 PUSH2 0x1500 JUMP JUMPDEST DUP2 EQ PUSH2 0x1876 JUMPI PUSH1 0x0 DUP1 REVERT JUMPDEST POP JUMP INVALID LOG2 PUSH5 0x6970667358 0x22 SLT KECCAK256 STOP PUSH11 0x1E7F7FA55B92FB1D4F70C3 0xDB EXTCODESIZE 0x4C 0xDB PUSH13 0x2E5C3CC4B162AA1A9CB4F713B2 PUSH4 0x64736F6C PUSH4 0x43000807 STOP CALLER "
				},
				"gasEstimates": {
					"creation": {
						"codeDepositCost": "1263800",
						"executionCost": "infinite",
						"totalCost": "infinite"
					},
					"external": {
						"allowance(address,address)": "infinite",
						"approve(address,uint256)": "infinite",
						"balanceOf(address)": "2908",
						"burn(uint256)": "infinite",
						"burnFrom(address,uint256)": "infinite",
						"decimals()": "410",
						"decreaseAllowance(address,uint256)": "infinite",
						"hasMinterRole(address)": "2951",
						"increaseAllowance(address,uint256)": "infinite",
						"mint(address,uint256)": "infinite",
						"name()": "infinite",
						"symbol()": "infinite",
						"totalSupply()": "2460",
						"transfer(address,uint256)": "infinite",
						"transferFrom(address,address,uint256)": "infinite"
					}
				},
				"methodIdentifiers": {
					"allowance(address,address)": "dd62ed3e",
					"approve(address,uint256)": "095ea7b3",
					"balanceOf(address)": "70a08231",
					"burn(uint256)": "42966c68",
					"burnFrom(address,uint256)": "79cc6790",
					"decimals()": "313ce567",
					"decreaseAllowance(address,uint256)": "a457c2d7",
					"hasMinterRole(address)": "099db017",
					"increaseAllowance(address,uint256)": "39509351",
					"mint(address,uint256)": "40c10f19",
					"name()": "06fdde03",
					"symbol()": "95d89b41",
					"totalSupply()": "18160ddd",
					"transfer(address,uint256)": "a9059cbb",
					"transferFrom(address,address,uint256)": "23b872dd"
				}
			},
			"storageLayout": {
				"storage": [
					{
						"astId": 27,
						"contract": "contracts/LuckyTokenSkeleton.sol:LuckyToken",
						"label": "_balances",
						"offset": 0,
						"slot": "0",
						"type": "t_mapping(t_address,t_uint256)"
					},
					{
						"astId": 33,
						"contract": "contracts/LuckyTokenSkeleton.sol:LuckyToken",
						"label": "_allowances",
						"offset": 0,
						"slot": "1",
						"type": "t_mapping(t_address,t_mapping(t_address,t_uint256))"
					},
					{
						"astId": 53,
						"contract": "contracts/LuckyTokenSkeleton.sol:LuckyToken",
						"label": "_totalSupply",
						"offset": 0,
						"slot": "2",
						"type": "t_uint256"
					},
					{
						"astId": 55,
						"contract": "contracts/LuckyTokenSkeleton.sol:LuckyToken",
						"label": "_name",
						"offset": 0,
						"slot": "3",
						"type": "t_string_storage"
					},
					{
						"astId": 57,
						"contract": "contracts/LuckyTokenSkeleton.sol:LuckyToken",
						"label": "_symbol",
						"offset": 0,
						"slot": "4",
						"type": "t_string_storage"
					},
					{
						"astId": 551,
						"contract": "contracts/LuckyTokenSkeleton.sol:LuckyToken",
						"label": "_minters",
						"offset": 0,
						"slot": "5",
						"type": "t_mapping(t_address,t_bool)"
					}
				],
				"types": {
					"t_address": {
						"encoding": "inplace",
						"label": "address",
						"numberOfBytes": "20"
					},
					"t_bool": {
						"encoding": "inplace",
						"label": "bool",
						"numberOfBytes": "1"
					},
					"t_mapping(t_address,t_bool)": {
						"encoding": "mapping",
						"key": "t_address",
						"label": "mapping(address => bool)",
						"numberOfBytes": "32",
						"value": "t_bool"
					},
					"t_mapping(t_address,t_mapping(t_address,t_uint256))": {
						"encoding": "mapping",
						"key": "t_address",
						"label": "mapping(address => mapping(address => uint256))",
						"numberOfBytes": "32",
						"value": "t_mapping(t_address,t_uint256)"
					},
					"t_mapping(t_address,t_uint256)": {
						"encoding": "mapping",
						"key": "t_address",
						"label": "mapping(address => uint256)",
						"numberOfBytes": "32",
						"value": "t_uint256"
					},
					"t_string_storage": {
						"encoding": "bytes",
						"label": "string",
						"numberOfBytes": "32"
					},
					"t_uint256": {
						"encoding": "inplace",
						"label": "uint256",
						"numberOfBytes": "32"
					}
				}
			},
			"userdoc": {
				"kind": "user",
				"methods": {
					"allowance(address,address)": {
						"notice": "TODO"
					},
					"approve(address,uint256)": {
						"notice": "TODO"
					},
					"decreaseAllowance(address,uint256)": {
						"notice": "TODO"
					},
					"increaseAllowance(address,uint256)": {
						"notice": "TODO"
					},
					"transfer(address,uint256)": {
						"notice": "TODO"
					},
					"transferFrom(address,address,uint256)": {
						"notice": "TODO"
					}
				},
				"version": 1
			}
		}
	}
}