{
	"contracts/RoleIndex.sol": {
		"AddressList": {
			"abi": [
				{
					"inputs": [
						{
							"internalType": "address",
							"name": "newAddress",
							"type": "address"
						}
					],
					"name": "addAddress",
					"outputs": [],
					"stateMutability": "nonpayable",
					"type": "function"
				},
				{
					"inputs": [
						{
							"internalType": "uint256",
							"name": "",
							"type": "uint256"
						}
					],
					"name": "addresses",
					"outputs": [
						{
							"internalType": "address",
							"name": "",
							"type": "address"
						}
					],
					"stateMutability": "view",
					"type": "function"
				},
				{
					"inputs": [],
					"name": "getAllAddresses",
					"outputs": [
						{
							"internalType": "address[]",
							"name": "",
							"type": "address[]"
						}
					],
					"stateMutability": "view",
					"type": "function"
				},
				{
					"inputs": [
						{
							"internalType": "uint256",
							"name": "index",
							"type": "uint256"
						}
					],
					"name": "removeAddress",
					"outputs": [],
					"stateMutability": "nonpayable",
					"type": "function"
				}
			],
			"devdoc": {
				"kind": "dev",
				"methods": {},
				"version": 1
			},
			"evm": {
				"assembly": "    /* \"contracts/RoleIndex.sol\":25:485  contract AddressList {... */\n  mstore(0x40, 0x80)\n  callvalue\n  dup1\n  iszero\n  tag_1\n  jumpi\n  0x00\n  dup1\n  revert\ntag_1:\n  pop\n  dataSize(sub_0)\n  dup1\n  dataOffset(sub_0)\n  0x00\n  codecopy\n  0x00\n  return\nstop\n\nsub_0: assembly {\n        /* \"contracts/RoleIndex.sol\":25:485  contract AddressList {... */\n      mstore(0x40, 0x80)\n      callvalue\n      dup1\n      iszero\n      tag_1\n      jumpi\n      0x00\n      dup1\n      revert\n    tag_1:\n      pop\n      jumpi(tag_2, lt(calldatasize, 0x04))\n      shr(0xe0, calldataload(0x00))\n      dup1\n      0x38eada1c\n      eq\n      tag_3\n      jumpi\n      dup1\n      0x9516a104\n      eq\n      tag_4\n      jumpi\n      dup1\n      0xdf945c6e\n      eq\n      tag_5\n      jumpi\n      dup1\n      0xedf26d9b\n      eq\n      tag_6\n      jumpi\n    tag_2:\n      0x00\n      dup1\n      revert\n        /* \"contracts/RoleIndex.sol\":85:175  function addAddress(address newAddress) public {... */\n    tag_3:\n      tag_7\n      0x04\n      dup1\n      calldatasize\n      sub\n      dup2\n      add\n      swap1\n      tag_8\n      swap2\n      swap1\n      tag_9\n      jump\t// in\n    tag_8:\n      tag_10\n      jump\t// in\n    tag_7:\n      stop\n        /* \"contracts/RoleIndex.sol\":384:483  function getAllAddresses() public view returns (address[] memory) {... */\n    tag_4:\n      tag_11\n      tag_12\n      jump\t// in\n    tag_11:\n      mload(0x40)\n      tag_13\n      swap2\n      swap1\n      tag_14\n      jump\t// in\n    tag_13:\n      mload(0x40)\n      dup1\n      swap2\n      sub\n      swap1\n      return\n        /* \"contracts/RoleIndex.sol\":181:378  function removeAddress(uint256 index) public {... */\n    tag_5:\n      tag_15\n      0x04\n      dup1\n      calldatasize\n      sub\n      dup2\n      add\n      swap1\n      tag_16\n      swap2\n      swap1\n      tag_17\n      jump\t// in\n    tag_16:\n      tag_18\n      jump\t// in\n    tag_15:\n      stop\n        /* \"contracts/RoleIndex.sol\":52:78  address[] public addresses */\n    tag_6:\n      tag_19\n      0x04\n      dup1\n      calldatasize\n      sub\n      dup2\n      add\n      swap1\n      tag_20\n      swap2\n      swap1\n      tag_17\n      jump\t// in\n    tag_20:\n      tag_21\n      jump\t// in\n    tag_19:\n      mload(0x40)\n      tag_22\n      swap2\n      swap1\n      tag_23\n      jump\t// in\n    tag_22:\n      mload(0x40)\n      dup1\n      swap2\n      sub\n      swap1\n      return\n        /* \"contracts/RoleIndex.sol\":85:175  function addAddress(address newAddress) public {... */\n    tag_10:\n        /* \"contracts/RoleIndex.sol\":142:151  addresses */\n      0x00\n        /* \"contracts/RoleIndex.sol\":157:167  newAddress */\n      dup2\n        /* \"contracts/RoleIndex.sol\":142:168  addresses.push(newAddress) */\n      swap1\n      dup1\n      0x01\n      dup2\n      sload\n      add\n      dup1\n      dup3\n      sstore\n      dup1\n      swap2\n      pop\n      pop\n      0x01\n      swap1\n      sub\n      swap1\n      0x00\n      mstore\n      keccak256(0x00, 0x20)\n      add\n      0x00\n      swap1\n      swap2\n      swap1\n      swap2\n      swap1\n      swap2\n      0x0100\n      exp\n      dup2\n      sload\n      dup2\n      0xffffffffffffffffffffffffffffffffffffffff\n      mul\n      not\n      and\n      swap1\n      dup4\n      0xffffffffffffffffffffffffffffffffffffffff\n      and\n      mul\n      or\n      swap1\n      sstore\n      pop\n        /* \"contracts/RoleIndex.sol\":85:175  function addAddress(address newAddress) public {... */\n      pop\n      jump\t// out\n        /* \"contracts/RoleIndex.sol\":384:483  function getAllAddresses() public view returns (address[] memory) {... */\n    tag_12:\n        /* \"contracts/RoleIndex.sol\":432:448  address[] memory */\n      0x60\n        /* \"contracts/RoleIndex.sol\":467:476  addresses */\n      0x00\n        /* \"contracts/RoleIndex.sol\":460:476  return addresses */\n      dup1\n      sload\n      dup1\n      0x20\n      mul\n      0x20\n      add\n      mload(0x40)\n      swap1\n      dup2\n      add\n      0x40\n      mstore\n      dup1\n      swap3\n      swap2\n      swap1\n      dup2\n      dup2\n      mstore\n      0x20\n      add\n      dup3\n      dup1\n      sload\n      dup1\n      iszero\n      tag_27\n      jumpi\n      0x20\n      mul\n      dup3\n      add\n      swap2\n      swap1\n      0x00\n      mstore\n      keccak256(0x00, 0x20)\n      swap1\n    tag_28:\n      dup2\n      0x00\n      swap1\n      sload\n      swap1\n      0x0100\n      exp\n      swap1\n      div\n      0xffffffffffffffffffffffffffffffffffffffff\n      and\n      0xffffffffffffffffffffffffffffffffffffffff\n      and\n      dup2\n      mstore\n      0x20\n      add\n      swap1\n      0x01\n      add\n      swap1\n      dup1\n      dup4\n      gt\n      tag_28\n      jumpi\n    tag_27:\n      pop\n      pop\n      pop\n      pop\n      pop\n      swap1\n      pop\n        /* \"contracts/RoleIndex.sol\":384:483  function getAllAddresses() public view returns (address[] memory) {... */\n      swap1\n      jump\t// out\n        /* \"contracts/RoleIndex.sol\":181:378  function removeAddress(uint256 index) public {... */\n    tag_18:\n        /* \"contracts/RoleIndex.sol\":252:261  addresses */\n      0x00\n        /* \"contracts/RoleIndex.sol\":252:268  addresses.length */\n      dup1\n      sload\n      swap1\n      pop\n        /* \"contracts/RoleIndex.sol\":244:249  index */\n      dup2\n        /* \"contracts/RoleIndex.sol\":244:268  index < addresses.length */\n      lt\n        /* \"contracts/RoleIndex.sol\":236:286  require(index < addresses.length, \"Invalid index\") */\n      tag_30\n      jumpi\n      mload(0x40)\n      0x08c379a000000000000000000000000000000000000000000000000000000000\n      dup2\n      mstore\n      0x04\n      add\n      tag_31\n      swap1\n      tag_32\n      jump\t// in\n    tag_31:\n      mload(0x40)\n      dup1\n      swap2\n      sub\n      swap1\n      revert\n    tag_30:\n        /* \"contracts/RoleIndex.sol\":315:324  addresses */\n      0x00\n        /* \"contracts/RoleIndex.sol\":344:345  1 */\n      0x01\n        /* \"contracts/RoleIndex.sol\":325:334  addresses */\n      0x00\n        /* \"contracts/RoleIndex.sol\":325:341  addresses.length */\n      dup1\n      sload\n      swap1\n      pop\n        /* \"contracts/RoleIndex.sol\":325:345  addresses.length - 1 */\n      tag_33\n      swap2\n      swap1\n      tag_34\n      jump\t// in\n    tag_33:\n        /* \"contracts/RoleIndex.sol\":315:346  addresses[addresses.length - 1] */\n      dup2\n      sload\n      dup2\n      lt\n      tag_35\n      jumpi\n      mstore(0x00, 0x4e487b7100000000000000000000000000000000000000000000000000000000)\n      mstore(0x04, 0x32)\n      revert(0x00, 0x24)\n    tag_35:\n      swap1\n      0x00\n      mstore\n      keccak256(0x00, 0x20)\n      add\n      0x00\n      swap1\n      sload\n      swap1\n      0x0100\n      exp\n      swap1\n      div\n      0xffffffffffffffffffffffffffffffffffffffff\n      and\n        /* \"contracts/RoleIndex.sol\":296:305  addresses */\n      0x00\n        /* \"contracts/RoleIndex.sol\":306:311  index */\n      dup3\n        /* \"contracts/RoleIndex.sol\":296:312  addresses[index] */\n      dup2\n      sload\n      dup2\n      lt\n      tag_37\n      jumpi\n      mstore(0x00, 0x4e487b7100000000000000000000000000000000000000000000000000000000)\n      mstore(0x04, 0x32)\n      revert(0x00, 0x24)\n    tag_37:\n      swap1\n      0x00\n      mstore\n      keccak256(0x00, 0x20)\n      add\n      0x00\n        /* \"contracts/RoleIndex.sol\":296:346  addresses[index] = addresses[addresses.length - 1] */\n      0x0100\n      exp\n      dup2\n      sload\n      dup2\n      0xffffffffffffffffffffffffffffffffffffffff\n      mul\n      not\n      and\n      swap1\n      dup4\n      0xffffffffffffffffffffffffffffffffffffffff\n      and\n      mul\n      or\n      swap1\n      sstore\n      pop\n        /* \"contracts/RoleIndex.sol\":356:365  addresses */\n      0x00\n        /* \"contracts/RoleIndex.sol\":356:371  addresses.pop() */\n      dup1\n      sload\n      dup1\n      tag_39\n      jumpi\n      mstore(0x00, 0x4e487b7100000000000000000000000000000000000000000000000000000000)\n      mstore(0x04, 0x31)\n      revert(0x00, 0x24)\n    tag_39:\n      0x01\n      swap1\n      sub\n      dup2\n      dup2\n      swap1\n      0x00\n      mstore\n      keccak256(0x00, 0x20)\n      add\n      exp(0x0100, 0x00)\n      dup2\n      sload\n      swap1\n      0xffffffffffffffffffffffffffffffffffffffff\n      mul\n      not\n      and\n      swap1\n      sstore\n      swap1\n      sstore\n        /* \"contracts/RoleIndex.sol\":181:378  function removeAddress(uint256 index) public {... */\n      pop\n      jump\t// out\n        /* \"contracts/RoleIndex.sol\":52:78  address[] public addresses */\n    tag_21:\n      0x00\n      dup2\n      dup2\n      sload\n      dup2\n      lt\n      tag_41\n      jumpi\n      0x00\n      dup1\n      revert\n    tag_41:\n      swap1\n      0x00\n      mstore\n      keccak256(0x00, 0x20)\n      add\n      0x00\n      swap2\n      pop\n      sload\n      swap1\n      0x0100\n      exp\n      swap1\n      div\n      0xffffffffffffffffffffffffffffffffffffffff\n      and\n      dup2\n      jump\t// out\n        /* \"#utility.yul\":7:146   */\n    tag_44:\n      0x00\n        /* \"#utility.yul\":91:97   */\n      dup2\n        /* \"#utility.yul\":78:98   */\n      calldataload\n        /* \"#utility.yul\":69:98   */\n      swap1\n      pop\n        /* \"#utility.yul\":107:140   */\n      tag_46\n        /* \"#utility.yul\":134:139   */\n      dup2\n        /* \"#utility.yul\":107:140   */\n      tag_47\n      jump\t// in\n    tag_46:\n        /* \"#utility.yul\":59:146   */\n      swap3\n      swap2\n      pop\n      pop\n      jump\t// out\n        /* \"#utility.yul\":152:291   */\n    tag_48:\n      0x00\n        /* \"#utility.yul\":236:242   */\n      dup2\n        /* \"#utility.yul\":223:243   */\n      calldataload\n        /* \"#utility.yul\":214:243   */\n      swap1\n      pop\n        /* \"#utility.yul\":252:285   */\n      tag_50\n        /* \"#utility.yul\":279:284   */\n      dup2\n        /* \"#utility.yul\":252:285   */\n      tag_51\n      jump\t// in\n    tag_50:\n        /* \"#utility.yul\":204:291   */\n      swap3\n      swap2\n      pop\n      pop\n      jump\t// out\n        /* \"#utility.yul\":297:559   */\n    tag_9:\n      0x00\n        /* \"#utility.yul\":405:407   */\n      0x20\n        /* \"#utility.yul\":393:402   */\n      dup3\n        /* \"#utility.yul\":384:391   */\n      dup5\n        /* \"#utility.yul\":380:403   */\n      sub\n        /* \"#utility.yul\":376:408   */\n      slt\n        /* \"#utility.yul\":373:375   */\n      iszero\n      tag_53\n      jumpi\n        /* \"#utility.yul\":421:422   */\n      0x00\n        /* \"#utility.yul\":418:419   */\n      dup1\n        /* \"#utility.yul\":411:423   */\n      revert\n        /* \"#utility.yul\":373:375   */\n    tag_53:\n        /* \"#utility.yul\":464:465   */\n      0x00\n        /* \"#utility.yul\":489:542   */\n      tag_54\n        /* \"#utility.yul\":534:541   */\n      dup5\n        /* \"#utility.yul\":525:531   */\n      dup3\n        /* \"#utility.yul\":514:523   */\n      dup6\n        /* \"#utility.yul\":510:532   */\n      add\n        /* \"#utility.yul\":489:542   */\n      tag_44\n      jump\t// in\n    tag_54:\n        /* \"#utility.yul\":479:542   */\n      swap2\n      pop\n        /* \"#utility.yul\":435:552   */\n      pop\n        /* \"#utility.yul\":363:559   */\n      swap3\n      swap2\n      pop\n      pop\n      jump\t// out\n        /* \"#utility.yul\":565:827   */\n    tag_17:\n      0x00\n        /* \"#utility.yul\":673:675   */\n      0x20\n        /* \"#utility.yul\":661:670   */\n      dup3\n        /* \"#utility.yul\":652:659   */\n      dup5\n        /* \"#utility.yul\":648:671   */\n      sub\n        /* \"#utility.yul\":644:676   */\n      slt\n        /* \"#utility.yul\":641:643   */\n      iszero\n      tag_56\n      jumpi\n        /* \"#utility.yul\":689:690   */\n      0x00\n        /* \"#utility.yul\":686:687   */\n      dup1\n        /* \"#utility.yul\":679:691   */\n      revert\n        /* \"#utility.yul\":641:643   */\n    tag_56:\n        /* \"#utility.yul\":732:733   */\n      0x00\n        /* \"#utility.yul\":757:810   */\n      tag_57\n        /* \"#utility.yul\":802:809   */\n      dup5\n        /* \"#utility.yul\":793:799   */\n      dup3\n        /* \"#utility.yul\":782:791   */\n      dup6\n        /* \"#utility.yul\":778:800   */\n      add\n        /* \"#utility.yul\":757:810   */\n      tag_48\n      jump\t// in\n    tag_57:\n        /* \"#utility.yul\":747:810   */\n      swap2\n      pop\n        /* \"#utility.yul\":703:820   */\n      pop\n        /* \"#utility.yul\":631:827   */\n      swap3\n      swap2\n      pop\n      pop\n      jump\t// out\n        /* \"#utility.yul\":833:1012   */\n    tag_58:\n      0x00\n        /* \"#utility.yul\":923:969   */\n      tag_60\n        /* \"#utility.yul\":965:968   */\n      dup4\n        /* \"#utility.yul\":957:963   */\n      dup4\n        /* \"#utility.yul\":923:969   */\n      tag_61\n      jump\t// in\n    tag_60:\n        /* \"#utility.yul\":1001:1005   */\n      0x20\n        /* \"#utility.yul\":996:999   */\n      dup4\n        /* \"#utility.yul\":992:1006   */\n      add\n        /* \"#utility.yul\":978:1006   */\n      swap1\n      pop\n        /* \"#utility.yul\":913:1012   */\n      swap3\n      swap2\n      pop\n      pop\n      jump\t// out\n        /* \"#utility.yul\":1018:1126   */\n    tag_61:\n        /* \"#utility.yul\":1095:1119   */\n      tag_63\n        /* \"#utility.yul\":1113:1118   */\n      dup2\n        /* \"#utility.yul\":1095:1119   */\n      tag_64\n      jump\t// in\n    tag_63:\n        /* \"#utility.yul\":1090:1093   */\n      dup3\n        /* \"#utility.yul\":1083:1120   */\n      mstore\n        /* \"#utility.yul\":1073:1126   */\n      pop\n      pop\n      jump\t// out\n        /* \"#utility.yul\":1132:1250   */\n    tag_65:\n        /* \"#utility.yul\":1219:1243   */\n      tag_67\n        /* \"#utility.yul\":1237:1242   */\n      dup2\n        /* \"#utility.yul\":1219:1243   */\n      tag_64\n      jump\t// in\n    tag_67:\n        /* \"#utility.yul\":1214:1217   */\n      dup3\n        /* \"#utility.yul\":1207:1244   */\n      mstore\n        /* \"#utility.yul\":1197:1250   */\n      pop\n      pop\n      jump\t// out\n        /* \"#utility.yul\":1286:2018   */\n    tag_68:\n      0x00\n        /* \"#utility.yul\":1434:1488   */\n      tag_70\n        /* \"#utility.yul\":1482:1487   */\n      dup3\n        /* \"#utility.yul\":1434:1488   */\n      tag_71\n      jump\t// in\n    tag_70:\n        /* \"#utility.yul\":1504:1590   */\n      tag_72\n        /* \"#utility.yul\":1583:1589   */\n      dup2\n        /* \"#utility.yul\":1578:1581   */\n      dup6\n        /* \"#utility.yul\":1504:1590   */\n      tag_73\n      jump\t// in\n    tag_72:\n        /* \"#utility.yul\":1497:1590   */\n      swap4\n      pop\n        /* \"#utility.yul\":1614:1670   */\n      tag_74\n        /* \"#utility.yul\":1664:1669   */\n      dup4\n        /* \"#utility.yul\":1614:1670   */\n      tag_75\n      jump\t// in\n    tag_74:\n        /* \"#utility.yul\":1693:1700   */\n      dup1\n        /* \"#utility.yul\":1724:1725   */\n      0x00\n        /* \"#utility.yul\":1709:1993   */\n    tag_76:\n        /* \"#utility.yul\":1734:1740   */\n      dup4\n        /* \"#utility.yul\":1731:1732   */\n      dup2\n        /* \"#utility.yul\":1728:1741   */\n      lt\n        /* \"#utility.yul\":1709:1993   */\n      iszero\n      tag_78\n      jumpi\n        /* \"#utility.yul\":1810:1816   */\n      dup2\n        /* \"#utility.yul\":1804:1817   */\n      mload\n        /* \"#utility.yul\":1837:1900   */\n      tag_79\n        /* \"#utility.yul\":1896:1899   */\n      dup9\n        /* \"#utility.yul\":1881:1894   */\n      dup3\n        /* \"#utility.yul\":1837:1900   */\n      tag_58\n      jump\t// in\n    tag_79:\n        /* \"#utility.yul\":1830:1900   */\n      swap8\n      pop\n        /* \"#utility.yul\":1923:1983   */\n      tag_80\n        /* \"#utility.yul\":1976:1982   */\n      dup4\n        /* \"#utility.yul\":1923:1983   */\n      tag_81\n      jump\t// in\n    tag_80:\n        /* \"#utility.yul\":1913:1983   */\n      swap3\n      pop\n        /* \"#utility.yul\":1769:1993   */\n      pop\n        /* \"#utility.yul\":1756:1757   */\n      0x01\n        /* \"#utility.yul\":1753:1754   */\n      dup2\n        /* \"#utility.yul\":1749:1758   */\n      add\n        /* \"#utility.yul\":1744:1758   */\n      swap1\n      pop\n        /* \"#utility.yul\":1709:1993   */\n      jump(tag_76)\n    tag_78:\n        /* \"#utility.yul\":1713:1727   */\n      pop\n        /* \"#utility.yul\":2009:2012   */\n      dup6\n        /* \"#utility.yul\":2002:2012   */\n      swap4\n      pop\n        /* \"#utility.yul\":1410:2018   */\n      pop\n      pop\n      pop\n      swap3\n      swap2\n      pop\n      pop\n      jump\t// out\n        /* \"#utility.yul\":2024:2335   */\n    tag_82:\n      0x00\n        /* \"#utility.yul\":2187:2254   */\n      tag_84\n        /* \"#utility.yul\":2251:2253   */\n      0x0d\n        /* \"#utility.yul\":2246:2249   */\n      dup4\n        /* \"#utility.yul\":2187:2254   */\n      tag_85\n      jump\t// in\n    tag_84:\n        /* \"#utility.yul\":2180:2254   */\n      swap2\n      pop\n        /* \"#utility.yul\":2284:2299   */\n      0x496e76616c696420696e64657800000000000000000000000000000000000000\n        /* \"#utility.yul\":2280:2281   */\n      0x00\n        /* \"#utility.yul\":2275:2278   */\n      dup4\n        /* \"#utility.yul\":2271:2282   */\n      add\n        /* \"#utility.yul\":2264:2300   */\n      mstore\n        /* \"#utility.yul\":2326:2328   */\n      0x20\n        /* \"#utility.yul\":2321:2324   */\n      dup3\n        /* \"#utility.yul\":2317:2329   */\n      add\n        /* \"#utility.yul\":2310:2329   */\n      swap1\n      pop\n        /* \"#utility.yul\":2170:2335   */\n      swap2\n      swap1\n      pop\n      jump\t// out\n        /* \"#utility.yul\":2341:2563   */\n    tag_23:\n      0x00\n        /* \"#utility.yul\":2472:2474   */\n      0x20\n        /* \"#utility.yul\":2461:2470   */\n      dup3\n        /* \"#utility.yul\":2457:2475   */\n      add\n        /* \"#utility.yul\":2449:2475   */\n      swap1\n      pop\n        /* \"#utility.yul\":2485:2556   */\n      tag_87\n        /* \"#utility.yul\":2553:2554   */\n      0x00\n        /* \"#utility.yul\":2542:2551   */\n      dup4\n        /* \"#utility.yul\":2538:2555   */\n      add\n        /* \"#utility.yul\":2529:2535   */\n      dup5\n        /* \"#utility.yul\":2485:2556   */\n      tag_65\n      jump\t// in\n    tag_87:\n        /* \"#utility.yul\":2439:2563   */\n      swap3\n      swap2\n      pop\n      pop\n      jump\t// out\n        /* \"#utility.yul\":2569:2942   */\n    tag_14:\n      0x00\n        /* \"#utility.yul\":2750:2752   */\n      0x20\n        /* \"#utility.yul\":2739:2748   */\n      dup3\n        /* \"#utility.yul\":2735:2753   */\n      add\n        /* \"#utility.yul\":2727:2753   */\n      swap1\n      pop\n        /* \"#utility.yul\":2799:2808   */\n      dup2\n        /* \"#utility.yul\":2793:2797   */\n      dup2\n        /* \"#utility.yul\":2789:2809   */\n      sub\n        /* \"#utility.yul\":2785:2786   */\n      0x00\n        /* \"#utility.yul\":2774:2783   */\n      dup4\n        /* \"#utility.yul\":2770:2787   */\n      add\n        /* \"#utility.yul\":2763:2810   */\n      mstore\n        /* \"#utility.yul\":2827:2935   */\n      tag_89\n        /* \"#utility.yul\":2930:2934   */\n      dup2\n        /* \"#utility.yul\":2921:2927   */\n      dup5\n        /* \"#utility.yul\":2827:2935   */\n      tag_68\n      jump\t// in\n    tag_89:\n        /* \"#utility.yul\":2819:2935   */\n      swap1\n      pop\n        /* \"#utility.yul\":2717:2942   */\n      swap3\n      swap2\n      pop\n      pop\n      jump\t// out\n        /* \"#utility.yul\":2948:3367   */\n    tag_32:\n      0x00\n        /* \"#utility.yul\":3152:3154   */\n      0x20\n        /* \"#utility.yul\":3141:3150   */\n      dup3\n        /* \"#utility.yul\":3137:3155   */\n      add\n        /* \"#utility.yul\":3129:3155   */\n      swap1\n      pop\n        /* \"#utility.yul\":3201:3210   */\n      dup2\n        /* \"#utility.yul\":3195:3199   */\n      dup2\n        /* \"#utility.yul\":3191:3211   */\n      sub\n        /* \"#utility.yul\":3187:3188   */\n      0x00\n        /* \"#utility.yul\":3176:3185   */\n      dup4\n        /* \"#utility.yul\":3172:3189   */\n      add\n        /* \"#utility.yul\":3165:3212   */\n      mstore\n        /* \"#utility.yul\":3229:3360   */\n      tag_91\n        /* \"#utility.yul\":3355:3359   */\n      dup2\n        /* \"#utility.yul\":3229:3360   */\n      tag_82\n      jump\t// in\n    tag_91:\n        /* \"#utility.yul\":3221:3360   */\n      swap1\n      pop\n        /* \"#utility.yul\":3119:3367   */\n      swap2\n      swap1\n      pop\n      jump\t// out\n        /* \"#utility.yul\":3373:3505   */\n    tag_75:\n      0x00\n        /* \"#utility.yul\":3463:3466   */\n      dup2\n        /* \"#utility.yul\":3455:3466   */\n      swap1\n      pop\n        /* \"#utility.yul\":3493:3497   */\n      0x20\n        /* \"#utility.yul\":3488:3491   */\n      dup3\n        /* \"#utility.yul\":3484:3498   */\n      add\n        /* \"#utility.yul\":3476:3498   */\n      swap1\n      pop\n        /* \"#utility.yul\":3445:3505   */\n      swap2\n      swap1\n      pop\n      jump\t// out\n        /* \"#utility.yul\":3511:3625   */\n    tag_71:\n      0x00\n        /* \"#utility.yul\":3612:3617   */\n      dup2\n        /* \"#utility.yul\":3606:3618   */\n      mload\n        /* \"#utility.yul\":3596:3618   */\n      swap1\n      pop\n        /* \"#utility.yul\":3585:3625   */\n      swap2\n      swap1\n      pop\n      jump\t// out\n        /* \"#utility.yul\":3631:3744   */\n    tag_81:\n      0x00\n        /* \"#utility.yul\":3733:3737   */\n      0x20\n        /* \"#utility.yul\":3728:3731   */\n      dup3\n        /* \"#utility.yul\":3724:3738   */\n      add\n        /* \"#utility.yul\":3716:3738   */\n      swap1\n      pop\n        /* \"#utility.yul\":3706:3744   */\n      swap2\n      swap1\n      pop\n      jump\t// out\n        /* \"#utility.yul\":3750:3934   */\n    tag_73:\n      0x00\n        /* \"#utility.yul\":3883:3889   */\n      dup3\n        /* \"#utility.yul\":3878:3881   */\n      dup3\n        /* \"#utility.yul\":3871:3890   */\n      mstore\n        /* \"#utility.yul\":3923:3927   */\n      0x20\n        /* \"#utility.yul\":3918:3921   */\n      dup3\n        /* \"#utility.yul\":3914:3928   */\n      add\n        /* \"#utility.yul\":3899:3928   */\n      swap1\n      pop\n        /* \"#utility.yul\":3861:3934   */\n      swap3\n      swap2\n      pop\n      pop\n      jump\t// out\n        /* \"#utility.yul\":3940:4109   */\n    tag_85:\n      0x00\n        /* \"#utility.yul\":4058:4064   */\n      dup3\n        /* \"#utility.yul\":4053:4056   */\n      dup3\n        /* \"#utility.yul\":4046:4065   */\n      mstore\n        /* \"#utility.yul\":4098:4102   */\n      0x20\n        /* \"#utility.yul\":4093:4096   */\n      dup3\n        /* \"#utility.yul\":4089:4103   */\n      add\n        /* \"#utility.yul\":4074:4103   */\n      swap1\n      pop\n        /* \"#utility.yul\":4036:4109   */\n      swap3\n      swap2\n      pop\n      pop\n      jump\t// out\n        /* \"#utility.yul\":4115:4306   */\n    tag_34:\n      0x00\n        /* \"#utility.yul\":4175:4195   */\n      tag_98\n        /* \"#utility.yul\":4193:4194   */\n      dup3\n        /* \"#utility.yul\":4175:4195   */\n      tag_99\n      jump\t// in\n    tag_98:\n        /* \"#utility.yul\":4170:4195   */\n      swap2\n      pop\n        /* \"#utility.yul\":4209:4229   */\n      tag_100\n        /* \"#utility.yul\":4227:4228   */\n      dup4\n        /* \"#utility.yul\":4209:4229   */\n      tag_99\n      jump\t// in\n    tag_100:\n        /* \"#utility.yul\":4204:4229   */\n      swap3\n      pop\n        /* \"#utility.yul\":4248:4249   */\n      dup3\n        /* \"#utility.yul\":4245:4246   */\n      dup3\n        /* \"#utility.yul\":4242:4250   */\n      lt\n        /* \"#utility.yul\":4239:4241   */\n      iszero\n      tag_101\n      jumpi\n        /* \"#utility.yul\":4253:4271   */\n      tag_102\n      tag_103\n      jump\t// in\n    tag_102:\n        /* \"#utility.yul\":4239:4241   */\n    tag_101:\n        /* \"#utility.yul\":4298:4299   */\n      dup3\n        /* \"#utility.yul\":4295:4296   */\n      dup3\n        /* \"#utility.yul\":4291:4300   */\n      sub\n        /* \"#utility.yul\":4283:4300   */\n      swap1\n      pop\n        /* \"#utility.yul\":4160:4306   */\n      swap3\n      swap2\n      pop\n      pop\n      jump\t// out\n        /* \"#utility.yul\":4312:4408   */\n    tag_64:\n      0x00\n        /* \"#utility.yul\":4378:4402   */\n      tag_105\n        /* \"#utility.yul\":4396:4401   */\n      dup3\n        /* \"#utility.yul\":4378:4402   */\n      tag_106\n      jump\t// in\n    tag_105:\n        /* \"#utility.yul\":4367:4402   */\n      swap1\n      pop\n        /* \"#utility.yul\":4357:4408   */\n      swap2\n      swap1\n      pop\n      jump\t// out\n        /* \"#utility.yul\":4414:4540   */\n    tag_106:\n      0x00\n        /* \"#utility.yul\":4491:4533   */\n      0xffffffffffffffffffffffffffffffffffffffff\n        /* \"#utility.yul\":4484:4489   */\n      dup3\n        /* \"#utility.yul\":4480:4534   */\n      and\n        /* \"#utility.yul\":4469:4534   */\n      swap1\n      pop\n        /* \"#utility.yul\":4459:4540   */\n      swap2\n      swap1\n      pop\n      jump\t// out\n        /* \"#utility.yul\":4546:4623   */\n    tag_99:\n      0x00\n        /* \"#utility.yul\":4612:4617   */\n      dup2\n        /* \"#utility.yul\":4601:4617   */\n      swap1\n      pop\n        /* \"#utility.yul\":4591:4623   */\n      swap2\n      swap1\n      pop\n      jump\t// out\n        /* \"#utility.yul\":4629:4809   */\n    tag_103:\n        /* \"#utility.yul\":4677:4754   */\n      0x4e487b7100000000000000000000000000000000000000000000000000000000\n        /* \"#utility.yul\":4674:4675   */\n      0x00\n        /* \"#utility.yul\":4667:4755   */\n      mstore\n        /* \"#utility.yul\":4774:4778   */\n      0x11\n        /* \"#utility.yul\":4771:4772   */\n      0x04\n        /* \"#utility.yul\":4764:4779   */\n      mstore\n        /* \"#utility.yul\":4798:4802   */\n      0x24\n        /* \"#utility.yul\":4795:4796   */\n      0x00\n        /* \"#utility.yul\":4788:4803   */\n      revert\n        /* \"#utility.yul\":4815:4937   */\n    tag_47:\n        /* \"#utility.yul\":4888:4912   */\n      tag_111\n        /* \"#utility.yul\":4906:4911   */\n      dup2\n        /* \"#utility.yul\":4888:4912   */\n      tag_64\n      jump\t// in\n    tag_111:\n        /* \"#utility.yul\":4881:4886   */\n      dup2\n        /* \"#utility.yul\":4878:4913   */\n      eq\n        /* \"#utility.yul\":4868:4870   */\n      tag_112\n      jumpi\n        /* \"#utility.yul\":4927:4928   */\n      0x00\n        /* \"#utility.yul\":4924:4925   */\n      dup1\n        /* \"#utility.yul\":4917:4929   */\n      revert\n        /* \"#utility.yul\":4868:4870   */\n    tag_112:\n        /* \"#utility.yul\":4858:4937   */\n      pop\n      jump\t// out\n        /* \"#utility.yul\":4943:5065   */\n    tag_51:\n        /* \"#utility.yul\":5016:5040   */\n      tag_114\n        /* \"#utility.yul\":5034:5039   */\n      dup2\n        /* \"#utility.yul\":5016:5040   */\n      tag_99\n      jump\t// in\n    tag_114:\n        /* \"#utility.yul\":5009:5014   */\n      dup2\n        /* \"#utility.yul\":5006:5041   */\n      eq\n        /* \"#utility.yul\":4996:4998   */\n      tag_115\n      jumpi\n        /* \"#utility.yul\":5055:5056   */\n      0x00\n        /* \"#utility.yul\":5052:5053   */\n      dup1\n        /* \"#utility.yul\":5045:5057   */\n      revert\n        /* \"#utility.yul\":4996:4998   */\n    tag_115:\n        /* \"#utility.yul\":4986:5065   */\n      pop\n      jump\t// out\n\n    auxdata: 0xa26469706673582212209b2ed2e5ad01f715d627eda847de9ef8a5dc919ef75152abf78b8850c7cd5bbd64736f6c63430008000033\n}\n",
				"bytecode": {
					"linkReferences": {},
					"object": "608060405234801561001057600080fd5b506106b3806100206000396000f3fe608060405234801561001057600080fd5b506004361061004c5760003560e01c806338eada1c146100515780639516a1041461006d578063df945c6e1461008b578063edf26d9b146100a7575b600080fd5b61006b600480360381019061006691906103e3565b6100d7565b005b61007561013d565b6040516100829190610524565b60405180910390f35b6100a560048036038101906100a0919061040c565b6101cb565b005b6100c160048036038101906100bc919061040c565b61037a565b6040516100ce9190610509565b60405180910390f35b6000819080600181540180825580915050600190039060005260206000200160009091909190916101000a81548173ffffffffffffffffffffffffffffffffffffffff021916908373ffffffffffffffffffffffffffffffffffffffff16021790555050565b606060008054806020026020016040519081016040528092919081815260200182805480156101c157602002820191906000526020600020905b8160009054906101000a900473ffffffffffffffffffffffffffffffffffffffff1673ffffffffffffffffffffffffffffffffffffffff1681526020019060010190808311610177575b5050505050905090565b6000805490508110610212576040517f08c379a000000000000000000000000000000000000000000000000000000000815260040161020990610546565b60405180910390fd5b6000600160008054905061022691906105b0565b8154811061025d577f4e487b7100000000000000000000000000000000000000000000000000000000600052603260045260246000fd5b9060005260206000200160009054906101000a900473ffffffffffffffffffffffffffffffffffffffff16600082815481106102c2577f4e487b7100000000000000000000000000000000000000000000000000000000600052603260045260246000fd5b9060005260206000200160006101000a81548173ffffffffffffffffffffffffffffffffffffffff021916908373ffffffffffffffffffffffffffffffffffffffff1602179055506000805480610342577f4e487b7100000000000000000000000000000000000000000000000000000000600052603160045260246000fd5b6001900381819060005260206000200160006101000a81549073ffffffffffffffffffffffffffffffffffffffff0219169055905550565b6000818154811061038a57600080fd5b906000526020600020016000915054906101000a900473ffffffffffffffffffffffffffffffffffffffff1681565b6000813590506103c88161064f565b92915050565b6000813590506103dd81610666565b92915050565b6000602082840312156103f557600080fd5b6000610403848285016103b9565b91505092915050565b60006020828403121561041e57600080fd5b600061042c848285016103ce565b91505092915050565b6000610441838361044d565b60208301905092915050565b610456816105e4565b82525050565b610465816105e4565b82525050565b600061047682610576565b610480818561058e565b935061048b83610566565b8060005b838110156104bc5781516104a38882610435565b97506104ae83610581565b92505060018101905061048f565b5085935050505092915050565b60006104d6600d8361059f565b91507f496e76616c696420696e646578000000000000000000000000000000000000006000830152602082019050919050565b600060208201905061051e600083018461045c565b92915050565b6000602082019050818103600083015261053e818461046b565b905092915050565b6000602082019050818103600083015261055f816104c9565b9050919050565b6000819050602082019050919050565b600081519050919050565b6000602082019050919050565b600082825260208201905092915050565b600082825260208201905092915050565b60006105bb82610616565b91506105c683610616565b9250828210156105d9576105d8610620565b5b828203905092915050565b60006105ef826105f6565b9050919050565b600073ffffffffffffffffffffffffffffffffffffffff82169050919050565b6000819050919050565b7f4e487b7100000000000000000000000000000000000000000000000000000000600052601160045260246000fd5b610658816105e4565b811461066357600080fd5b50565b61066f81610616565b811461067a57600080fd5b5056fea26469706673582212209b2ed2e5ad01f715d627eda847de9ef8a5dc919ef75152abf78b8850c7cd5bbd64736f6c63430008000033",
					"opcodes": "PUSH1 0x80 PUSH1 0x40 MSTORE CALLVALUE DUP1 ISZERO PUSH2 0x10 JUMPI PUSH1 0x0 DUP1 REVERT JUMPDEST POP PUSH2 0x6B3 DUP1 PUSH2 0x20 PUSH1 0x0 CODECOPY PUSH1 0x0 RETURN INVALID PUSH1 0x80 PUSH1 0x40 MSTORE CALLVALUE DUP1 ISZERO PUSH2 0x10 JUMPI PUSH1 0x0 DUP1 REVERT JUMPDEST POP PUSH1 0x4 CALLDATASIZE LT PUSH2 0x4C JUMPI PUSH1 0x0 CALLDATALOAD PUSH1 0xE0 SHR DUP1 PUSH4 0x38EADA1C EQ PUSH2 0x51 JUMPI DUP1 PUSH4 0x9516A104 EQ PUSH2 0x6D JUMPI DUP1 PUSH4 0xDF945C6E EQ PUSH2 0x8B JUMPI DUP1 PUSH4 0xEDF26D9B EQ PUSH2 0xA7 JUMPI JUMPDEST PUSH1 0x0 DUP1 REVERT JUMPDEST PUSH2 0x6B PUSH1 0x4 DUP1 CALLDATASIZE SUB DUP2 ADD SWAP1 PUSH2 0x66 SWAP2 SWAP1 PUSH2 0x3E3 JUMP JUMPDEST PUSH2 0xD7 JUMP JUMPDEST STOP JUMPDEST PUSH2 0x75 PUSH2 0x13D JUMP JUMPDEST PUSH1 0x40 MLOAD PUSH2 0x82 SWAP2 SWAP1 PUSH2 0x524 JUMP JUMPDEST PUSH1 0x40 MLOAD DUP1 SWAP2 SUB SWAP1 RETURN JUMPDEST PUSH2 0xA5 PUSH1 0x4 DUP1 CALLDATASIZE SUB DUP2 ADD SWAP1 PUSH2 0xA0 SWAP2 SWAP1 PUSH2 0x40C JUMP JUMPDEST PUSH2 0x1CB JUMP JUMPDEST STOP JUMPDEST PUSH2 0xC1 PUSH1 0x4 DUP1 CALLDATASIZE SUB DUP2 ADD SWAP1 PUSH2 0xBC SWAP2 SWAP1 PUSH2 0x40C JUMP JUMPDEST PUSH2 0x37A JUMP JUMPDEST PUSH1 0x40 MLOAD PUSH2 0xCE SWAP2 SWAP1 PUSH2 0x509 JUMP JUMPDEST PUSH1 0x40 MLOAD DUP1 SWAP2 SUB SWAP1 RETURN JUMPDEST PUSH1 0x0 DUP2 SWAP1 DUP1 PUSH1 0x1 DUP2 SLOAD ADD DUP1 DUP3 SSTORE DUP1 SWAP2 POP POP PUSH1 0x1 SWAP1 SUB SWAP1 PUSH1 0x0 MSTORE PUSH1 0x20 PUSH1 0x0 KECCAK256 ADD PUSH1 0x0 SWAP1 SWAP2 SWAP1 SWAP2 SWAP1 SWAP2 PUSH2 0x100 EXP DUP2 SLOAD DUP2 PUSH20 0xFFFFFFFFFFFFFFFFFFFFFFFFFFFFFFFFFFFFFFFF MUL NOT AND SWAP1 DUP4 PUSH20 0xFFFFFFFFFFFFFFFFFFFFFFFFFFFFFFFFFFFFFFFF AND MUL OR SWAP1 SSTORE POP POP JUMP JUMPDEST PUSH1 0x60 PUSH1 0x0 DUP1 SLOAD DUP1 PUSH1 0x20 MUL PUSH1 0x20 ADD PUSH1 0x40 MLOAD SWAP1 DUP2 ADD PUSH1 0x40 MSTORE DUP1 SWAP3 SWAP2 SWAP1 DUP2 DUP2 MSTORE PUSH1 0x20 ADD DUP3 DUP1 SLOAD DUP1 ISZERO PUSH2 0x1C1 JUMPI PUSH1 0x20 MUL DUP3 ADD SWAP2 SWAP1 PUSH1 0x0 MSTORE PUSH1 0x20 PUSH1 0x0 KECCAK256 SWAP1 JUMPDEST DUP2 PUSH1 0x0 SWAP1 SLOAD SWAP1 PUSH2 0x100 EXP SWAP1 DIV PUSH20 0xFFFFFFFFFFFFFFFFFFFFFFFFFFFFFFFFFFFFFFFF AND PUSH20 0xFFFFFFFFFFFFFFFFFFFFFFFFFFFFFFFFFFFFFFFF AND DUP2 MSTORE PUSH1 0x20 ADD SWAP1 PUSH1 0x1 ADD SWAP1 DUP1 DUP4 GT PUSH2 0x177 JUMPI JUMPDEST POP POP POP POP POP SWAP1 POP SWAP1 JUMP JUMPDEST PUSH1 0x0 DUP1 SLOAD SWAP1 POP DUP2 LT PUSH2 0x212 JUMPI PUSH1 0x40 MLOAD PUSH32 0x8C379A000000000000000000000000000000000000000000000000000000000 DUP2 MSTORE PUSH1 0x4 ADD PUSH2 0x209 SWAP1 PUSH2 0x546 JUMP JUMPDEST PUSH1 0x40 MLOAD DUP1 SWAP2 SUB SWAP1 REVERT JUMPDEST PUSH1 0x0 PUSH1 0x1 PUSH1 0x0 DUP1 SLOAD SWAP1 POP PUSH2 0x226 SWAP2 SWAP1 PUSH2 0x5B0 JUMP JUMPDEST DUP2 SLOAD DUP2 LT PUSH2 0x25D JUMPI PUSH32 0x4E487B7100000000000000000000000000000000000000000000000000000000 PUSH1 0x0 MSTORE PUSH1 0x32 PUSH1 0x4 MSTORE PUSH1 0x24 PUSH1 0x0 REVERT JUMPDEST SWAP1 PUSH1 0x0 MSTORE PUSH1 0x20 PUSH1 0x0 KECCAK256 ADD PUSH1 0x0 SWAP1 SLOAD SWAP1 PUSH2 0x100 EXP SWAP1 DIV PUSH20 0xFFFFFFFFFFFFFFFFFFFFFFFFFFFFFFFFFFFFFFFF AND PUSH1 0x0 DUP3 DUP2 SLOAD DUP2 LT PUSH2 0x2C2 JUMPI PUSH32 0x4E487B7100000000000000000000000000000000000000000000000000000000 PUSH1 0x0 MSTORE PUSH1 0x32 PUSH1 0x4 MSTORE PUSH1 0x24 PUSH1 0x0 REVERT JUMPDEST SWAP1 PUSH1 0x0 MSTORE PUSH1 0x20 PUSH1 0x0 KECCAK256 ADD PUSH1 0x0 PUSH2 0x100 EXP DUP2 SLOAD DUP2 PUSH20 0xFFFFFFFFFFFFFFFFFFFFFFFFFFFFFFFFFFFFFFFF MUL NOT AND SWAP1 DUP4 PUSH20 0xFFFFFFFFFFFFFFFFFFFFFFFFFFFFFFFFFFFFFFFF AND MUL OR SWAP1 SSTORE POP PUSH1 0x0 DUP1 SLOAD DUP1 PUSH2 0x342 JUMPI PUSH32 0x4E487B7100000000000000000000000000000000000000000000000000000000 PUSH1 0x0 MSTORE PUSH1 0x31 PUSH1 0x4 MSTORE PUSH1 0x24 PUSH1 0x0 REVERT JUMPDEST PUSH1 0x1 SWAP1 SUB DUP2 DUP2 SWAP1 PUSH1 0x0 MSTORE PUSH1 0x20 PUSH1 0x0 KECCAK256 ADD PUSH1 0x0 PUSH2 0x100 EXP DUP2 SLOAD SWAP1 PUSH20 0xFFFFFFFFFFFFFFFFFFFFFFFFFFFFFFFFFFFFFFFF MUL NOT AND SWAP1 SSTORE SWAP1 SSTORE POP JUMP JUMPDEST PUSH1 0x0 DUP2 DUP2 SLOAD DUP2 LT PUSH2 0x38A JUMPI PUSH1 0x0 DUP1 REVERT JUMPDEST SWAP1 PUSH1 0x0 MSTORE PUSH1 0x20 PUSH1 0x0 KECCAK256 ADD PUSH1 0x0 SWAP2 POP SLOAD SWAP1 PUSH2 0x100 EXP SWAP1 DIV PUSH20 0xFFFFFFFFFFFFFFFFFFFFFFFFFFFFFFFFFFFFFFFF AND DUP2 JUMP JUMPDEST PUSH1 0x0 DUP2 CALLDATALOAD SWAP1 POP PUSH2 0x3C8 DUP2 PUSH2 0x64F JUMP JUMPDEST SWAP3 SWAP2 POP POP JUMP JUMPDEST PUSH1 0x0 DUP2 CALLDATALOAD SWAP1 POP PUSH2 0x3DD DUP2 PUSH2 0x666 JUMP JUMPDEST SWAP3 SWAP2 POP POP JUMP JUMPDEST PUSH1 0x0 PUSH1 0x20 DUP3 DUP5 SUB SLT ISZERO PUSH2 0x3F5 JUMPI PUSH1 0x0 DUP1 REVERT JUMPDEST PUSH1 0x0 PUSH2 0x403 DUP5 DUP3 DUP6 ADD PUSH2 0x3B9 JUMP JUMPDEST SWAP2 POP POP SWAP3 SWAP2 POP POP JUMP JUMPDEST PUSH1 0x0 PUSH1 0x20 DUP3 DUP5 SUB SLT ISZERO PUSH2 0x41E JUMPI PUSH1 0x0 DUP1 REVERT JUMPDEST PUSH1 0x0 PUSH2 0x42C DUP5 DUP3 DUP6 ADD PUSH2 0x3CE JUMP JUMPDEST SWAP2 POP POP SWAP3 SWAP2 POP POP JUMP JUMPDEST PUSH1 0x0 PUSH2 0x441 DUP4 DUP4 PUSH2 0x44D JUMP JUMPDEST PUSH1 0x20 DUP4 ADD SWAP1 POP SWAP3 SWAP2 POP POP JUMP JUMPDEST PUSH2 0x456 DUP2 PUSH2 0x5E4 JUMP JUMPDEST DUP3 MSTORE POP POP JUMP JUMPDEST PUSH2 0x465 DUP2 PUSH2 0x5E4 JUMP JUMPDEST DUP3 MSTORE POP POP JUMP JUMPDEST PUSH1 0x0 PUSH2 0x476 DUP3 PUSH2 0x576 JUMP JUMPDEST PUSH2 0x480 DUP2 DUP6 PUSH2 0x58E JUMP JUMPDEST SWAP4 POP PUSH2 0x48B DUP4 PUSH2 0x566 JUMP JUMPDEST DUP1 PUSH1 0x0 JUMPDEST DUP4 DUP2 LT ISZERO PUSH2 0x4BC JUMPI DUP2 MLOAD PUSH2 0x4A3 DUP9 DUP3 PUSH2 0x435 JUMP JUMPDEST SWAP8 POP PUSH2 0x4AE DUP4 PUSH2 0x581 JUMP JUMPDEST SWAP3 POP POP PUSH1 0x1 DUP2 ADD SWAP1 POP PUSH2 0x48F JUMP JUMPDEST POP DUP6 SWAP4 POP POP POP POP SWAP3 SWAP2 POP POP JUMP JUMPDEST PUSH1 0x0 PUSH2 0x4D6 PUSH1 0xD DUP4 PUSH2 0x59F JUMP JUMPDEST SWAP2 POP PUSH32 0x496E76616C696420696E64657800000000000000000000000000000000000000 PUSH1 0x0 DUP4 ADD MSTORE PUSH1 0x20 DUP3 ADD SWAP1 POP SWAP2 SWAP1 POP JUMP JUMPDEST PUSH1 0x0 PUSH1 0x20 DUP3 ADD SWAP1 POP PUSH2 0x51E PUSH1 0x0 DUP4 ADD DUP5 PUSH2 0x45C JUMP JUMPDEST SWAP3 SWAP2 POP POP JUMP JUMPDEST PUSH1 0x0 PUSH1 0x20 DUP3 ADD SWAP1 POP DUP2 DUP2 SUB PUSH1 0x0 DUP4 ADD MSTORE PUSH2 0x53E DUP2 DUP5 PUSH2 0x46B JUMP JUMPDEST SWAP1 POP SWAP3 SWAP2 POP POP JUMP JUMPDEST PUSH1 0x0 PUSH1 0x20 DUP3 ADD SWAP1 POP DUP2 DUP2 SUB PUSH1 0x0 DUP4 ADD MSTORE PUSH2 0x55F DUP2 PUSH2 0x4C9 JUMP JUMPDEST SWAP1 POP SWAP2 SWAP1 POP JUMP JUMPDEST PUSH1 0x0 DUP2 SWAP1 POP PUSH1 0x20 DUP3 ADD SWAP1 POP SWAP2 SWAP1 POP JUMP JUMPDEST PUSH1 0x0 DUP2 MLOAD SWAP1 POP SWAP2 SWAP1 POP JUMP JUMPDEST PUSH1 0x0 PUSH1 0x20 DUP3 ADD SWAP1 POP SWAP2 SWAP1 POP JUMP JUMPDEST PUSH1 0x0 DUP3 DUP3 MSTORE PUSH1 0x20 DUP3 ADD SWAP1 POP SWAP3 SWAP2 POP POP JUMP JUMPDEST PUSH1 0x0 DUP3 DUP3 MSTORE PUSH1 0x20 DUP3 ADD SWAP1 POP SWAP3 SWAP2 POP POP JUMP JUMPDEST PUSH1 0x0 PUSH2 0x5BB DUP3 PUSH2 0x616 JUMP JUMPDEST SWAP2 POP PUSH2 0x5C6 DUP4 PUSH2 0x616 JUMP JUMPDEST SWAP3 POP DUP3 DUP3 LT ISZERO PUSH2 0x5D9 JUMPI PUSH2 0x5D8 PUSH2 0x620 JUMP JUMPDEST JUMPDEST DUP3 DUP3 SUB SWAP1 POP SWAP3 SWAP2 POP POP JUMP JUMPDEST PUSH1 0x0 PUSH2 0x5EF DUP3 PUSH2 0x5F6 JUMP JUMPDEST SWAP1 POP SWAP2 SWAP1 POP JUMP JUMPDEST PUSH1 0x0 PUSH20 0xFFFFFFFFFFFFFFFFFFFFFFFFFFFFFFFFFFFFFFFF DUP3 AND SWAP1 POP SWAP2 SWAP1 POP JUMP JUMPDEST PUSH1 0x0 DUP2 SWAP1 POP SWAP2 SWAP1 POP JUMP JUMPDEST PUSH32 0x4E487B7100000000000000000000000000000000000000000000000000000000 PUSH1 0x0 MSTORE PUSH1 0x11 PUSH1 0x4 MSTORE PUSH1 0x24 PUSH1 0x0 REVERT JUMPDEST PUSH2 0x658 DUP2 PUSH2 0x5E4 JUMP JUMPDEST DUP2 EQ PUSH2 0x663 JUMPI PUSH1 0x0 DUP1 REVERT JUMPDEST POP JUMP JUMPDEST PUSH2 0x66F DUP2 PUSH2 0x616 JUMP JUMPDEST DUP2 EQ PUSH2 0x67A JUMPI PUSH1 0x0 DUP1 REVERT JUMPDEST POP JUMP INVALID LOG2 PUSH5 0x6970667358 0x22 SLT KECCAK256 SWAP12 0x2E 0xD2 0xE5 0xAD ADD 0xF7 ISZERO 0xD6 0x27 0xED 0xA8 SELFBALANCE 0xDE SWAP15 0xF8 0xA5 0xDC SWAP2 SWAP15 0xF7 MLOAD MSTORE 0xAB 0xF7 DUP12 DUP9 POP 0xC7 0xCD JUMPDEST 0xBD PUSH5 0x736F6C6343 STOP ADDMOD STOP STOP CALLER "
				},
				"gasEstimates": {
					"creation": {
						"codeDepositCost": "343000",
						"executionCost": "380",
						"totalCost": "343380"
					},
					"external": {
						"addAddress(address)": "42212",
						"addresses(uint256)": "2400",
						"getAllAddresses()": "infinite",
						"removeAddress(uint256)": "infinite"
					}
				},
				"methodIdentifiers": {
					"addAddress(address)": "38eada1c",
					"addresses(uint256)": "edf26d9b",
					"getAllAddresses()": "9516a104",
					"removeAddress(uint256)": "df945c6e"
				}
			},
			"storageLayout": {
				"storage": [
					{
						"astId": 4,
						"contract": "contracts/RoleIndex.sol:AddressList",
						"label": "addresses",
						"offset": 0,
						"slot": "0",
						"type": "t_array(t_address)dyn_storage"
					}
				],
				"types": {
					"t_address": {
						"encoding": "inplace",
						"label": "address",
						"numberOfBytes": "20"
					},
					"t_array(t_address)dyn_storage": {
						"base": "t_address",
						"encoding": "dynamic_array",
						"label": "address[]",
						"numberOfBytes": "32"
					}
				}
			},
			"userdoc": {
				"kind": "user",
				"methods": {},
				"version": 1
			}
		}
	}
}